:020000040000FA
:1000000088010010D5000000E5000000DD000000C0
:10001000000000000000000000000000E1FBFFEF16
:10002000000000000000000000000000DF000000F1
:100030000000000000000000E1000000E3000000FC
:10004000E5000000E500000000000000E500000001
:10005000E5000000E500000000000000E5000000F1
:10006000E5000000E5000000E5000000E5000000FC
:10007000E5000000E5000000E5000000C9090000FF
:10008000E5000000E5000000E5000000E5000000DC
:10009000E5000000E5000000E500000000000000B1
:1000A000E5000000E5000000E5000000E5000000BC
:1000B000E5000000E5000000E5000000E5000000AC
:1000C0000348854600F0B8F800480047A10A000040
:1000D000880100100448804704480047FEE7FEE717
:1000E000FEE7FEE7FEE70000A1090000C1000000F6
:1000F00030B50B46014600202022012409E00D46C0
:10010000D5409D4205D31D469540491B2546954047
:1001100040191546521E002DF1DC30BDF0B51FB45C
:100120000646002082B005464024019100901BE065
:10013000019922460F46304600F06DF8049A059B5F
:10014000801A994110D310461946224600F053F800
:10015000361A8F410197224601200021009F00F0AE
:100160004AF838184D4100902046641E0028DFDC14
:10017000019B00982946324607B0F0BDF0B51FB488
:1001800086B000200090019002900698069980B2F7
:1001900004900798090C02040014114307900027EB
:1001A000089D099806913E463C4603900398A9B2E3
:1001B0000204000C039004982D0C154348430021C1
:1001C000224600F018F8C719714110340E46402C31
:1001D000ECDB3846029A00F00EF8009A019B80187A
:1001E0000090594102980191103002904028CCDBD8
:1001F00000980BB0F0BD10B5202A04DB0146203A70
:100200009140002010BD914020239C1A0346E340FA
:100210001943904010BD10B5202A04DB0846203A4F
:10022000D040002110BD0B46D340D0402024A21A5C
:1002300091400843194610BD064C0125064E05E0C5
:10024000E36807CC2B430C3C98471034B442F7D3F7
:10025000FFF73AFFC40F0000E40F000010B500F0F4
:10026000ABF8154800F040FB0420134A1268134B0A
:100270001A4011460A4602430F4B1A6000BF012183
:100280000F4800F0A9F9E12149020B4800F056FBA4
:1002900000BF0948006809497C3108400121084332
:1002A0000549086000BF00BF08464068054908408E
:1002B0000149486000BF10BD0080064001DAFC0023
:1002C00000C0A8000603010010B5094CFFF7C6FFE7
:1002D00000BF084800680849084040210843054914
:1002E000086000BF00F028F800F00AF810BD000018
:1002F00000C0004080800440FFFFEF25FFFFFFFFAC
:1003000070B50A4D00240DE00948025D002319462E
:100310000520400700F0AEF980200649095D8900FC
:100320006850641C022CEFDB70BD000000400440EC
:10033000240C0000260C000010B5002410E00A4830
:10034000025D012300210520400700F093F90648D3
:10035000025D012300210520400700F09EF9641C86
:10036000082CECDB10BD00001C0C000070B504462E
:100370000D46082C09DA0120684003460348025D57
:1003800000210520400700F088F970BD1C0C00001A
:1003900070B508280DDA052149070022054C235CB9
:1003A00001249C409500232636028E19745100BF0B
:1003B00000BF70BD1C0C000010B50720012181405A
:1003C000134A1268134B1A401143114A116000BFBF
:1003D000062000F0FDF9072000F0FAF901200C4991
:1003E000486100BF0821112000F0FEF90921122008
:1003F00000F0FAF9072006490A6801218140054BFF
:10040000DB4319438A4302490A6000BF10BD000064
:1004100080800440FFFFEF2510B500240F48006BDB
:100420008007800F002806D0012808D002280AD0B3
:10043000032810D10BE000BF094804460BE000F090
:1004400027F8044607E000F0A9F8044603E000F0AE
:1004500045F8044600BF00BF204610BD4080044060
:10046000001BB7000246D006C00E431C0846584386
:100470007047000010B5FFF7CFFF04460348806BBC
:10048000C1B22046FFF734FE10BD0000408004409A
:100490000E4909688907890F002904D0012906D06F
:1004A00003290ED108E000BF094800BF0BE000BFE0
:1004B0000849086800BF06E000BF0749086800BF98
:1004C00001E0002000BF00BF7047000040800440F2
:1004D000001BB700280C00002C0C000010B5FFF723
:1004E000D7FF0446034989684806400E2146FFF7B6
:1004F000B9FF10BD00800440F0B589B000BF1E48B0
:100500004069C0B205900598002801D100242FE071
:10051000FFF782FF02900599FFF7EAFD00250446E8
:1005200000BF15484030006BC0B203900398FF280D
:100530001DD100BF10484030406BC0B204900498F9
:10054000FF300130FF2101310290002026462F4666
:100550000791069030463946069B079AFFF70EFE34
:10056000019100900023029AFFF7D8FD044600BFD6
:10057000204609B0F0BD00008080044070B50446FC
:10058000E005060FE506ED0E6A1C5100B200024BB5
:100590009858FFF7ADFD70BD300C000010B5034951
:1005A000496AC805C00DFFF7E9FF10BD008004408F
:1005B000034908630021024A5163012151637047D6
:1005C00040800440034908600021024A5160012133
:1005D0005160704740800440FEB505460E46FFF767
:1005E0001BFF019029460198FFF782FD0446002C6D
:1005F00000D10124E0B21D49486100BF002E2FD078
:10060000022000BF194980394A6801218140184BF6
:1006100019438A43154980394A6000BF00BF012150
:100620008140124A803A5268DB431A4011430F4A14
:10063000803A516000BF00BFFF2000F03BF9214627
:100640000198FFF755FD070229463846FFF750FD90
:1006500000900099C8B205494031486300BF02E0EC
:10066000002000F027F9FFF747FFFEBD808004401F
:100670000020FEFF70B5002B07D0012494408D00B0
:100680004726F6018619745106E0012494408D0036
:100690000926B6028619745170BD10B54C01241894
:1006A000A35410BDF3B581B00D461D490198FFF765
:1006B0001FFD80B200901A492846FFF719FD86B247
:1006C000002700241E2E01DD0020FEBD00986028BA
:1006D00001DD0020F9E7002412E00C2060431149FD
:1006E000095A009881420AD10C2060430D494018F4
:1006F0004088B04203D10C490C80012702E0641C01
:10070000472CEAD300BF012F07D1074909880C22E3
:100710005143044A881800F047FA3846D5E70000EC
:1007200040420F00700C00000000001005490969EC
:100730001622114004221143024A11610321016073
:1007400030BF704700ED00E00549096916221140ED
:1007500004221143024A11610121016030BF704738
:1007600000ED00E0054909691622114004221143F9
:10077000024A11610221016030BF704700ED00E0C4
:1007800010B504460B46012B03D12046FFF7DCFFD2
:100790000EE0022B03D12046FFF7E4FF08E0032B15
:1007A00003D12046FFF7C2FF02E0204600F002F826
:1007B00010BD000005490969162211400422914329
:1007C000024A11610021016030BF704700ED00E076
:1007D00001218140034A1268D201D2091143014A22
:1007E00011607047C0C10040F0B505076A0E0311E3
:1007F0009D00074EAD192D68FF269640B5432C4647
:100800000D46954025439E00014FF6193560F0BD19
:1008100000C0004000BF0B494A68012181400A4BDB
:1008200019438A4307494A6000BF00BF0121814044
:10083000044A5268DB431A401143024A516000BF28
:1008400070470000008004400020FEFF064A926BC3
:10085000064B1A4011461A46024011436D221202FD
:100860000A43014B9A63704700820440FF800000F6
:100870000146084A926B084B1A4010461A460A4035
:100880000346934318466D2212020243014B9A63BA
:100890007047000000820440FF80000048210140B2
:1008A000024A1143024A116370470000B7FF00007B
:1008B000008204400149086370470000C080044082
:1008C000034901406D2212021143024A51637047ED
:1008D000FF8000000082044010B502494800FFF785
:1008E000E1FE10BD80C3C90170B50446204600F08A
:1008F000C5F805460120A8400C4909680C4A11407A
:1009000008430A49086000BF0A48844203D1032013
:10091000FFF780FF09E00848844203D10420FFF775
:1009200079FF02E00520FFF775FF70BD808004406D
:10093000FFFFEF250040064000800640F8B5044662
:100940000D46FFF7D9FD07462901FFF7D1FB064603
:10095000701E2062F8BD0000014600BF0868C00795
:10096000C00F002801D1024870470248FCE7000090
:10097000B0710B0010270000012904D10268012387
:100980001A43026003E00268520852000260704796
:1009900010B5FFF76FFD0149086010BD040000109D
:1009A00010B5122001218140054A1268054B1A40FA
:1009B0001143034A116000BFFFF78EFF10BD000016
:1009C00080800440FFFFEF2510B500BF0648006897
:1009D0004007400F022108430349086000BF002080
:1009E000FFF7D6FC10BD000000800040F8B50446BB
:1009F0000D46164621461248FFF7BEFF1048FFF786
:100A0000ABFF07466F430E48C76000BF4820FFF7A3
:100A100045FFA720C043FFF753FF31460948FFF7C2
:100A2000AFFE0020FFF73AFF00BF0548006840070F
:100A3000400F042108430249086000BFF8BD0000D0
:100A4000008000400000024002E008C8121F08C1F8
:100A5000002AFAD170477047002001E001C1121F3F
:100A6000002AFBD1704708B50021009102E00099EF
:100A7000491C009100998142F9D308BD01460648FE
:100A8000814201D10E2070470448814201D10F20DC
:100A9000F9E71020F7E7000000400640008006401C
:100AA000FFF776FFFFF710FC0120C00338494968C3
:100AB000C9B20143364A516100BF0920012181407A
:100AC000344A1268344B1A401143324A116000BF55
:100AD00000BF00BF2F4980394A68012181402F4B58
:100AE00019438A432B4980394A6000BF00BF012166
:100AF0008140284A803A5268DB431A401143254A14
:100B0000803A516000BF00BF0A20254949690F2281
:100B1000D24302439143224A516100BF0D20114646
:100B200049690907090F0143516100BF0F200121E5
:100B300081401C4A116000BF194800680121C902A8
:100B4000084000280DD016480468C0140443144817
:100B5000046001210020FFF709FC01200005FFF7D8
:100B600082FF13E0002201210846FFF73FFF012228
:100B700011461046FFF73AFF022201210846FFF70F
:100B800035FF032201210846FFF730FFEAE70000A6
:100B90000082044080800440FFFFEF250020FEFF1C
:100BA0000000024000E100E010B504460220FFF71B
:100BB0005FFE0020FFF706FD0020FFF7F9FC012093
:100BC000144A126900210A460243124B1A6100BFFF
:100BD0008020FFF73BFEA079217AC206D20E8B0758
:100BE0005B0E1A430C4B9A6000BF8020FFF740FE5B
:100BF00000BF00BF0848C068C007C00F0028F8D079
:100C0000608905494031886300BF0320FFF7D0FCAD
:100C100010BD00000000044000800440070D1011CA
:100C2000131B1C120C01020B001BB700000000007C
:100C300000000000C027090090051000C05C1500EE
:100C4000F0B31A00200B2000009F2400E03229009E
:100C5000C0C62D0050973100E0673500703839006C
:100C600000093D004016400080234300C03046008C
:100C70000C000C00C0000000030001000C00060086
:100C8000C0000000030002000C000400C0000000CF
:100C9000030003000C000300C00000000300040078
:100CA0000C000200C0000000030006000C00010060
:100CB000C000000003000C0018001800C000010074
:100CC0000200010018000C00C00001000200020038
:100CD00018000800C0000100020003001800060010
:100CE000C00001000200040018000400C000010060
:100CF0000200060018000300C00001000200080006
:100D000018000200C000010002000C0018000100E1
:100D1000C00001000200180024001200200102009F
:100D20000200020024000C00200102000200030067
:100D30002400090020010200020004002400060033
:100D4000200102000200060024000400200102002D
:100D500002000900240003002001020002000C0030
:100D60002400020020010200020012002400010001
:100D7000200102000200240030001800C00003001F
:100D80000100020030001000C00003000100030059
:100D900030000C00C0000300010004003000080017
:100DA000C00003000100060030000600C000030080
:100DB0000100080030000400C000030001000C0026
:100DC00030000300C00003000100100030000200EA
:100DD000C00003000100180030000100C000030043
:100DE000010030003C001E00F00004000100020081
:100DF0003C001400F0000400010003003C000F0060
:100E0000F0000400010004003C000C00F0000400AD
:100E1000010005003C000A00F0000400010006008B
:100E20003C000600F000040001000A003C00050040
:100E3000F000040001000C003C000400F00004007D
:100E400001000F003C000300F0000400010014004A
:100E50003C000200F000040001001E003C00010004
:100E6000F000040001003C004800180020010500CB
:100E700001000300480012002001050001000400E9
:100E800048000C0020010500010006004800090090
:100E900020010500010008004800080020010500AD
:100EA00001000900480006002001050001000C00B7
:100EB0004800040020010500010012004800030062
:100EC0002001050001001800480002002001050073
:100ED0000100240048000100200105000100480035
:100EE00054001C00A8000600000003005400150078
:100EF000A80006000000040054000E00A800060030
:100F00000000060054000C00A800060000000700C6
:100F100054000700A800060000000C005400060062
:100F2000A800060000000E0054000400A8000600FF
:100F30000000150054000300A800060000001C007B
:100F400054000200A800060000002A00540001001E
:100F5000A80006000000540060001800C000070050
:100F60000000040060001000C00007000000060040
:100F700060000C00C00007000000080060000800CE
:100F8000C000070000000C0060000600C000070061
:100F90000000100060000400C000070000001800FE
:100FA00060000300C0000700000020006000020095
:100FB000C00007000000300060000100C000070012
:100FC00000006000E40F00000000001008000000B6
:100FD000480A0000EC0F000008000010800100002B
:0C0FE000580A00000000000000000000A3
:04000005000000C136
:00000001FF
