:020000040000FA
:10000000B0030010D5000000E5000000DD00000096
:10001000000000000000000000000000B9F9FFEF40
:10002000000000000000000000000000DF000000F1
:100030000000000000000000E10000003115000099
:10004000E5000000E500000000000000E500000001
:10005000E5000000E500000000000000E5000000F1
:10006000DD100000E5000000E5000000E5000000F4
:10007000E5000000E5000000E5000000E5000000EC
:100080005D020000E5000000E5000000E500000062
:10009000E5000000E5000000E500000000000000B1
:1000A000E5000000E5000000E5000000E5000000BC
:1000B000E5000000E5000000E5000000E5000000AC
:1000C0000348854600F0B8F800480047791B000057
:1000D000B00300100448804704480047FEE7FEE7ED
:1000E000FEE7FEE7FEE700007D150000C10000000E
:1000F00030B50B46014600202022012409E00D46C0
:10010000D5409D4205D31D469540491B2546954047
:1001100040191546521E002DF1DC30BDF0B51FB45C
:100120000646002082B005464024019100901BE065
:10013000019922460F46304600F06DF8049A059B5F
:10014000801A994110D310461946224600F053F800
:10015000361A8F410197224601200021009F00F0AE
:100160004AF838184D4100902046641E0028DFDC14
:10017000019B00982946324607B0F0BDF0B51FB488
:1001800086B000200090019002900698069980B2F7
:1001900004900798090C02040014114307900027EB
:1001A000089D099806913E463C4603900398A9B2E3
:1001B0000204000C039004982D0C154348430021C1
:1001C000224600F018F8C719714110340E46402C31
:1001D000ECDB3846029A00F00EF8009A019B80187A
:1001E0000090594102980191103002904028CCDBD8
:1001F00000980BB0F0BD10B5202A04DB0146203A70
:100200009140002010BD914020239C1A0346E340FA
:100210001943904010BD10B5202A04DB0846203A4F
:10022000D040002110BD0B46D340D0402024A21A5C
:1002300091400843194610BD064C0125064E05E0C5
:10024000E36807CC2B430C3C98471034B442F7D3F7
:10025000FFF73AFF242000004420000010B500BF43
:100260000B48806E0446012000072040002802D081
:1002700001200849087008202040002802D00120F1
:10028000054908702146024800F036F810BD00000C
:1002900000C00140040000100500001010B50A4C19
:1002A00000F098F900BF094800680949084040215A
:1002B00008430649086000BF00F0C2F900F066FF7D
:1002C00000F04AFF10BD000000C0004080800440E4
:1002D000FFFFEF2570B504460D46082C09DA012012
:1002E000684003460348025D00210520400700F0F6
:1002F000F8FB70BD781C000081667047FFFFFFFFB0
:1003000008B579A000F0CAF900217C4800F012FA83
:100310007A4800F039FA00BF00BF78480068810FC2
:10032000012088430028F7D0754E00F0B7FA314617
:100330000090FFF7DDFE401EC7B270490968080A49
:100340000002014639436D4A116000BF00BF1046EC
:1003500000216C4A8B0006460836F25000BF072089
:1003600000F044FA102068490A68012181407F2387
:100370005B0619438A4364490A6000BF072063494A
:100380000A6801218140624B19438A435F490A6030
:1003900000BF5A4800215F4A13018E0007465037BC
:1003A000BB5100BF5C4A13018E0007465837BB5152
:1003B00000BF00BF806E064631465048FFF79CFFE5
:1003C00005204E49496E4901490901434B4A51668E
:1003D00000BF08201146096E504A02439143474A24
:1003E000116600BF03200221536E4600F61C032253
:1003F000B2401F26F60616431A46B2434300DB1CE2
:100400000E469E4032433D4B5A6600BF102000F01E
:10041000F9FE3A4E002772043946304600F0A4F93E
:1004200000BF64213E480068FFF762FE0646701E6A
:100430003C49884200D90CE0701E3B4948610321C9
:10044000081F00F0E9FE0020374988610720086195
:1004500000BF48E030BF35480078002805D00020B4
:100460003249087032A000F019F93B4800780028A2
:1004700039D0002038490870002532E01F48E9B221
:100480008B0002462032D45800BFA00F80070028FE
:1004900026D02004020D294630A001F0AFF8A003B9
:1004A000810F33A001F0AAF82003810F36A001F0DC
:1004B000A5F8012080072040002801D038A000E0E6
:1004C00039A001463AA001F099F8E00FC0070028D2
:1004D00001D033A000E034A0014639A001F08EF82D
:1004E0006D1C0C2DCADBB5E70A41444320546573EB
:1004F000742073746172740A0D00000000C0014022
:1005000080C3C90108000040C0C100408080044091
:10051000000010DAFF030000FF0B000000F0FFFFF7
:1005200024000010FFFFFF0000E000E005000010C5
:100530002A2A2A2A2A2A2A2A4144432074687265D0
:1005400073686F6C64206576656E742A2A2A2A2A7D
:100550002A2A2A0D0A000000040000104368616E78
:100560003A2025642056616C3A2025640D0A00006B
:100570005468726573686F6C642072616E67653A67
:1005800020307825782000005468726573686F6C9D
:10059000642063726F73733A20307825780D0A00F7
:1005A000747275650000000066616C736500000080
:1005B0004F76657272756E3A202573200D0A000021
:1005C000446174612056616C69643A2025730D0A98
:1005D0000D0A000010B500F091F8154800F096FCE7
:1005E0000420134A1268134B1A4011460A4602436C
:1005F0000F4B1A6000BF01210F4800F011FAE121F2
:1006000049020B4800F0DCFC00BF094800680949BA
:100610007C310840012108430549086000BF00BF44
:1006200008464068054908400149486000BF10BDC0
:100630000080064001DAFC0000C0A80006030100AB
:1006400010B5002410E00A48025D012300210520B6
:10065000400700F033FA0648025D0123002105201F
:10066000400700F03EFA641C082CECDB10BD0000D3
:10067000781C000070B508280DDA05214907002212
:10068000054C235C01249C409500232636028E19DC
:10069000745100BF00BF70BD781C000010B5044647
:1006A00003E02078641C00F005F820780028F8D1D9
:1006B00010BD000001B5684600780A2810D10D4829
:1006C00000780D280CD00D200A49087001220A4834
:1006D00000F05DFC01226946074800F058FC08E084
:1006E00001226946044800F052FC6846007801493E
:1006F000087008BD1C0000100080064010B50720DF
:1007000000F090F8002000F01BFB182000F018FB10
:1007100001200749486100BF0421112000F038FB87
:100720000021122000F034FB072000F051F810BD2A
:100730008080044070B504460D46102000F088FB10
:10074000182001218140064A1268064B1A401143C5
:10075000034A116000BF00206066256070BD000084
:1007600080800440FFFFEF2530B58C00034608333E
:100770001B59044C234013438D0004460834635135
:1007800030BD0000FF7F0CFCF8B504462068012155
:1007900089070843206020688915884320600B4D35
:1007A00000F07CF807462946FFF7A2FC401EC6B2BF
:1007B0002168080A000201463143216000BF00BFE2
:1007C00020680121890288432060F8BD20A107002C
:1007D00004490A6801218140034B19438A430149B6
:1007E0000A60704780800440000010DA01218140D7
:1007F000034A1268034B1A401143014A11607047C3
:1008000080800440FFFFEF2501218140034A1268E8
:10081000034B1A401143014A116070478080044025
:10082000FFFFEF2501218140034A1268034B1A4064
:100830001143014A1160704780800440FFFFEF259B
:1008400010B500240F48006B8007800F002806D0E9
:10085000012808D002280AD0032810D10BE000BFDD
:10086000094804460BE000F027F8044607E000F0D2
:10087000A9F8044603E000F045F8044600BF00BFB5
:10088000204610BD40800440001BB7000246D00641
:10089000C00E431C084658437047000010B5FFF7D0
:1008A000CFFF04460348806BC1B22046FFF720FC0F
:1008B00010BD0000408004400E4909688907890F77
:1008C000002904D0012906D003290ED108E000BF79
:1008D000094800BF0BE000BF0849086800BF06E0F8
:1008E00000BF0749086800BF01E0002000BF00BF4B
:1008F0007047000040800440001BB700881C0000C7
:100900008C1C000010B5FFF7D7FF04460349896827
:100910004806400E2146FFF7B9FF10BD0080044095
:10092000F0B589B000BF1E484069C0B20590059877
:10093000002801D100242FE0FFF782FF02900599E3
:10094000FFF7D6FB0025044600BF15484030006B7A
:10095000C0B203900398FF281DD100BF104840305B
:10096000406BC0B204900498FF300130FF21013188
:100970000290002026462F460791069030463946C1
:10098000069B079AFFF7FAFB019100900023029A59
:10099000FFF7C4FB044600BF204609B0F0BD0000CD
:1009A0008080044070B50446E005060FE506ED0EB4
:1009B0006A1C5100B200024B9858FFF799FB70BDBA
:1009C000901C000010B50349496AC805C00DFFF727
:1009D000E9FF10BD00800440034908630021024A7A
:1009E000516301215163704740800440024600205A
:1009F000002A01D001231843002901D00223184303
:100A0000014B1862704700000080044003490860F1
:100A10000021024A5160012151607047408004402A
:100A2000FEB505460E46FFF70BFF019029460198DB
:100A3000FFF75EFB0446002C00D10124E0B21D4903
:100A4000486100BF002E2FD0022000BF1949803915
:100A50004A6801218140184B19438A43154980395E
:100A60004A6000BF00BF01218140124A803A5268AB
:100A7000DB431A4011430F4A803A516000BF00BF68
:100A8000FF2000F0FBF921460198FFF731FB070238
:100A900029463846FFF72CFB00900099C8B205495B
:100AA0004031486300BF02E0002000F0E7F9FFF7A3
:100AB00037FFFEBD808004400020FEFF70B5002B94
:100AC00007D0012494408D004726F6018619745101
:100AD00006E0012494408D000926B602861974515F
:100AE00070BD10B54C012418A35410BD50220A400B
:100AF00042607047042101627047F8B505460E4612
:100B000000BF686980B2401C70430746FFF7C6FE0D
:100B100039460090FFF7ECFA04466008201A82B2CA
:100B2000E003010C284600F001F8F8BD10B50229D9
:100B300001DA022102E0092900DD0921022A01DA95
:100B4000022202E0092A00DD09228B1E5B075B0EF0
:100B5000941E6407640F2343436210BD8162704793
:100B600070B505460C46FF20A08150212846FFF7AE
:100B7000BDFFA07B40002289002A01D1012200E0B4
:100B800000221043C1B22846FFF7E8FF00BF022051
:100B9000286200BF70BD000070B505460C4600BF5E
:100BA00068683F490840064610203040002806D0BB
:100BB0000520A08110212846FFF798FF69E040201A
:100BC0003040002806D00320A08140212846FFF7AE
:100BD0008DFF5EE0F007C00F002858D000BF6868A6
:100BE0000E2108404008030000F018FD0504051C14
:100BF00041474D004AE0A86AC1B26268501C60607B
:100C000011706089401E60816089002804D000BF97
:100C10000120286200BF04E00020A0812846FFF7E1
:100C200069FF33E0208900280CD02168481C20602F
:100C30000878A8622089401E208100BF0120286218
:100C400000BF13E0608900280BD0A07B4000401C4F
:100C5000C1B22846FFF782FF00BF0220286200BF12
:100C600004E00020A0812846FFF744FF0EE00220A8
:100C7000A0812846FFF73EFF08E00420A081284617
:100C8000FFF738FF02E00120A08100BF01E0012052
:100C9000A081A089FF2801D0012070BD0020FCE7C1
:100CA0005FFF0F0370B50546284600F021FA0446A1
:100CB0000120A04013490968134A11400843114913
:100CC000086000BF284600F02DFA044620460D4972
:100CD00080394A68012181400C4B19438A430949F4
:100CE00080394A6000BF00BF01218140054A803A37
:100CF0005268DB431A401143024A803A516000BFF8
:100D000000BF70BD80800440FFFFEF250020FEFF84
:100D100030B58C00045903252D02AC432346140240
:100D20001C438D00445130BD30B58C00045918254A
:100D3000AC432346D4001C438D00445130BD000019
:100D400001218140034A1268D201D2091143014AAC
:100D500011607047C0C1004005490A680121814007
:100D60007F235B0619438A4301490A6070470000EC
:100D7000C0C1004005490A68012181407F235B060C
:100D800019438A4301490A6070470000C0C100400E
:100D9000F0B505076A0E03119D00074EAD192D68C9
:100DA000FF269640B5432C460D46954025439E00B0
:100DB000014FF6193560F0BD00C0004000BF0B497F
:100DC0004A68012181400A4B19438A4307494A6016
:100DD00000BF00BF01218140044A5268DB431A4032
:100DE0001143024A516000BF704700000080044078
:100DF0000020FEFF00BF0B494A68012181400A4BD9
:100E000019438A4307494A6000BF00BF012181405E
:100E1000044A5268DB431A401143024A516000BF42
:100E200070470000008004400020FEFF064A926BDD
:100E3000064B1A4011461A46024011436D22120217
:100E40000A43014B9A63704700820440FF80000010
:100E50000146084A926B084B1A4010461A460A404F
:100E60000346934318466D2212020243014B9A63D4
:100E70007047000000820440FF80000001490863C1
:100E800070470000C080044010B500210846FFF7FD
:100E9000ADFD2020FFF7DCFF0120FFF7B7FD0120AB
:100EA000144A126900210A460243124B1A6100BF1C
:100EB0008020FFF7BBFF042001214A0102430E4BB3
:100EC0009A6000BF8020FFF7C3FF0720FFF79CFC5C
:100ED00000BF00BF0848C068C007C00F0028F8D096
:100EE000022005494031886300BF0320FFF774FDED
:100EF00010BD0000000004400080044001468868E6
:100F0000014A1040704700007FFD010070B50446A3
:100F1000204600F01FFE05460120A8400C49096844
:100F20000C4A114008430A49086000BF0A4884423D
:100F300003D10320FFF75EFF09E00848844203D194
:100F40000420FFF757FF02E00520FFF753FF70BDB5
:100F500080800440FFFFEF250040064000800640EF
:100F6000F7B50D46164600242F4605E0397800985F
:100F700000F024F87F1C641CB44206DA0098FFF7E6
:100F8000BDFF042108400028F0D12046FEBDF7B582
:100F900082B00E461546002701960AE02A460199BE
:100FA0000298FFF7DDFF04462D1B3F190198001939
:100FB0000190002DF2DC384605B0F0BDC1617047EC
:100FC000F8B504460D46FFF7ABFC07462901FFF7CD
:100FD0008FF80646701E2062F8BD000070B500262E
:100FE00022A0FFF75BFB00F021FE082000F00AF9C9
:100FF000002403E0601C23490855641CF02CF9D33D
:1010000000240EE0E2001F4BD118E206100E082269
:1010100000F0D6FA002500E06D1C1B488542FBD38A
:10102000641C1E2CEED3F0221849002000F030F989
:1010300000240EE01548005D1249095D884207D082
:10104000012613A000F0DAFA16A0FFF727FB02E052
:10105000641CF02CEED300BF002E05D116A000F0CA
:10106000CDFA19A0FFF71AFB70BD00000A454550E4
:10107000524F4D20546573742073746172740A0D5D
:10108000000000003C010010881300004C0000101C
:10109000566572696679204661696C2E2E2E0A0D9E
:1010A00000000000454550524F4D20546573742098
:1010B0004661696C0A0D0000566572696679206F99
:1010C0006B2E2E2E0A0D0000454550524F4D2054D8
:1010D000657374204F4B210A0D00000010B50249C2
:1010E0000248FFF759FD10BD3C000010000005400C
:1010F00001460A460A481018002808D007239B0317
:10110000C01A06D001239B03C01A06D103E01520A4
:1011100070471620FCE71720FAE70520F8E70000E3
:1011200000C0FABF01460A460A481018002808D035
:1011300007239B03C01A06D001239B03C01A06D1C4
:1011400003E00E2070470F20FCE71020FAE706208E
:10115000F8E7000000C0FABF10B50720FFF762FBF8
:101160000B20FFF707FE0C20FFF704FE02220821E8
:101170000548FFF7CDFD022207210348FFF7C8FD10
:101180000720FFF725FB10BD0040044010B50720E5
:10119000FFF748FB0F216120FFF7FAFD18215220CD
:1011A000FFF7F6FD19216020FFF7F2FD1A21532009
:1011B000FFF7EEFD0720FFF70BFB10BD10B50CA0ED
:1011C000FFF76CFA00240FE001212046FFF782F8B8
:1011D000322000F01BFD00212046FFF77BF8322073
:1011E00000F014FD601CC4B2082CEDDB10BD000043
:1011F0000A4C454420546573742073746172740DF5
:101200000A000000C206D20E01219140014A11607D
:101210007047000000E100E010B5002819DA1A4A12
:1012200003071B0F083B9B089B00D2588307DC0E6B
:10123000FF23A3409A438B071B0E8407E40EA340B1
:101240001A43114B0407240F083CA408A4001A51A8
:1012500018E00E4A03231B02D21883089B00D258C1
:101260008307DC0EFF23A3409A438B071B0E8407E2
:10127000E40EA3401A43054B032424021B198408DF
:10128000A4001A5110BD00001CED00E000E100E0D8
:101290007CB506460C46154601962346012201A957
:1012A0005020009500F01EF97CBD000010B534A060
:1012B000FFF7F4F9374C2046844206D10C20FFF7A3
:1012C00095FA0120FFF77AFD05E00B20FFF78EFA73
:1012D0000020FFF773FD00BF35203C212D4A126826
:1012E000FF23BE331A408A432A4B1A6000BF00BF57
:1012F00019460968FF22BE32114001431A461160A7
:1013000000BF0F210904116200BF392040051146BA
:10131000086221A000F072F9022000F071FB0402C3
:10132000240A214622A000F069F926A000F066F9FF
:10133000002000F09EFBFF202D3000F067FC00F045
:10134000F9FA28A000F05AF90A222E49002000F0EC
:10135000C2FB1E2000F05AFC2BA000F04FF90A221D
:101360003049002000F00CFB00F0F2FA002805D113
:101370002DA000F043F930A0FFF790F910BD000058
:101380000A53504920546573742073746172740A4F
:101390000D00000000C00540537461727420746F2A
:1013A00020526561642049442E2E2E0A0000000060
:1013B0004465766963652049443A2030582558369B
:1013C0000A0D0000537461727420746F206572619D
:1013D000736520736563746F7220302E2E2E0A0D94
:1013E00000000000537461727420746F207772697A
:1013F000746520736563746F7220302E2E2E0A0D73
:101400000000000028000010537461727420746F93
:10141000207265616420736563746F7220302E2EB4
:101420002E0A0D0032000010566572696679206F31
:101430006B2E2E2E0A000000535049205465737401
:10144000204F4B210D0A000000BF0B498968022282
:1014500011400029F9D0392149050143064A91611B
:1014600000BF05498968C907C90F0029F9D0024999
:101470004969C8B27047000000C0054000BF0B4971
:101480008968022211400029F9D071210905014320
:10149000064A916100BF05498968C907C90F00293B
:1014A000F9D002494969C8B27047000000C0054040
:1014B00000BF0B498968022211400029F9D0392167
:1014C00049050143064A916100BF05498968C9077A
:1014D000C90F0029F9D002494969C8B27047000014
:1014E00000C00540F8B504460D4616461F460E4896
:1014F000847300200C49888108460681069848813B
:101500000846056047600948FFF72AFB5120074954
:10151000886000BF044800F04DF8512000BF034927
:10152000C86000BF00BFF8BD3C00001000000540CF
:1015300070B50C4801680068401C0A4A1060C82950
:101540000ED1002011460860074C002501229206AA
:1015500029462046FFF708F900BF0020FFF78AF868
:1015600070BD00000C00001000C0014010B5FFF776
:1015700095F90149086010BD2400001010B5122033
:10158000FFF742F90720FFF73FF90620FFF7E4FBDA
:101590000720FFF7E1FB00220E210548FFF7C4FBFF
:1015A00000220D210248FFF7BFFBFFF76DFC10BDC5
:1015B0000040044000E030BF8189FF29FBD0704724
:1015C000F0B585B006460F461546082D01DD05B07D
:1015D000F0BD68460671002404E0395D01AA601C74
:1015E0001154C4B2AC42F8DB002003466A1C01A9C6
:1015F00000905020FFF776FF00BFE8E70FB410B56A
:1016000003A9044B044A029800F026F810BC08BC59
:1016100004B018473F1B00001000001030B474469F
:10162000641E2578641CAB4204D3635D5B00E31841
:1016300030BC18471D46F8E702E008C8121F08C171
:10164000002AFAD170477047002001E001C1121F43
:10165000002AFBD170470000FFB58FB00F4604464B
:10166000002606E025280AD0129A11999047641C9A
:10167000761C20780028F5D1304613B0F0BD002547
:101680000121A14A009500E00543641C2378084627
:10169000203B98401042F7D120782E2815D1042005
:1016A00005436078641C2A280AD101CF641C00908D
:1016B0000BE000990A22514330394018641C009015
:1016C0002078014630390929F3D920786C280ED0CA
:1016D00004DC4C2813D06A2812D104E074280ED000
:1016E0007A280DD10BE001204005054307E00121D8
:1016F000090562780D43824201D16D18641C641C97
:101700002078864669284AD008DC0028B4D05828BA
:101710006DD0632810D0642808D140E070286BD0C9
:10172000732812D0752860D0782860D0129A70463D
:1017300011999047761CE5E03878694608720020D8
:10174000487202A80190012003E03868019000204F
:10175000C0433F1D69070CD5002500E06D1C0099B2
:101760008D420FDA8542F9DB0199495D0029F5D1F7
:1017700008E0002500E06D1C8542FCDB0199495D15
:101780000029F8D1761907E0019801990078491CE1
:101790000191129A119990476D1EF5D2B2E00A207C
:1017A000029000216802400F039102280CD001CF63
:1017B000C117844600290DDA6246084652420021CC
:1017C000814194462D2008E0FF1DFF08FF0003CF54
:1017D0008446EFE7280504D52B206A4610740120C3
:1017E0003CE0E8073AD02020F7E70A2000E010208C
:1017F00000210391029007E01020029000210420B4
:1018000005430820039100906802400F022810D081
:1018100001CF0021844600200D9028071FD5704677
:1018200070280CD0029A1020039B42401A430CD01F
:1018300015E0FF1DFF08FF0003CF8446EBE74020C3
:101840006A46107401200D900CE06046084306D0F3
:1018500030206A4610747046507402200D90704615
:10186000582804D029A001900DA80E900DE02CA0BE
:10187000F9E76046039B029AFEF750FC019B844601
:101880009B5C0E9A521E0E92137060460843F0D174
:101890000E9805A9081A20300190680701D5009814
:1018A00001E0012000900199884203DD0146019882
:1018B000081A00E000200025009006E004A8129A13
:1018C000405D119990476D1C761C0D988542F5DBA3
:1018D00004E0129A302011999047761C0099481E16
:1018E00000900029F5DC08E00E980E990078491C5C
:1018F0000E91129A11999047761C0199481E0190F9
:101900000029F1DC641CB4E60928010030313233CF
:10191000343536373839616263646566000000002B
:101920003031323334353637383941424344454615
:10193000000000000021002005E0044A11544A1C68
:10194000D1B2421C90B20A28F7DB70472800001081
:1019500010B5094B094A002109E018781478A04213
:1019600001D0012010BD5B1C521C481C81B20A2909
:10197000F3DB0020F6E70000280000103200001022
:10198000F8B505460F461646002E01D10020F8BDD9
:101990000FE000F064F800900098C007C00F0090BE
:1019A0000098002800D105E0002400E0641C0A2C07
:1019B000FCD3EEE700BF0320FFF746FDFF2109043B
:1019C0002940080CFFF774FDFF2109022940080A8D
:1019D000FFF76EFDE8B2FFF76BFD00240CE0701E10
:1019E000A04204D1FF20FFF749FD385503E0FF2056
:1019F000FFF75EFD3855641CB442F0D30120C6E702
:101A000070B50546022D13D19F20FFF71DFDFF2065
:101A1000FFF74EFD20430402FF20FFF749FD20435E
:101A20000402FF20FFF72AFD04432346184670BD39
:101A30009020FFF709FD0020FFF73AFD0020FFF797
:101A400037FD0020FFF734FDFF20FFF731FD0602D0
:101A5000FF20FFF713FD334603431846E7E700B5C1
:101A60000520FFF7F1FCFF20FFF708FD03461846AD
:101A700000BD10B5044600F01BF82020FFF7E4FC81
:101A8000FF2109042140080CFFF712FDFF21090284
:101A90002140080AFFF70CFDE0B2FFF7EFFC00BFA2
:101AA000FFF7DDFFC007C00F0028F9D1012010BDEE
:101AB00000B500BFFFF7D3FFC007C00F0028F9D162
:101AC0000620FFF7DBFC00BFFFF7C9FFC007C00F10
:101AD0000028F9D100BDF8B505460F461646002E80
:101AE00001D10020F8BDFFF7E3FF0220FFF7ACFCB7
:101AF000FF2109042940080CFFF7DAFCFF21090245
:101B00002940080AFFF7D4FCE8B2FFF7D1FC002413
:101B10000AE0701EA04203D1385DFFF7AFFC02E07F
:101B2000385DFFF7C5FC641CB442F2D300BFFFF779
:101B300096FFC007C00F0028F9D10120D2E770B589
:101B400004460E46E5B22846FEF7B4FD00BF00206D
:101B500070BD000001460648814201D10E20704749
:101B60000448814201D10F20F9E71020F7E7000077
:101B70000040064000800640FFF7F8FCFEF78EFBB1
:101B80000EA0FEF78BFD134913480068FEF7B0FA6C
:101B90000446214611A0FFF731FD00BF1548806BB8
:101BA0000446214614A0FFF729FDFFF707FBFFF7C6
:101BB0007DFBFFF713FAFEF7A3FB0000414443202F
:101BC00073657175656E6365722064656D6F0D0A6E
:101BD0000000000040420F0024000010537973748D
:101BE000656D20436C6F636B3A2025754D487A0D07
:101BF0000A000000C083044044657669636520499B
:101C0000443A20307825780D0A000000002108E0D1
:101C1000002201E0531C9AB2034B9A42FADB4B1CA0
:101C200099B28142F4DB70478813000010B5104868
:101C3000FFF738F82820002807D00121090488423E
:101C400003D8411E0A4A516102E00021084A51614D
:101C500000BF08490648FEF750FF00BF044800686F
:101C6000C006C00E012108430149086000BF10BD35
:101C700000000540A0860100070D1011131B1C1267
:101C80000C040102040B0000001BB7000000000060
:101C900000000000C027090090051000C05C15007E
:101CA000F0B31A00200B2000009F2400E03229002E
:101CB000C0C62D0050973100E067350070383900FC
:101CC00000093D004016400080234300C03046001C
:101CD0000C000C00C0000000030001000C00060016
:101CE000C0000000030002000C000400C00000005F
:101CF000030003000C000300C00000000300040008
:101D00000C000200C0000000030006000C000100EF
:101D1000C000000003000C0018001800C000010003
:101D20000200010018000C00C000010002000200C7
:101D300018000800C000010002000300180006009F
:101D4000C00001000200040018000400C0000100EF
:101D50000200060018000300C00001000200080095
:101D600018000200C000010002000C001800010071
:101D7000C00001000200180024001200200102002F
:101D80000200020024000C002001020002000300F7
:101D900024000900200102000200040024000600C3
:101DA00020010200020006002400040020010200BD
:101DB00002000900240003002001020002000C00C0
:101DC0002400020020010200020012002400010091
:101DD000200102000200240030001800C0000300AF
:101DE0000100020030001000C000030001000300E9
:101DF00030000C00C00003000100040030000800A7
:101E0000C00003000100060030000600C00003000F
:101E10000100080030000400C000030001000C00B5
:101E200030000300C0000300010010003000020079
:101E3000C00003000100180030000100C0000300D2
:101E4000010030003C001E00F00004000100020010
:101E50003C001400F0000400010003003C000F00EF
:101E6000F0000400010004003C000C00F00004003D
:101E7000010005003C000A00F0000400010006001B
:101E80003C000600F000040001000A003C000500D0
:101E9000F000040001000C003C000400F00004000D
:101EA00001000F003C000300F000040001001400DA
:101EB0003C000200F000040001001E003C00010094
:101EC000F000040001003C0048001800200105005B
:101ED0000100030048001200200105000100040079
:101EE00048000C0020010500010006004800090020
:101EF000200105000100080048000800200105003D
:101F000001000900480006002001050001000C0046
:101F100048000400200105000100120048000300F1
:101F20002001050001001800480002002001050002
:101F300001002400480001002001050001004800C4
:101F400054001C00A8000600000003005400150007
:101F5000A80006000000040054000E00A8000600BF
:101F60000000060054000C00A80006000000070056
:101F700054000700A800060000000C0054000600F2
:101F8000A800060000000E0054000400A80006008F
:101F90000000150054000300A800060000001C000B
:101FA00054000200A800060000002A0054000100AE
:101FB000A80006000000540060001800C0000700E0
:101FC0000000040060001000C000070000000600D0
:101FD00060000C00C000070000000800600008005E
:101FE000C000070000000C0060000600C0000700F1
:101FF0000000100060000400C0000700000018008E
:1020000060000300C0000700000020006000020024
:10201000C00007000000300060000100C0000700A1
:1020200000006000442000000000001028000000B4
:10203000381600006C200000280000108803000003
:102040004816000000000000000000000000000032
:102050000000000000000000000000000000000080
:0C20600000000000000000000000000074
:04000005000000C136
:00000001FF
