:020000040000FA
:10000000B0010010D5000000E5000000DD00000098
:10001000000000000000000000000000B9FBFFEF3E
:10002000000000000000000000000000DF000000F1
:100030000000000000000000E1000000E3000000FC
:10004000E5000000E500000000000000E500000001
:10005000E5000000E500000000000000E5000000F1
:10006000E5000000E5000000610A0000E500000076
:10007000E5000000E5000000E5000000E5000000EC
:10008000E5000000E5000000E5000000E5000000DC
:10009000E5000000E5000000E500000000000000B1
:1000A000E5000000E5000000E5000000E5000000BC
:1000B000E5000000E5000000E5000000E5000000AC
:1000C0000348854600F0B8F800480047690B000077
:1000D000B00100100448804704480047FEE7FEE7EF
:1000E000FEE7FEE7FEE70000ED0A0000C1000000A9
:1000F00030B50B46014600202022012409E00D46C0
:10010000D5409D4205D31D469540491B2546954047
:1001100040191546521E002DF1DC30BDF0B51FB45C
:100120000646002082B005464024019100901BE065
:10013000019922460F46304600F06DF8049A059B5F
:10014000801A994110D310461946224600F053F800
:10015000361A8F410197224601200021009F00F0AE
:100160004AF838184D4100902046641E0028DFDC14
:10017000019B00982946324607B0F0BDF0B51FB488
:1001800086B000200090019002900698069980B2F7
:1001900004900798090C02040014114307900027EB
:1001A000089D099806913E463C4603900398A9B2E3
:1001B0000204000C039004982D0C154348430021C1
:1001C000224600F018F8C719714110340E46402C31
:1001D000ECDB3846029A00F00EF8009A019B80187A
:1001E0000090594102980191103002904028CCDBD8
:1001F00000980BB0F0BD10B5202A04DB0146203A70
:100200009140002010BD914020239C1A0346E340FA
:100210001943904010BD10B5202A04DB0846203A4F
:10022000D040002110BD0B46D340D0402024A21A5C
:1002300091400843194610BD064C0125064E05E0C5
:10024000E36807CC2B430C3C98471034B442F7D3F7
:10025000FFF73AFF94100000B410000010B500F052
:10026000DFF8154800F062FB0420134A1268134BB4
:100270001A4011460A4602430F4B1A6000BF012183
:100280000F4800F003FAE12149020B4800F0A8FBF7
:1002900000BF0948006809497C3108400121084332
:1002A0000549086000BF00BF08464068054908408E
:1002B0000149486000BF10BD0080064001DAFC0023
:1002C00000C0A8000603010010B5002410E00A4891
:1002D000025D012300210520400700F025FA0648B1
:1002E000025D012300210520400700F030FA641C64
:1002F000082CECDB10BD0000EC0C0000FFFFFFFF42
:1003000010B50B4CFFF7AAFF00BF0A4800680A4966
:100310000840402108430749086000BFFFF7D4FFA9
:1003200000F00CF800F084FB00F068FB10BD00004A
:1003300000C0004080800440FFFFEF2570B50A4DEB
:1003400000240DE00948025D0023194605204007FE
:1003500000F0EAF980200649095D89006850641CB4
:10036000022CEFDB70BD000000400440F40C0000E4
:10037000F60C000070B504460D46082C09DA012081
:10038000684003460348025D00210520400700F055
:10039000DEF970BDEC0C000070B508280DDA0521FF
:1003A00049070022054C235C01249C40950023262C
:1003B00036028E19745100BF00BF70BDEC0C0000F6
:1003C00010B5044603E02078641C00F005F820789E
:1003D0000028F8D110BD000001B5684600780A2851
:1003E00010D10D4800780D280CD00D200A49087056
:1003F00001220A4800F0DBFA01226946074800F0B2
:10040000D6FA08E001226946044800F0D0FA6846AE
:1004100000780149087008BD2000001000800640E7
:1004200010B5072000F034F8002000F0B5F91820CE
:1004300000F0B2F901200749486100BF04211120F2
:1004400000F0D2F90021122000F0CEF9072000F0D0
:1004500003F810BD8080044004490A6801218140EE
:10046000034B19438A4301490A6070478080044066
:10047000000010DA01218140034A1268034B1A4040
:100480001143014A1160704780800440FFFFEF254F
:1004900001218140034A1268034B1A401143014A6B
:1004A0001160704780800440FFFFEF2510B50024E5
:1004B0000F48006B8007800F002806D0012808D065
:1004C00002280AD0032810D10BE000BF09480446D7
:1004D0000BE000F027F8044607E000F0A9F8044616
:1004E00003E000F045F8044600BF00BF204610BD01
:1004F00040800440001BB7000246D006C00E431CDB
:10050000084658437047000010B5FFF7CFFF044678
:100510000348806BC1B22046FFF7EAFD10BD000022
:10052000408004400E4909688907890F002904D0DA
:10053000012906D003290ED108E000BF094800BFF9
:100540000BE000BF0849086800BF06E000BF07498C
:10055000086800BF01E0002000BF00BF7047000036
:1005600040800440001BB700F80C0000FC0C0000A9
:1005700010B5FFF7D7FF0446034989684806400EC7
:100580002146FFF7B9FF10BD00800440F0B589B0E7
:1005900000BF1E484069C0B205900598002801D1EF
:1005A00000242FE0FFF782FF02900599FFF7A0FDDE
:1005B0000025044600BF15484030006BC0B20390D0
:1005C0000398FF281DD100BF10484030406BC0B2D7
:1005D00004900498FF300130FF2101310290002087
:1005E00026462F460791069030463946069B079AC5
:1005F000FFF7C4FD019100900023029AFFF78EFDE2
:10060000044600BF204609B0F0BD000080800440D1
:1006100070B50446E005060FE506ED0E6A1C5100B4
:10062000B200024B9858FFF763FD70BD000D00004B
:1006300010B50349496AC805C00DFFF7E9FF10BDB1
:1006400000800440034908630021024A51630121EC
:10065000516370474080044002460020002A01D0C8
:1006600001231843002901D002231843014B1862CB
:100670007047000000800440034908600021024ADE
:10068000516001215160704740800440FEB505462D
:100690000E46FFF70BFF019029460198FFF728FD52
:1006A0000446002C00D10124E0B21D49486100BF7E
:1006B000002E2FD0022000BF194980394A6801213D
:1006C0008140184B19438A43154980394A6000BF5D
:1006D00000BF01218140124A803A5268DB431A4030
:1006E00011430F4A803A516000BF00BFFF2000F065
:1006F000D5F821460198FFF7FBFC0702294638464A
:10070000FFF7F6FC00900099C8B2054940314863F4
:1007100000BF02E0002000F0C1F8FFF737FFFEBD88
:10072000808004400020FEFF70B5002B07D001241C
:1007300094408D004726F6018619745106E0012485
:1007400094408D000926B6028619745170BD10B50B
:100750004C012418A35410BD30B58C000459032556
:100760002D02AC43234614021C438D00445130BD7E
:1007700030B58C0004591825AC432346D4001C43E3
:100780008D00445130BD000001460801014A801827
:10079000704700000040004001218140034A126878
:1007A000D201D2091143014A11607047C0C1004013
:1007B00005490A68012181407F235B0619438A436A
:1007C00001490A6070470000C0C1004005490A683D
:1007D000012181407F235B0619438A4301490A6056
:1007E00070470000C0C10040F0B505076A0E031154
:1007F0009D00074EAD192D68FF269640B5432C4647
:100800000D46954025439E00014FF6193560F0BD19
:1008100000C0004000BF0B494A68012181400A4BDB
:1008200019438A4307494A6000BF00BF0121814044
:10083000044A5268DB431A401143024A516000BF28
:1008400070470000008004400020FEFF064A926BC3
:10085000064B1A4011461A46024011436D221202FD
:100860000A43014B9A63704700820440FF800000F6
:100870000146084A926B084B1A4010461A460A4035
:100880000346934318466D2212020243014B9A63BA
:100890007047000000820440FF80000001490863A7
:1008A00070470000C080044010B500210846FFF7E3
:1008B000D3FE2020FFF7DCFF0120FFF7DDFE012043
:1008C000144A126900210A460243124B1A6100BF02
:1008D0008020FFF7BBFF042001214A0102430E4B99
:1008E0009A6000BF8020FFF7C3FF0720FFF7C2FD1B
:1008F00000BF00BF0848C068C007C00F0028F8D07C
:10090000022005494031886300BF0320FFF79AFEAB
:1009100010BD0000000004400080044001468868CB
:10092000014A1040704700007FFD010070B5044689
:10093000204600F007F905460120A8400C49096847
:100940000C4A114008430A49086000BF0A48844223
:1009500003D10320FFF75EFF09E00848844203D17A
:100960000420FFF757FF02E00520FFF753FF70BD9B
:1009700080800440FFFFEF250040064000800640D5
:10098000F7B50D46164600242F4605E03978009845
:1009900000F024F87F1C641CB44206DA0098FFF7CC
:1009A000BDFF042108400028F0D12046FEBDF7B568
:1009B00082B00E461546002701960AE02A460199A4
:1009C0000298FFF7DDFF04462D1B3F19019800191F
:1009D0000190002DF2DC384605B0F0BDC1617047D2
:1009E000F8B504460D46FFF7D1FD07462901FFF78C
:1009F0007FFB0646701E2062F8BD000010B5072080
:100A0000FFF746FD0B20FFF7E1FE0C20FFF7DEFEAF
:100A1000022208210548FFF79FFE02220721034812
:100A2000FFF79AFE0720FFF717FD10BD00400440B6
:100A300010B50720FFF72CFD0F216120FFF7D4FE32
:100A400018215220FFF7D0FE19216020FFF7CCFEBD
:100A50001A215320FFF7C8FE0720FFF7FDFC10BD49
:100A600010B500BF1848806B0446204616498863BD
:100A700000BFA007800F002807D00020FFF78CFCE4
:100A800012480068401C11490860042020400028DA
:100A90000DD0FF22F5320221084600F0F9F80120BE
:100AA000FFF77AFC0A480068401C094908600820E2
:100AB0002040002807D0002006490870064800683A
:100AC000401C0549086010BDC040004004000010F3
:100AD00008000010000000100C00001010B5FFF717
:100AE00013FD0149086010BD2800001010B5122048
:100AF000FFF7C0FC0720FFF7BDFC0620FFF758FEFC
:100B00000720FFF755FE00220E210548FFF730FEB3
:100B100000220D210248FFF72BFEFFF7C5FE10BD96
:100B20000040044002E008C8121F08C1002AFAD1A0
:100B300070477047002001E001C1121F002AFBD15D
:100B40007047000001460648814201D10E207047DF
:100B50000448814201D10F20F9E71020F7E7000097
:100B60000040064000800640FFF7B8FFFFF7C8FBD3
:100B70003BA0FFF725FC00BF0A20012181403E4A2F
:100B800012683E4B1A4011433B4A116000BF0720D8
:100B900000BF394980394A6801218140384B1943E7
:100BA0008A43354980394A6000BF00BF0121814036
:100BB000314A803A5268DB431A4011432E4A803A48
:100BC000516000BF00BF00BF002509E0E8B2FFF799
:100BD000DBFD0446A06806210840A06000BF6D1C34
:100BE000042DF3DB0A2001218140264A116000BF59
:100BF00005220021084600F04BF8042200210120C4
:100C000000F046F8FF22F5320221084600F040F8D5
:100C100064201D49086000210846FFF7ABFB1EE079
:100C20001A480078002819D1012018490870164880
:100C300002210268032000F02BF80220FFF7ACFB32
:100C4000114800680A3010490860084600687D2194
:100C5000C900884202D964200B49086030BFDFE731
:100C60004C5043387878204D5254204578616D704F
:100C70006C65200D0A00000080800440FFFFEF2516
:100C80000020FEFF00E100E0100000100000001056
:100C9000F7B582B00D4616460298FFF775FD04467B
:100CA000FFF732FC31460190FFF722FA0121C90714
:100CB00007460F43276000BF00BFA168C807C00FE9
:100CC00001462943A16000BF00BFE0688007800F94
:100CD00001210843E06000BF00BFA0684007400F4B
:100CE0000843A06000BF05B0F0BD0000070D101163
:100CF000131B1C120C01020B001BB70000000000AC
:100D000000000000C027090090051000C05C15001D
:100D1000F0B31A00200B2000009F2400E0322900CD
:100D2000C0C62D0050973100E0673500703839009B
:100D300000093D004016400080234300C0304600BB
:100D40000C000C00C0000000030001000C000600B5
:100D5000C0000000030002000C000400C0000000FE
:100D6000030003000C000300C000000003000400A7
:100D70000C000200C0000000030006000C0001008F
:100D8000C000000003000C0018001800C0000100A3
:100D90000200010018000C00C00001000200020067
:100DA00018000800C000010002000300180006003F
:100DB000C00001000200040018000400C00001008F
:100DC0000200060018000300C00001000200080035
:100DD00018000200C000010002000C001800010011
:100DE000C0000100020018002400120020010200CF
:100DF0000200020024000C00200102000200030097
:100E00002400090020010200020004002400060062
:100E1000200102000200060024000400200102005C
:100E200002000900240003002001020002000C005F
:100E30002400020020010200020012002400010030
:100E4000200102000200240030001800C00003004E
:100E50000100020030001000C00003000100030088
:100E600030000C00C0000300010004003000080046
:100E7000C00003000100060030000600C0000300AF
:100E80000100080030000400C000030001000C0055
:100E900030000300C0000300010010003000020019
:100EA000C00003000100180030000100C000030072
:100EB000010030003C001E00F000040001000200B0
:100EC0003C001400F0000400010003003C000F008F
:100ED000F0000400010004003C000C00F0000400DD
:100EE000010005003C000A00F000040001000600BB
:100EF0003C000600F000040001000A003C00050070
:100F0000F000040001000C003C000400F0000400AC
:100F100001000F003C000300F00004000100140079
:100F20003C000200F000040001001E003C00010033
:100F3000F000040001003C004800180020010500FA
:100F40000100030048001200200105000100040018
:100F500048000C00200105000100060048000900BF
:100F600020010500010008004800080020010500DC
:100F700001000900480006002001050001000C00E6
:100F80004800040020010500010012004800030091
:100F900020010500010018004800020020010500A2
:100FA0000100240048000100200105000100480064
:100FB00054001C00A80006000000030054001500A7
:100FC000A80006000000040054000E00A80006005F
:100FD0000000060054000C00A800060000000700F6
:100FE00054000700A800060000000C005400060092
:100FF000A800060000000E0054000400A80006002F
:101000000000150054000300A800060000001C00AA
:1010100054000200A800060000002A00540001004D
:10102000A80006000000540060001800C00007007F
:101030000000040060001000C0000700000006006F
:1010400060000C00C00007000000080060000800FD
:10105000C000070000000C0060000600C000070090
:101060000000100060000400C0000700000018002D
:1010700060000300C00007000000200060000200C4
:10108000C00007000000300060000100C000070041
:1010900000006000B4100000000000102C000000F0
:1010A000240B0000E01000002C0000108401000060
:1010B000340B0000000000000000000000000000F1
:1010C0000000000000000000000000000000000020
:1010D0000000000000000000000000000000000010
:04000005000000C136
:00000001FF
