:020000040000FA
:1000000088010010D5000000E5000000DD000000C0
:10001000000000000000000000000000E1FBFFEF16
:10002000000000000000000000000000DF000000F1
:100030000000000000000000E1000000E3000000FC
:10004000E5000000E500000000000000E500000001
:10005000E5000000E500000000000000E5000000F1
:10006000E5000000E5000000E5000000E5000000FC
:10007000E5000000E5000000E5000000E5000000EC
:10008000E5000000E5000000E5000000E5000000DC
:10009000E5000000E5000000E500000000000000B1
:1000A000290A0000E5000000390A0000E500000010
:1000B000E5000000E5000000E5000000E5000000AC
:1000C0000348854600F0B8F8004800471D0B0000C3
:1000D000880100100448804704480047FEE7FEE717
:1000E000FEE7FEE7FEE70000590A0000C10000003D
:1000F00030B50B46014600202022012409E00D46C0
:10010000D5409D4205D31D469540491B2546954047
:1001100040191546521E002DF1DC30BDF0B51FB45C
:100120000646002082B005464024019100901BE065
:10013000019922460F46304600F06DF8049A059B5F
:10014000801A994110D310461946224600F053F800
:10015000361A8F410197224601200021009F00F0AE
:100160004AF838184D4100902046641E0028DFDC14
:10017000019B00982946324607B0F0BDF0B51FB488
:1001800086B000200090019002900698069980B2F7
:1001900004900798090C02040014114307900027EB
:1001A000089D099806913E463C4603900398A9B2E3
:1001B0000204000C039004982D0C154348430021C1
:1001C000224600F018F8C719714110340E46402C31
:1001D000ECDB3846029A00F00EF8009A019B80187A
:1001E0000090594102980191103002904028CCDBD8
:1001F00000980BB0F0BD10B5202A04DB0146203A70
:100200009140002010BD914020239C1A0346E340FA
:100210001943904010BD10B5202A04DB0846203A4F
:10022000D040002110BD0B46D340D0402024A21A5C
:1002300091400843194610BD064C0125064E05E0C5
:10024000E36807CC2B430C3C98471034B442F7D3F7
:10025000FFF73AFF3C1000005C10000010B500F002
:1002600091F8154800F06CFB0420134A1268134BF8
:100270001A4011460A4602430F4B1A6000BF012183
:100280000F4800F0B5F9E12149020B4800F082FB6C
:1002900000BF0948006809497C3108400121084332
:1002A0000549086000BF00BF08464068054908408E
:1002B0000149486000BF10BD0080064001DAFC0023
:1002C00000C0A8000603010010B5002410E00A4891
:1002D000025D012300210520400700F0EAF90648ED
:1002E000025D012300210520400700F0F5F9641CA0
:1002F000082CECDB10BD0000900C0000FFFFFFFF9E
:1003000010B50A4CFFF7AAFF00BF09480068094969
:100310000840402108430649086000BFFFF7D4FFAA
:1003200000F060FB00F044FB10BD000000C0004086
:1003300080800440FFFFEF2570B504460D46082C71
:1003400009DA0120684003460348025D00210520C8
:10035000400700F0C1F970BD900C000070B508288E
:100360000DDA052149070022054C235C01249C403D
:100370009500232636028E19745100BF00BF70BD50
:10038000900C000010B5072000F034F8002000F0B9
:1003900003FA182000F000FA01200749486100BF65
:1003A0000421112000F020FA0021122000F01CFA94
:1003B000072000F003F810BD8080044004490A685B
:1003C00001218140034B19438A4301490A60704768
:1003D00080800440000010DA01218140034A126845
:1003E000034B1A401143014A11607047808004405A
:1003F000FFFFEF2501218140034A1268034B1A4099
:100400001143014A1160704780800440FFFFEF25CF
:1004100010B500240F48006B8007800F002806D01D
:10042000012808D002280AD0032810D10BE000BF11
:10043000094804460BE000F027F8044607E000F006
:10044000A9F8044603E000F045F8044600BF00BFE9
:10045000204610BD40800440001BB7000246D00675
:10046000C00E431C084658437047000010B5FFF704
:10047000CFFF04460348806BC1B22046FFF738FE29
:1004800010BD0000408004400E4909688907890FAB
:10049000002904D0012906D003290ED108E000BFAD
:1004A000094800BF0BE000BF0849086800BF06E02C
:1004B00000BF0749086800BF01E0002000BF00BF7F
:1004C0007047000040800440001BB700A00C0000F3
:1004D000A40C000010B5FFF7D7FF04460349896854
:1004E0004806400E2146FFF7B9FF10BD00800440CA
:1004F000F0B589B000BF1E484069C0B205900598AC
:10050000002801D100242FE0FFF782FF0290059917
:10051000FFF7EEFD0025044600BF15484030006B94
:10052000C0B203900398FF281DD100BF104840308F
:10053000406BC0B204900498FF300130FF210131BC
:100540000290002026462F460791069030463946F5
:10055000069B079AFFF712FE019100900023029A72
:10056000FFF7DCFD044600BF204609B0F0BD0000E7
:100570008080044070B50446E005060FE506ED0EE8
:100580006A1C5100B200024B9858FFF7B1FD70BDD4
:10059000A80C000010B50349496AC805C00DFFF753
:1005A000E9FF10BD00800440034908630021024AAE
:1005B000516301215163704740800440024600208E
:1005C000002A01D001231843002901D00223184337
:1005D000014B186270470000008004400349086026
:1005E0000021024A5160012151607047408004405F
:1005F000FEB505460E46FFF70BFF01902946019810
:10060000FFF776FD0446002C00D10124E0B21D491D
:10061000486100BF002E2FD0022000BF1949803949
:100620004A6801218140184B19438A431549803992
:100630004A6000BF00BF01218140124A803A5268DF
:10064000DB431A4011430F4A803A516000BF00BF9C
:10065000FF2000F035F921460198FFF749FD070218
:1006600029463846FFF744FD00900099C8B2054975
:100670004031486300BF02E0002000F021F9FFF79D
:1006800037FFFEBD808004400020FEFF70B5002BC8
:1006900007D0012494408D004726F6018619745135
:1006A00006E0012494408D000926B6028619745193
:1006B00070BD70B5002B07D0012494408D004726F3
:1006C000F6018619745106E0012494408D00092634
:1006D000B6028619745170BD10B54C012418A3548C
:1006E00010BD30B58C00045903252D02AC432346C0
:1006F00014021C438D00445130BD30B58C000459A8
:100700001825AC432346D4001C438D00445130BD12
:1007100041627047416170470268FF23DB430B432E
:100720009A4302607047000005490969162211408A
:1007300004221143024A11610321016030BF704756
:1007400000ED00E005490969162211400422114319
:10075000024A11610121016030BF704700ED00E0E5
:10076000054909691622114004221143024A116108
:100770000221016030BF704700ED00E005490969C2
:100780001622114004229143024A116100210160A6
:1007900030BF704700ED00E001218140034A12683C
:1007A000D201D2091143014A11607047C0C1004013
:1007B00005490A68012181407F235B0619438A436A
:1007C00001490A6070470000C0C1004005490A683D
:1007D000012181407F235B0619438A4301490A6056
:1007E00070470000C0C10040F0B505076A0E031154
:1007F0009D00074EAD192D68FF269640B5432C4647
:100800000D46954025439E00014FF6193560F0BD19
:1008100000C0004001218140034A5268D2B2114316
:10082000014A5160704700000082044000BF0B493C
:100830004A68012181400A4B19438A4307494A60AB
:1008400000BF00BF01218140044A5268DB431A40C7
:100850001143024A516000BF70470000008004400D
:100860000020FEFF064A926B064B1A4011461A46BC
:10087000024011436D2212020A43014B9A637047F2
:1008800000820440FF8000000146084A926B084B3A
:100890001A4010461A460A400346934318466D22F2
:1008A00012020243014B9A63704700000082044029
:1008B000FF800000014A8300D150704778810440D6
:1008C0000149086370470000C080044010B5002152
:1008D0000846FFF773FE2020FFF7D6FF0120FFF741
:1008E0007DFE0120144A126900210A460243124B80
:1008F0001A6100BF8020FFF7B5FF042001214A01E3
:1009000002430E4B9A6000BF8020FFF7BDFF072017
:10091000FFF762FD00BF00BF0848C068C007C00FF6
:100920000028F8D0022005494031886300BF032029
:10093000FFF73AFE10BD00000000044000800440B4
:1009400070B50446204600F0D7F805460120A840BF
:100950000C4909680C4A114008430A49086000BF65
:100960000A48844203D10320FFF760FF09E00848EA
:10097000844203D10420FFF759FF02E00520FFF76E
:1009800055FF70BD80800440FFFFEF25004006400A
:1009900000800640F8B504460D46FFF7A9FD07465E
:1009A0002901FFF7A5FB0646701E2062F8BD000076
:1009B00010B50720FFF71EFD0B20FFF707FF0C20E7
:1009C000FFF704FF022208210548FFF78AFE0222F2
:1009D00007210348FFF785FE0720FFF7EFFC10BD56
:1009E0000040044010B50720FFF704FD0F216120EF
:1009F000FFF7FAFE18215220FFF7F6FE19216020BA
:100A0000FFF7F2FE1A215320FFF7EEFE0720FFF753
:100A1000D5FC10BDC206D20E01219140014A1160E1
:100A20007047000000E100E010B501210148FFF728
:100A30006FFE10BD004000A010B504210148FFF773
:100A400067FE10BD004000A010B5FFF70FFD014983
:100A5000086010BD0400001010B51220FFF7BCFCA8
:100A60000720FFF7B9FC0620FFF7A2FE0720FFF7DB
:100A70009FFE00220E210548FFF73FFE00220D21B8
:100A80000248FFF73AFEFFF721FF10BD0040044087
:100A900002E008C8121F08C1002AFAD17047704747
:100AA000002001E001C1121F002AFBD170470000A5
:100AB00038B504461AE00020FFF750FC00200090F3
:100AC00002E00098401C00900A4900988842F8D340
:100AD0000020FFF743FC0020009002E00098401C3B
:100AE0000090044900988842F8D3641E002CE2D19B
:100AF00038BD0000A086010001460648814201D1B0
:100B00000E2070470448814201D10F20F9E71020E0
:100B1000F7E70000004006400080064038B5FFF7C8
:100B200093FFFFF7EDFB0020FFF73EFDFFF78CFF83
:100B300000BF4F480068092109020840044601200F
:100B4000C0024B4909684B4A02401143484A1160B0
:100B500000BF2040002802D10121FFF7EDFB072054
:100B600001218140444A1268444B1A401143424AD1
:100B7000116000BF182001218140414A1268D20152
:100B8000D20911433E4A116000BF01217020FFF7D6
:100B90002BFE01213B48FFF7BFFD01213948FFF73C
:100BA000B9FD01210020FFF785FE0020FFF732FE8E
:100BB00001231A46002105204007FFF767FD182092
:100BC000FFF728FF04217120FFF70EFE04212D48B6
:100BD000FFF7A2FD04212B48FFF79CFD0421022012
:100BE000FFF768FE0220FFF715FE01230422002113
:100BF00005204007FFF74AFD1A20FFF70BFF2248A8
:100C0000006910218843204908610120C00220406A
:100C100000280DD1009002E00098401C00901B4974
:100C200000988842F8D300210846FFF785FB05E0CD
:100C300001210020FFF780FB00BFFEE70220FFF745
:100C400037FF0B48FFF79AFD0420FFF731FF0848F4
:100C5000FFF778FD0820FFF72BFF0548FFF780FD21
:100C60001020FFF725FF0248FFF75EFD002038BD8A
:100C7000000002400F09000080800440FFFFEF25C4
:100C8000C0C10040004000A000ED00E040420F0065
:100C9000070D1011131B1C120C040102040B0000A1
:100CA000001BB7000000000000000000C027090082
:100CB00090051000C05C1500F0B31A00200B200056
:100CC000009F2400E0322900C0C62D00509731005B
:100CD000E06735007038390000093D0040164000DB
:100CE00080234300C03046000C000C00C000000010
:100CF000030001000C000600C00000000300020019
:100D00000C000400C0000000030003000C000300FE
:100D1000C0000000030004000C000200C00000003E
:100D2000030006000C000100C000000003000C00DE
:100D300018001800C00001000200010018000C009B
:100D4000C00001000200020018000800C0000100FD
:100D50000200030018000600C000010002000400A9
:100D600018000400C0000100020006001800030083
:100D7000C00001000200080018000200C0000100CD
:100D800002000C0018000100C00001000200180061
:100D900024001200200102000200020024000C00C6
:100DA00020010200020003002400090020010200CB
:100DB00002000400240006002001020002000600D8
:100DC00024000400200102000200090024000300A6
:100DD0002001020002000C00240002002001020099
:100DE0000200120024000100200102000200240081
:100DF00030001800C00003000100020030001000A5
:100E0000C00003000100030030000C00C00003001C
:100E10000100040030000800C000030001000600CB
:100E200030000600C000030001000800300004008C
:100E3000C000030001000C0030000300C0000300EC
:100E40000100100030000200C00003000100180083
:100E500030000100C0000300010030003C001E0013
:100E6000F0000400010002003C001400F000040047
:100E7000010003003C000F00F0000400010004002A
:100E80003C000C00F0000400010005003C000A00DA
:100E9000F0000400010006003C000600F000040021
:100EA00001000A003C000500F000040001000C00F5
:100EB0003C000400F000040001000F003C000300AF
:100EC000F0000400010014003C000200F0000400E7
:100ED00001001E003C000100F000040001003C0085
:100EE000480018002001050001000300480012001E
:100EF000200105000100040048000C00200105004D
:100F0000010006004800090020010500010008005A
:100F10004800080020010500010009004800060003
:100F20002001050001000C0048000400200105001C
:100F30000100120048000300200105000100180014
:100F400048000200200105000100240048000100C3
:100F5000200105000100480054001C00A800060004
:100F60000000030054001500A80006000000040063
:100F700054000E00A80006000000060054000C00FB
:100F8000A80006000000070054000700A8000600A3
:100F900000000C0054000600A800060000000E002F
:100FA00054000400A80006000000150054000300CF
:100FB000A800060000001C0054000200A800060063
:100FC00000002A0054000100A800060000005400A0
:100FD00060001800C000070000000400600010005E
:100FE000C00007000000060060000C00C000070001
:100FF0000000080060000800C000070000000C00AE
:1010000060000600C000070000001000600004003F
:10101000C00007000000180060000300C0000700C7
:101020000000200060000200C00007000000300047
:1010300060000100C0000700000060005C100000BC
:101040000000001008000000900A0000641000007A
:101050000800001080010000A00A0000000000004D
:04106000000000008C
:04000005000000C136
:00000001FF
