:020000040000FA
:10000000D0010010D5000000E5000000DD00000078
:1000100000000000000000000000000099FBFFEF5E
:10002000000000000000000000000000DF000000F1
:100030000000000000000000E1000000E3000000FC
:10004000E5000000E500000000000000E500000001
:10005000E5000000E500000000000000E5000000F1
:10006000E5000000E5000000E5000000E5000000FC
:10007000E5000000E5000000E5000000E5000000EC
:10008000E5000000E5000000E5000000E5000000DC
:10009000E5000000E5000000E500000000000000B1
:1000A000E5000000E5000000E5000000E5000000BC
:1000B000E5000000E5000000E5000000E5000000AC
:1000C0000348854600F0B8F800480047310C0000AE
:1000D000D00100100448804704480047FEE7FEE7CF
:1000E000FEE7FEE7FEE70000590B0000C10000003C
:1000F00030B50B46014600202022012409E00D46C0
:10010000D5409D4205D31D469540491B2546954047
:1001100040191546521E002DF1DC30BDF0B51FB45C
:100120000646002082B005464024019100901BE065
:10013000019922460F46304600F06DF8049A059B5F
:10014000801A994110D310461946224600F053F800
:10015000361A8F410197224601200021009F00F0AE
:100160004AF838184D4100902046641E0028DFDC14
:10017000019B00982946324607B0F0BDF0B51FB488
:1001800086B000200090019002900698069980B2F7
:1001900004900798090C02040014114307900027EB
:1001A000089D099806913E463C4603900398A9B2E3
:1001B0000204000C039004982D0C154348430021C1
:1001C000224600F018F8C719714110340E46402C31
:1001D000ECDB3846029A00F00EF8009A019B80187A
:1001E0000090594102980191103002904028CCDBD8
:1001F00000980BB0F0BD10B5202A04DB0146203A70
:100200009140002010BD914020239C1A0346E340FA
:100210001943904010BD10B5202A04DB0846203A4F
:10022000D040002110BD0B46D340D0402024A21A5C
:1002300091400843194610BD064C0125064E05E0C5
:10024000E36807CC2B430C3C98471034B442F7D3F7
:10025000FFF73AFFE81000000811000010B500F0A9
:100260009BF8154800F0C6FB0420134A1268134B94
:100270001A4011460A4602430F4B1A6000BF012183
:100280000F4800F0DBF9E12149020B4800F0DCFBEC
:1002900000BF0948006809497C3108400121084332
:1002A0000549086000BF00BF08464068054908408E
:1002B0000149486000BF10BD0080064001DAFC0023
:1002C00000C0A8000603010010B5002410E00A4891
:1002D000025D012300210520400700F0FDF90648DA
:1002E000025D012300210520400700F008FA641C8C
:1002F000082CECDB10BD00003C0D0000FFFFFFFFF1
:1003000010B50B4CFFF7AAFF00BF0A4800680A4966
:100310000840402108430749086000BFFFF7D4FFA9
:1003200000F00CF800F0D0FB00F09CFB10BD0000CA
:1003300000C0004080800440FFFFEF2570B50A4DEB
:1003400000240DE00948025D0023194605204007FE
:1003500000F0C2F980200649095D89006850641CDC
:10036000032CEFDB70BD000000400440440D000092
:10037000470D000070B504460D46082C09DA01202F
:10038000684003460348025D00210520400700F055
:10039000B6F970BD3C0D000010B5072000F050F814
:1003A000002000F049FA182000F046FA0120074921
:1003B000486100BF0421112000F066FA00211220DC
:1003C00000F062FA072000F011F810BD80800440B0
:1003D00004490A6801218140034B19438A430149BA
:1003E0000A60704780800440000010DA04490A68FF
:1003F00001218140034B19438A4301490A60704738
:1004000080800440000010DA01218140034A126814
:10041000034B1A401143014A116070478080044029
:10042000FFFFEF2501218140034A1268034B1A4068
:100430001143014A1160704780800440FFFFEF259F
:1004400001218140034A1268034B1A401143014ABB
:100450001160704780800440FFFFEF2510B5002435
:100460000F48006B8007800F002806D0012808D0B5
:1004700002280AD0032810D10BE000BF0948044627
:100480000BE000F027F8044607E000F0A9F8044666
:1004900003E000F045F8044600BF00BF204610BD51
:1004A00040800440001BB7000246D006C00E431C2B
:1004B000084658437047000010B5FFF7CFFF0446C9
:1004C0000348806BC1B22046FFF712FE10BD00004A
:1004D000408004400E4909688907890F002904D02B
:1004E000012906D003290ED108E000BF094800BF4A
:1004F0000BE000BF0849086800BF06E000BF0749DD
:10050000086800BF01E0002000BF00BF7047000086
:1005100040800440001BB7004C0D0000500D00004F
:1005200010B5FFF7D7FF0446034989684806400E17
:100530002146FFF7B9FF10BD00800440F0B589B037
:1005400000BF1E484069C0B205900598002801D13F
:1005500000242FE0FFF782FF02900599FFF7C8FD06
:100560000025044600BF15484030006BC0B2039020
:100570000398FF281DD100BF10484030406BC0B227
:1005800004900498FF300130FF21013102900020D7
:1005900026462F460791069030463946069B079A15
:1005A000FFF7ECFD019100900023029AFFF7B6FDE2
:1005B000044600BF204609B0F0BD00008080044022
:1005C00070B50446E005060FE506ED0E6A1C510005
:1005D000B200024B9858FFF78BFD70BD540D000020
:1005E00010B50349496AC805C00DFFF7E9FF10BD02
:1005F00000800440034908630021024A516301213D
:10060000516370474080044002460020002A01D018
:1006100001231843002901D002231843014B18621B
:100620007047000000800440034908600021024A2E
:10063000516001215160704740800440FEB505467D
:100640000E46FFF70BFF019029460198FFF750FD7A
:100650000446002C00D10124E0B21D49486100BFCE
:10066000002E2FD0022000BF194980394A6801218D
:100670008140184B19438A43154980394A6000BFAD
:1006800000BF01218140124A803A5268DB431A4080
:1006900011430F4A803A516000BF00BFFF2000F0B5
:1006A00069F921460198FFF723FD070229463846DC
:1006B000FFF71EFD00900099C8B20549403148631C
:1006C00000BF02E0002000F055F9FFF737FFFEBD44
:1006D000808004400020FEFF70B5002B07D001246D
:1006E00094408D004726F6018619745106E00124D6
:1006F00094408D000926B6028619745170BD10B55C
:100700004C012418A35410BD30B58C0004590325A6
:100710002D02AC43234614021C438D00445130BDCE
:1007200030B58C0004591825AC432346D4001C4333
:100730008D00445130BD0268FF23BE331A408A4306
:10074000026070478160704710B50B781B071B0F64
:100750004C782407240E23438C782407240D23434C
:100760001A46CB78002B04D0CB785B1E1B071B0CE2
:100770001A43426010BD01468868C005C00D70472D
:1007800070B506460C463C213046FFF7DBFF217D65
:1007900001225205304600F048F80020E060606019
:1007A0001BE03046FFF7E7FF0546022028400028FF
:1007B00007D021696068884203D22146304600F0A4
:1007C000A7F9E807C00F002807D02169E068884230
:1007D00003D22146304600F08FF9216960688842D3
:1007E000DFD32169E0688842DBD33046FFF7C3FFDF
:1007F0000C210840002801D0002070BD6068FCE793
:1008000010B5531E1B071B090324240523438CB278
:100810002343836110BD8AB2C26170470268FF231F
:10082000BE331A400A43026070474B1E1B071B0968
:10083000134303627047000001218140034A12689C
:10084000D201D2091143014A11607047C0C1004072
:1008500005490A68012181407F235B0619438A43C9
:1008600001490A6070470000C0C1004005490A689C
:10087000012181407F235B0619438A4301490A60B5
:1008800070470000C0C10040F0B505076A0E0311B3
:100890009D00074EAD192D68FF269640B5432C46A6
:1008A0000D46954025439E00014FF6193560F0BD79
:1008B00000C0004000BF0B494A68012181400A4B3B
:1008C00019438A4307494A6000BF00BF01218140A4
:1008D000044A5268DB431A401143024A516000BF88
:1008E00070470000008004400020FEFF00BF0B495D
:1008F0004A68012181400A4B19438A4307494A60EB
:1009000000BF00BF01218140044A5268DB431A4006
:100910001143024A516000BF70470000008004404C
:100920000020FEFF064A926B064B1A4011461A46FB
:10093000024011436D2212020A43014B9A63704731
:1009400000820440FF8000000146084A926B084B79
:100950001A4010461A460A400346934318466D2231
:1009600012020243014B9A63704700000082044068
:10097000FF8000000149086370470000C080044008
:1009800010B500210846FFF73FFE2020FFF7DCFFEF
:100990000120FFF749FE0120144A126900210A468E
:1009A0000243124B1A6100BF8020FFF7BBFF0420F7
:1009B00001214A0102430E4B9A6000BF8020FFF7DD
:1009C000C3FF0720FFF72EFD00BF00BF0848C06827
:1009D000C007C00F0028F8D00220054940318863C5
:1009E00000BF0320FFF706FE10BD0000000004401A
:1009F0000080044070B50446204600F007F9054623
:100A00000120A8400C4909680C4A114008430A49D2
:100A1000086000BF0A48844203D10320FFF766FF45
:100A200009E00848844203D10420FFF75FFF02E099
:100A30000520FFF75BFF70BD80800440FFFFEF25BE
:100A40000040064000800640F8B504460D46FFF71A
:100A500075FD07462901FFF74BFB0646701E206215
:100A6000F8BD000010B50720FFF7EAFC0B20FFF7E8
:100A7000FDFE0C20FFF7FAFE022208210548FFF7D1
:100A800043FE022207210348FFF73EFE0720FFF73F
:100A9000ADFC10BD0040044010B50720FFF7B4FCCA
:100AA0000F216120FFF7F0FE18215220FFF7ECFE26
:100AB00019216020FFF7E8FE1A215320FFF7E4FE1A
:100AC0000720FFF785FC10BD10B50720FFF7B8FC25
:100AD0000F216120FFF7D8FE18215220FFF7D4FE26
:100AE00019216020FFF7D0FE1A215320FFF7CCFE1A
:100AF0000720FFF77BFC10BD10B500BF426992B222
:100B0000CC6864008B681A53CA68521CCA6010BD56
:100B100070B505460C462069401E6168814208D1C7
:100B200063685B002068C15A227D2846FFF768FE93
:100B300006E0626852002068815A2846FFF76BFE83
:100B40006068401C606070BD10B5FFF7B5FC0149DE
:100B5000086010BD0C00001010B51220FFF762FCF9
:100B60000720FFF75FFC0620FFF772FE0720FFF764
:100B70006FFE00220E210548FFF7D2FD00220D2155
:100B80000248FFF7CDFDFFF7FBFE10BD004004401B
:100B900002E008C8121F08C1002AFAD17047704746
:100BA000002001E001C1121F002AFBD170470000A4
:100BB00010B5002100200AE04200064B99524A1C61
:100BC00091B2AA224300044CE252421C90B20A287D
:100BD000F2DB10BD100000102400001010B5094B0E
:100BE000094A002109E018881488A04201D0012098
:100BF00010BD9B1C921C481C81B20A29F3DB00200B
:100C0000F6E700001000001024000010014606481E
:100C1000814201D10E2070470448814201D10F204A
:100C2000F9E71020F7E7000000400640008006408A
:100C3000FFF78AFFFFF764FBFFF72EFF3A4C2046D1
:100C4000844206D10C20FFF7DFFB0120FFF732FEC4
:100C500005E00B20FFF7D8FB0020FFF72BFE00BFBD
:100C6000314C04253C212046FFF765FD29462046EE
:100C7000FFF7D4FD0F200004206200BF00202B49A5
:100C8000887048700870C8702046FFF75DFD00BF8F
:100C900001212046FFF7C2FD00BF00BF20460068CB
:100CA000FF21BE310840802108432146086000BF73
:100CB000FFF77EFF0A201E4908611E4808600020D9
:100CC0004860C860082088821B4888602046FFF77B
:100CD00057FDFFF783FF002804D001210846FFF7E6
:100CE00049FB03E001210020FFF744FB00BF0E4851
:100CF0000068FF213E3108400B49086000BF0C46E8
:100D000000BF01212046FFF716FD00BF20468442A8
:100D100003D10C20FFF75CFB02E00B20FFF758FB30
:100D200000BF00BFFEE7000000C00540000000104B
:100D3000380000101000001024000010070D1011E2
:100D4000131B1C120C0401020B000000001BB70057
:100D50000000000000000000C027090090051000FE
:100D6000C05C1500F0B31A00200B2000009F240087
:100D7000E0322900C0C62D0050973100E0673500F1
:100D80007038390000093D004016400080234300C0
:100D9000C03046000C000C00C00000000300010041
:100DA0000C000600C0000000030002000C0004005C
:100DB000C0000000030003000C000300C00000009E
:100DC000030004000C000200C00000000300060045
:100DD0000C000100C000000003000C001800180007
:100DE000C00001000200010018000C00C00001005A
:100DF0000200020018000800C00001000200030009
:100E000018000600C00001000200040018000400E1
:100E1000C00001000200060018000300C00001002D
:100E20000200080018000200C000010002000C00CF
:100E300018000100C0000100020018002400120088
:100E4000200102000200020024000C002001020028
:100E50000200030024000900200102000200040037
:100E60002400060020010200020006002400040005
:100E700020010200020009002400030020010200FA
:100E800002000C00240002002001020002001200F7
:100E9000240001002001020002002400300018009C
:100EA000C00003000100020030001000C000030079
:100EB0000100030030000C00C0000300010004002A
:100EC00030000800C00003000100060030000600EA
:100ED000C00003000100080030000400C00003004F
:100EE00001000C0030000300C000030001001000EE
:100EF00030000200C00003000100180030000100B3
:100F0000C0000300010030003C001E00F00004009F
:100F1000010002003C001400F00004000100030086
:100F20003C000F00F0000400010004003C000C0035
:100F3000F0000400010005003C000A00F00004007D
:100F4000010006003C000600F000040001000A0059
:100F50003C000500F000040001000C003C0004000F
:100F6000F000040001000F003C000300F00004004A
:100F7000010014003C000200F000040001001E000B
:100F80003C000100F000040001003C004800180093
:100F900020010500010003004800120020010500A7
:100FA0000100040048000C002001050001000600BB
:100FB0004800090020010500010008004800080061
:100FC000200105000100090048000600200105007D
:100FD00001000C004800040020010500010012007F
:100FE000480003002001050001001800480002002D
:100FF0002001050001002400480001002001050037
:101000000100480054001C00A80006000000030076
:1010100054001500A80006000000040054000E0053
:10102000A80006000000060054000C00A8000600FE
:101030000000070054000700A800060000000C0094
:1010400054000600A800060000000E005400040032
:10105000A80006000000150054000300A8000600C8
:1010600000001C0054000200A800060000002A0036
:1010700054000100A80006000000540060001800A1
:10108000C00007000000040060001000C00007005E
:101090000000060060000C00C0000700000008000F
:1010A00060000800C000070000000C00600006009F
:1010B000C00007000000100060000400C00007002E
:1010C0000000180060000300C000070000002000BE
:1010D00060000200C0000700000030006000010056
:1010E000C0000700000060000811000000000010B0
:1010F00010000000900B00001811000010000010FC
:10110000C0010000A00B0000000000000000000073
:081110000000000000000000D7
:04000005000000C136
:00000001FF
