:020000040000FA
:10000000A0080010D5000000E5000000DD000000A1
:10001000000000000000000000000000C9F4FFEF35
:10002000000000000000000000000000DF000000F1
:100030000000000000000000E1000000D90C0000FA
:10004000E5000000E500000000000000210D0000B8
:10005000E5000000E500000000000000E5000000F1
:10006000E5000000E5000000E5000000E5000000FC
:10007000E5000000E5000000E5000000E5000000EC
:10008000E5000000E5000000E5000000E5000000DC
:10009000050B0000E5000000E50000000000000086
:1000A000E5000000E5000000E5000000E5000000BC
:1000B000E5000000E5000000E5000000E5000000AC
:1000C0000348854600F0D8F800480047D5120000E4
:1000D000A00800100448804704480047FEE7FEE7F8
:1000E000FEE7FEE7FEE70000F90C0000C10000009B
:1000F00030B50B46014600202022012409E00D46C0
:10010000D5409D4205D31D469540491B2546954047
:1001100040191546521E002DF1DC30BDF0B51FB45C
:100120000646002082B005464024019100901BE065
:10013000019922460F46304600F08CF8049A059B40
:10014000801A994110D310461946224600F072F8E1
:10015000361A8F410197224601200021009F00F0AE
:1001600069F838184D4100902046641E0028DFDCF5
:10017000019B00982946324607B0F0BDF0B51FB488
:1001800086B000200090019002900698069980B2F7
:1001900004900798090C02040014114307900027EB
:1001A000089D099806913E463C4603900398A9B2E3
:1001B0000204000C039004982D0C154348430021C1
:1001C000224600F037F8C719714110340E46402C12
:1001D000ECDB3846029A00F02DF8009A019B80185B
:1001E0000090594102980191103002904028CCDBD8
:1001F00000980BB0F0BDD2B201E00270401C491E65
:10020000FBD270470022F6E710B513460A460446B3
:100210001946FFF7F0FF204610BD30B50446002018
:10022000034600E05B1C934203D2E05CCD5C401BC4
:10023000F8D030BD10B5202A04DB0146203A9140A9
:10024000002010BD914020239C1A0346E34019432F
:10025000904010BD10B5202A04DB0846203AD0405B
:10026000002110BD0B46D340D0402024A21A91405B
:100270000843194610BD0000064C0125064E05E056
:10028000E36807CC2B430C3C98471034B442F7D3B7
:10029000FFF71AFFE01800000019000010B5094C24
:1002A00000F02EF800BF08480068084908404021C7
:1002B00008430549086000BF00F074F800F056F8E4
:1002C00010BD000000C0004080800440FFFFEF250B
:1002D0000146052252070648405C800001231B03AB
:1002E000D3181858002801D1012070470020FCE7DE
:1002F0004015000081607047C1617047FFFFFFFF3C
:1003000010B500F0ABF8154800F096FB0420134A36
:100310001268134B1A4011460A4602430F4B1A60EB
:1003200000BF01210F4800F05BFAE12149020B48B0
:1003300000F0DAFB00BF0948006809497C31084039
:10034000012108430549086000BF00BF0846406816
:10035000054908400149486000BF10BD00800640C3
:1003600001DAFC0000C0A8000603010070B50A4DC8
:1003700000240DE00948025D0023194605204007CE
:1003800000F081FA80200649095D89006850641CEC
:10039000022CEFDB70BD000000400440401500005F
:1003A0004215000010B5002410E00A48025D012348
:1003B00000210520400700F066FA0648025D01238F
:1003C00000210520400700F071FA641C082CECDBCA
:1003D00010BD00003815000070B504460D46082C0D
:1003E00009DA0120684003460348025D0021052028
:1003F000400700F05BFA70BD3815000010B50446E8
:1004000003E02078641C00F005F820780028F8D17B
:1004100010BD000001B5684600780A2810D10D48CB
:1004200000780D280CD00D200A49087001220A48D6
:1004300000F043FB01226946074800F03EFB08E05C
:1004400001226946044800F038FB684600780149FB
:10045000087008BD280000100080064010B5072075
:1004600001218140134A1268134B1A401143114A6B
:10047000116000BF062000F063FA072000F060FA68
:1004800001200C49486100BF0821112000F064FAE6
:100490000921122000F060FA072006490A680121AC
:1004A0008140054BDB4319438A4302490A6000BF80
:1004B00010BD000080800440FFFFEF2510B504460A
:1004C0000C480121A140816200BF00BF094800F033
:1004D000D5F90121A14008400028F7D105480121A4
:1004E000A140816700BF00BF0121A140016400BF9E
:1004F00010BD00000080005010B5014600BF1D2057
:10050000012282400D4B1B680D4C23401A430B4BBC
:100510001A6000BF00BF00BF01200A4A106000BF80
:100520000948906000BF002906D0142001228240B3
:10053000064B1A6000BF00BF10BD00008080044061
:10054000FFFFEF25008000500006001000E100E0F2
:10055000FFB50A9F00BF012282401C4C226200BFEF
:10056000224601248440946400BF0C9D2C04012683
:1005700034430501B6029619745100BF029A002A4D
:1005800009D00B9A8C180122BA40A21A0401104D0E
:100590006419626003E002010D4C12195160099A5E
:1005A000002A09D00B9A9C180122BA40A21A040111
:1005B000074D6419A26003E00201054C1219936013
:1005C00000220401024D6419E260FFBD008000506A
:1005D00000060010F8B50E461746002B01D1069C08
:1005E00008E0FF2101318B4202D106994C0801E05D
:1005F00006998C080094094915241C433443254668
:100600003D43009C641E24042A4622430401012524
:10061000AD024D196419A26000BFF8BD0080005002
:1006200010B500240F48006B8007800F002806D00B
:10063000012808D002280AD0032810D10BE000BFFF
:10064000094804460BE000F027F8044607E000F0F4
:10065000A9F8044603E000F045F8044600BF00BFD7
:10066000204610BD40800440001BB7000246D00663
:10067000C00E431C084658437047000010B5FFF7F2
:10068000CFFF04460348806BC1B22046FFF730FD20
:1006900010BD0000408004400E4909688907890F99
:1006A000002904D0012906D003290ED108E000BF9B
:1006B000094800BF0BE000BF0849086800BF06E01A
:1006C00000BF0749086800BF01E0002000BF00BF6D
:1006D0007047000040800440001BB7004415000034
:1006E0004815000010B5FFF7D7FF04460349896895
:1006F0004806400E2146FFF7B9FF10BD00800440B8
:10070000F0B589B000BF1E484069C0B20590059899
:10071000002801D100242FE0FFF782FF0290059905
:10072000FFF7E6FC0025044600BF15484030006B8B
:10073000C0B203900398FF281DD100BF104840307D
:10074000406BC0B204900498FF300130FF210131AA
:100750000290002026462F460791069030463946E3
:10076000069B079AFFF70AFD019100900023029A69
:10077000FFF7D4FC044600BF204609B0F0BD0000DE
:100780008080044070B50446E005060FE506ED0ED6
:100790006A1C5100B200024B9858FFF7A9FC70BDCB
:1007A0004C15000010B50349496AC805C00DFFF794
:1007B000E9FF10BD00800440034908630021024A9C
:1007C0005163012151637047408004400349086030
:1007D0000021024A5160012151607047408004406D
:1007E000FEB505460E46FFF71BFF0190294601980E
:1007F000FFF77EFC0446002C00D10124E0B21D4925
:10080000486100BF002E2FD0022000BF1949803957
:100810004A6801218140184B19438A4315498039A0
:100820004A6000BF00BF01218140124A803A5268ED
:10083000DB431A4011430F4A803A516000BF00BFAA
:10084000FF2000F0E3F821460198FFF751FC070272
:1008500029463846FFF74CFC00900099C8B205497C
:100860004031486300BF02E0002000F0CFF8FFF7FE
:1008700047FFFEBD808004400020FEFF0146886BDC
:100880008003800B704770B5002B07D00124944083
:100890008D004726F6018619745106E00124944024
:1008A0008D000926B6028619745170BD10B54C0131
:1008B0002418A35410BD0000F3B581B00D461D49A6
:1008C0000198FFF715FC80B200901A492846FFF7FF
:1008D0000FFC86B2002700241E2E01DD0020FEBD85
:1008E0000098602801DD0020F9E7002412E00C20C8
:1008F00060431149095A009881420AD10C20604393
:100900000D4940184088B04203D10C490C800127A2
:1009100002E0641C472CEAD300BF012F07D107492E
:1009200009880C225143044A881800F0CBFD384650
:10093000D5E7000040420F008C1500002C0000108D
:1009400001218140034A1268D201D2091143014AB0
:1009500011607047C0C10040F0B505076A0E031171
:100960009D00074EAD192D68FF269640B5432C46D5
:100970000D46954025439E00014FF6193560F0BDA8
:1009800000C0004000BF0B494A68012181400A4B6A
:1009900019438A4307494A6000BF00BF01218140D3
:1009A000044A5268DB431A401143024A516000BFB7
:1009B00070470000008004400020FEFF064A926B52
:1009C000064B1A4011461A46024011436D2212028C
:1009D0000A43014B9A63704700820440FF80000085
:1009E0000146084A926B084B1A4010461A460A40C4
:1009F0000346934318466D2212020243014B9A6349
:100A00007047000000820440FF8000000149086335
:100A100070470000C080044010B502494800FFF74D
:100A20004BFF10BD80C3C90101468868014A1040D0
:100A3000704700007FFD010070B50446204600F0BD
:100A400037FC05460120A8400C4909680C4A1140B2
:100A500008430A49086000BF0A48844203D10320C2
:100A6000FFF790FF09E00848844203D10420FFF714
:100A700089FF02E00520FFF785FF70BD80800440FC
:100A8000FFFFEF250040064000800640F7B50D4609
:100A9000164600242F4605E039780098FFF72CFC15
:100AA0007F1C641CB44206DA0098FFF7BDFF0421E6
:100AB00008400028F0D12046FEBDF7B582B00E46B2
:100AC0001546002701960AE02A4601990298FFF789
:100AD000DDFF04462D1B3F19019800190190002DE0
:100AE000F2DC384605B0F0BDF8B504460D46FFF718
:100AF00007FE07462901FFF7FBFA0646701E206233
:100B0000F8BD000070B51548016C8903890B0C46CF
:100B100000BF816D8903890B0D46204628430221C1
:100B20000840002819D00D48012101228A40826521
:100B300000BF02202040002809D00120FFF7BEFCA2
:100B400001200749087007A000F04EF902E00020DC
:100B50000349087001200849087070BD00800050EA
:100B60000A000010444D412078666572206572725B
:100B70006F72210A00000000090000101FB526480E
:100B80000078002800D11FBD2448016824A000F08F
:100B90002BF900202049087028490870284908606E
:100BA00028490870012189022748FFF72BFBE9211A
:100BB00009022648FFF79EFB2548012189020022F1
:100BC0000092019202910390224803681C338A002C
:100BD000124801680120FFF7BBFC104800680121A2
:100BE000890240180D490860084600680121490340
:100BF000884202D300200949086017480068174955
:100C000008600120800200231A4681000090012024
:100C1000FFF7E0FC00BFB6E708000010040000107A
:100C200044756D70696E67206164647265737320CA
:100C30003078253034782E2E2E0A00000A0000105D
:100C40000C0000101000001034000010004006409E
:100C50000100030000000010140000101800001034
:100C600010B5002819DA1A4A03071B0F083B9B0826
:100C70009B00D2588307DC0EFF23A3409A438B07C7
:100C80001B0E8407E40EA3401A43114B0407240FE4
:100C9000083CA408A4001A5118E00E4A03231B02C2
:100CA000D21883089B00D2588307DC0EFF23A34091
:100CB0009A438B071B0E8407E40EA3401A43054B8F
:100CC000032424021B198408A4001A5110BD00003B
:100CD0001CED00E000E100E002480068401C014912
:100CE000086070471400001010B5FFF7C7FC0149F9
:100CF000086010BD3000001010B5122001218140A5
:100D0000054A1268054B1A401143034A116000BF9F
:100D1000FFF782FE10BD000080800440FFFFEF253A
:100D200070B501210220FFF757FB28490868816848
:100D3000274A11400C46E007C00F002832D0254852
:100D4000006801218902884208D220490868416967
:100D5000C8B221491F4A1268885402E003201F4983
:100D600008701C480068401C1A490860012189026B
:100D7000884217D11A480068002801D1C80001E054
:100D80001748006805460120164908708102681A54
:100D90000A461149FFF741FA002802D001200F4905
:100DA000087000BFFF2001302040002808D0FF213C
:100DB000013106480068FFF79DFA022007490870D4
:100DC00000210220FFF708FB70BD000000000010AA
:100DD0007FFD01000C000010340000101000001016
:100DE00004000010110000100FB410B503A9044B4B
:100DF000044A029800F018F810BC08BC04B0184768
:100E00009D1200001C00001002E008C8121F08C15B
:100E1000002AFAD170477047002001E001C1121F7B
:100E2000002AFBD170470000FFB591B00F46054680
:100E3000002606E025280AD0149A139990476D1CC5
:100E4000761C28780028F5D1304615B0F0BD002476
:100E500000940121F34A029400E004436D1C2B78B6
:100E60000846203B98401042F7D128782A280ED017
:100E7000022128780246303A092A15D8009A0A2316
:100E80005A43303A80180C436D1C0090F1E701CFB3
:100E90000090002805DA01204003044300984042F6
:100EA0000090022004436D1C28782E2815D10420C0
:100EB000044368786D1C2A280AD101CF6D1C02906A
:100EC0000BE002990A225143303940186D1C029000
:100ED0002878014630390929F3D928786C2810D0B0
:100EE00006DC4C281AD068280ED06A2817D104E0F6
:100EF000742813D07A2812D110E001204005044351
:100F00000CE00121090501E0032109050C43697882
:100F1000814203D10120000524186D1C6D1C287826
:100F200003906E281ED00CDC632831D004DC00282E
:100F30008AD0582811D1B2E064287BD069280CD11E
:100F400078E073282DD004DC6F2870D0702804D18D
:100F5000A7E075286CD078286BD0149A1399904725
:100F6000761C62E06002400F022807D003280AD0F6
:100F7000042838680AD006603F1D56E03868F1172B
:100F800006604160F8E738680680F5E70670F3E729
:100F90003878694608740020487404A8039001203A
:100FA00003E0386803900020C0433F1D61070FD560
:100FB000002101E00199491C029A0191914213DA42
:100FC0008142F7DB019A0399895C0029F2D10BE099
:100FD000002101E00199491C01918142FADB019A4B
:100FE0000399895C0029F5D101990098139A401A58
:100FF00000902146149B00F03BF901998019461896
:1010000007E0039803990078491C0391149A1399F7
:1010100090470198401E0190401CF2D12146149B3C
:10102000139A009800F014F986196D1C09E741E045
:1010300033E034E00A200021049005916002410F62
:10104000022905D001CFC2179446032905D007E035
:10105000FF1DFF08FF0003CF06E000B2C217944651
:10106000042902D140B2C1178C4600226146944542
:1010700006DA0A460021404291418C462D2102E0C9
:10108000210504D52B216A461176012103E0E107F1
:1010900001D02021F7E7019154E00A200BE0102055
:1010A00009E0102004900021042004430820059149
:1010B000029003E008200021059104906002410F96
:1010C000022905D001CF00229446032906D006E06C
:1010D000FF1DFF08FF0003CF8C4603E080B2042908
:1010E00000D1C0B20021019121072BD503997029AD
:1010F00006D0049A1021059B4A401A4305D00EE001
:1011000040216A461176012108E06146014306D07C
:1011100030216A4611760399517602210191049A91
:101120000821059B4A401A430CD16146014301D175
:10113000610707D530216A46117601210191029994
:10114000491E02910399582904D037A103910FA990
:101150000F910DE039A1F9E76146059B049AFEF76E
:10116000DDFF039B8C469B5C0F9A521E0F921370FF
:1011700061460143F0D10F9807A9081A2030039067
:10118000600704D5012000048443029801E0012097
:1011900002900399884201DD401A00E000204118C6
:1011A0000290019809180098401A0090E00306D4B4
:1011B0002146149B139A009800F05AF886190020D3
:1011C000049008E006A9085C149A139990470498C3
:1011D000401C761C049001998842F3DBE0030CD597
:1011E0002146149B139A009800F042F8861904E0F7
:1011F000149A302013999047761C0299481E029049
:101200000029F5DC08E00F980F990078491C0F9130
:10121000149A13999047761C0399481E039000294D
:10122000F1DCFBE609280100303132333435363742
:101230003839616263646566000000003031323322
:1012400034353637383941424344454600000000C2
:10125000F8B5044600251E461746880404D405E068
:1012600039462020B0476D1C641EF9D52846F8BDCC
:10127000FFB50446002581B01E46C80301D53027BE
:1012800000E02027880404D505E038460399B047DC
:101290006D1C641EF9D5284605B0F0BD70B5044636
:1012A0000E46E5B22846FFF7B5F800BF002070BD36
:1012B00001460648814201D10E2070470448814210
:1012C00001D10F20F9E71020F7E7000000400640A9
:1012D00000800640FFF708FDFEF7E0FF002108460A
:1012E000FFF77AF8454946480068FEF701FF0446D3
:1012F000601E4449884200D90CE0601E42494861A2
:101300000321081FFFF7ACFC00203F49886107203C
:10131000086100BF3DA0FFF771F841480068FFF782
:101320008BFB3F4A0421106803683E4C23401A4659
:1013300013460B43036000BFE1218902384800686F
:10134000FFF7D2FB364908680168364A7C32114003
:1013500001221143016000BF314908684168324AE7
:101360001140416000BF2E48006800680121C90398
:1013700008432B4909680860FF20023028490968A2
:10138000C860032001218140284A116000BF01206C
:10139000FFF7B2F831E00020FEF79AFF002801D0F5
:1013A000FFF7ECFB2248007801280AD121480068A9
:1013B000214A1268811A21A0FFF716FD00201C495E
:1013C000087027480078002817D0264800780028A1
:1013D0000AD025A0FFF708FD22480078022806D190
:1013E0002AA0FFF701FD02E02EA0FFF7FDFC002080
:1013F0001B490870012032490870CCE71027000013
:1014000030000010FFFFFF0000E000E055415254A3
:1014100020444D41206578616D706C650A000000C4
:101420000000001001DAFC000603010000E100E00A
:10143000090000101400001018000010444D412055
:101440007866657220646F6E652120444D4120549A
:10145000582074696D65203D2025640A0000000055
:1014600011000010100000104572726F72206F633F
:10147000637572656420647572696E672072656356
:10148000656976696E67203A280A00005258206F15
:1014900076657272756E206F636375726564210A7A
:1014A00000000000526563656976656420646174BC
:1014B0006120616C6C204F4B205E5F5E0A00000073
:1014C0000800001010B504460220FFF789FA00203A
:1014D000FFF77CF90020FFF76FF90120144A126929
:1014E00000210A460243124B1A6100BF8020FFF719
:1014F00065FAA079217AC206D20E8B075B0E1A43D9
:101500000C4B9A6000BF8020FFF76AFA00BF00BF53
:101510000848C068C007C00F0028F8D06089054996
:101520004031886300BF0320FFF746F910BD00007B
:101530000000044000800440070D1011131B1C1212
:101540000C01020B001BB7000000000000000000AF
:10155000C027090090051000C05C1500F0B31A0008
:10156000200B2000009F2400E0322900C0C62D007F
:1015700050973100E06735007038390000093D00B0
:101580004016400080234300C03046000C000C0091
:10159000C0000000030001000C000600C0000000B5
:1015A000030002000C000400C00000000300030060
:1015B0000C000300C0000000030004000C00020047
:1015C000C0000000030006000C000100C000000085
:1015D00003000C0018001800C00001000200010008
:1015E00018000C00C00001000200020018000800F2
:1015F000C00001000200030018000600C000010046
:101600000200040018000400C000010002000600EF
:1016100018000300C00001000200080018000200CA
:10162000C000010002000C0018000100C000010011
:101630000200180024001200200102000200020033
:1016400024000C0020010200020003002400090015
:101650002001020002000400240006002001020014
:10166000020006002400040020010200020009001C
:10167000240003002001020002000C0024000200EC
:1016800020010200020012002400010020010200DB
:101690000200240030001800C00003000100020016
:1016A00030001000C00003000100030030000C00F7
:1016B000C00003000100040030000800C000030067
:1016C0000100060030000600C00003000100080011
:1016D00030000400C000030001000C0030000300D3
:1016E000C00003000100100030000200C000030031
:1016F0000100180030000100C000030001003000AC
:101700003C001E00F0000400010002003C00140038
:10171000F0000400010003003C000F00F000040092
:10172000010004003C000C00F00004000100050072
:101730003C000A00F0000400010006003C00060026
:10174000F000040001000A003C000500F000040065
:1017500001000C003C000400F000040001000F0038
:101760003C000300F0000400010014003C000200F3
:10177000F000040001001E003C000100F000040025
:1017800001003C0048001800200105000100030092
:1017900048001200200105000100040048000C0070
:1017A0002001050001000600480009002001050095
:1017B00001000800480008002001050001000900A0
:1017C000480006002001050001000C00480004004C
:1017D000200105000100120048000300200105005F
:1017E000010018004800020020010500010024004B
:1017F00048000100200105000100480054001C00C1
:10180000A80006000000030054001500A800060010
:101810000000040054000E00A800060000000600AE
:1018200054000C00A8000600000007005400070048
:10183000A800060000000C0054000600A8000600E6
:1018400000000E0054000400A8000600000015006F
:1018500054000300A800060000001C005400020011
:10186000A800060000002A0054000100A80006009D
:101870000000540060001800C000070000000400D1
:1018800060001000C00007000000060060000C00AF
:10189000C00007000000080060000800C00007004A
:1018A00000000C0060000600C000070000001000EF
:1018B00060000400C0000700000018006000030082
:1018C000C00007000000200060000200C000070008
:1018D0000000300060000100C00007000000600050
:1018E000001900000000001034000000080E000085
:1018F00034190000340000106C080000180E0000BD
:101900000040064000000000010000000000000050
:1019100000000000000000000000000000000000C7
:1019200000000000000000000000000000000000B7
:0419300000000000B3
:04000005000000C136
:00000001FF
