:020000040000FA
:1000000020020010D5000000E5000000DD00000027
:1000100000000000000000000000000049FBFFEFAE
:10002000000000000000000000000000DF000000F1
:100030000000000000000000E1000000E3000000FC
:10004000E5000000E500000000000000E500000001
:10005000E5000000E500000000000000E5000000F1
:10006000F5090000E5000000E5000000E5000000E3
:10007000E5000000E5000000E5000000E5000000EC
:10008000E5000000E5000000E5000000E5000000DC
:10009000E5000000E5000000E500000000000000B1
:1000A000E5000000E5000000E5000000E5000000BC
:1000B000E5000000E5000000E5000000E5000000AC
:1000C0000348854600F0B8F800480047890B000057
:1000D000200200100448804704480047FEE7FEE77E
:1000E000FEE7FEE7FEE70000050B0000C100000090
:1000F00030B50B46014600202022012409E00D46C0
:10010000D5409D4205D31D469540491B2546954047
:1001100040191546521E002DF1DC30BDF0B51FB45C
:100120000646002082B005464024019100901BE065
:10013000019922460F46304600F06DF8049A059B5F
:10014000801A994110D310461946224600F053F800
:10015000361A8F410197224601200021009F00F0AE
:100160004AF838184D4100902046641E0028DFDC14
:10017000019B00982946324607B0F0BDF0B51FB488
:1001800086B000200090019002900698069980B2F7
:1001900004900798090C02040014114307900027EB
:1001A000089D099806913E463C4603900398A9B2E3
:1001B0000204000C039004982D0C154348430021C1
:1001C000224600F018F8C719714110340E46402C31
:1001D000ECDB3846029A00F00EF8009A019B80187A
:1001E0000090594102980191103002904028CCDBD8
:1001F00000980BB0F0BD10B5202A04DB0146203A70
:100200009140002010BD914020239C1A0346E340FA
:100210001943904010BD10B5202A04DB0846203A4F
:10022000D040002110BD0B46D340D0402024A21A5C
:1002300091400843194610BD064C0125064E05E0C5
:10024000E36807CC2B430C3C98471034B442F7D3F7
:10025000FFF73AFF141200003412000010B500F04E
:10026000C7F8154800F03EFB0420134A1268134BF0
:100270001A4011460A4602430F4B1A6000BF012183
:100280000F4800F0C5F9E12149020B4800F084FB5A
:1002900000BF0948006809497C3108400121084332
:1002A0000549086000BF00BF08464068054908408E
:1002B0000149486000BF10BD0080064001DAFC0023
:1002C00000C0A8000603010010B5094CFFF7C6FFE7
:1002D00000BF084800680849084040210843054914
:1002E000086000BF00F028F800F00AF810BD000018
:1002F00000C0004080800440FFFFEF25FFFFFFFFAC
:1003000070B50A4D00240DE00948025D002319462E
:100310000520400700F0CAF980200649095D8900E0
:100320006850641C022CEFDB70BD000000400440EC
:10033000740E0000760E000010B5002410E00A488C
:10034000025D012300210520400700F0AFF90648B7
:10035000025D012300210520400700F0BAF9641C6A
:10036000082CECDB10BD00006C0E000070B50446DC
:100370000D46082C09DA0120684003460348025D57
:1003800000210520400700F0A4F970BD6C0E0000AC
:1003900010B5044603E02078641C00F005F82078CE
:1003A0000028F8D110BD000001B5684600780A2881
:1003B00010D10D4800780D280CD00D200A49087086
:1003C00001220A4800F0CFFA01226946074800F0EE
:1003D000CAFA08E001226946044800F0C4FA6846F7
:1003E00000780149087008BD140000100080064024
:1003F00010B5072001218140134A1268134B1A409F
:100400001143114A116000BF062000F0E1F90720F6
:1004100000F0DEF901200C49486100BF08211120DD
:1004200000F0F0F90921122000F0ECF9072006494C
:100430000A6801218140054BDB4319438A43024985
:100440000A6000BF10BD000080800440FFFFEF2560
:1004500010B500240F48006B8007800F002806D0DD
:10046000012808D002280AD0032810D10BE000BFD1
:10047000094804460BE000F027F8044607E000F0C6
:10048000A9F8044603E000F045F8044600BF00BFA9
:10049000204610BD40800440001BB7000246D00635
:1004A000C00E431C084658437047000010B5FFF7C4
:1004B000CFFF04460348806BC1B22046FFF718FE09
:1004C00010BD0000408004400E4909688907890F6B
:1004D000002904D0012906D003290ED108E000BF6D
:1004E000094800BF0BE000BF0849086800BF06E0EC
:1004F00000BF0749086800BF01E0002000BF00BF3F
:100500007047000040800440001BB700780E0000D8
:100510007C0E000010B5FFF7D7FF04460349896839
:100520004806400E2146FFF7B9FF10BD0080044089
:10053000F0B589B000BF1E484069C0B2059005986B
:10054000002801D100242FE0FFF782FF02900599D7
:10055000FFF7CEFD0025044600BF15484030006B74
:10056000C0B203900398FF281DD100BF104840304F
:10057000406BC0B204900498FF300130FF2101317C
:100580000290002026462F460791069030463946B5
:10059000069B079AFFF7F2FD019100900023029A53
:1005A000FFF7BCFD044600BF204609B0F0BD0000C7
:1005B0008080044070B50446E005060FE506ED0EA8
:1005C0006A1C5100B200024B9858FFF791FD70BDB4
:1005D000800E000010B50349496AC805C00DFFF739
:1005E000E9FF10BD00800440034908630021024A6E
:1005F0005163012151637047408004400349086002
:100600000021024A5160012151607047408004403E
:10061000FEB505460E46FFF71BFF019029460198DF
:10062000FFF766FD0446002C00D10124E0B21D490D
:10063000486100BF002E2FD0022000BF1949803929
:100640004A6801218140184B19438A431549803972
:100650004A6000BF00BF01218140124A803A5268BF
:10066000DB431A4011430F4A803A516000BF00BF7C
:10067000FF2000F021F921460198FFF739FD07021C
:1006800029463846FFF734FD00900099C8B2054965
:100690004031486300BF02E0002000F00DF9FFF791
:1006A00047FFFEBD808004400020FEFF70B5002B98
:1006B00007D0012494408D004726F6018619745115
:1006C00006E0012494408D000926B6028619745173
:1006D00070BD10B54C012418A35410BD70B505466B
:1006E000284600F095F904460120A0401349096806
:1006F000134A114008431149086000BF284600F022
:10070000A1F9044620460D4980394A6801218140FB
:100710000C4B19438A43094980394A6000BF00BF26
:1007200001218140054A803A5268DB431A40114357
:10073000024A803A516000BF00BF70BD8080044013
:10074000FFFFEF250020FEFFF3B581B00D461D49E8
:100750000198FFF7CDFC80B200901A492846FFF7B8
:10076000C7FC86B2002700241E2E01DD0020FEBD3E
:100770000098602801DD0020F9E7002412E00C2039
:1007800060431149095A009881420AD10C20604304
:100790000D4940184088B04203D10C490C80012714
:1007A00002E0641C472CEAD300BF012F07D10749A0
:1007B00009880C225143044A881800F00DFA384683
:1007C000D5E7000040420F00C00E000018000010E6
:1007D00001218140034A1268D201D2091143014A22
:1007E00011607047C0C1004005490A68012181407D
:1007F0007F235B0619438A4301490A607047000062
:10080000C0C10040F0B505076A0E03119D00074EF8
:10081000AD192D68FF269640B5432C460D469540F0
:1008200025439E00014FF6193560F0BD00C0004021
:1008300000BF0B494A68012181400A4B19438A4392
:1008400007494A6000BF00BF01218140044A526845
:10085000DB431A401143024A516000BF7047000059
:10086000008004400020FEFF064A926B064B1A40AF
:1008700011461A46024011436D2212020A43014BEF
:100880009A63704700820440FF8000000146084AD6
:10089000926B084B1A4010461A460A40034693438F
:1008A00018466D2212020243014B9A637047000002
:1008B00000820440FF800000014908637047000087
:1008C000C080044010B502494800FFF73DFF10BD4D
:1008D00080C3C90101468868014A10407047000082
:1008E0007FFD010070B50446204600F03BF9054647
:1008F0000120A8400C4909680C4A114008430A49E4
:10090000086000BF0A48844203D10320FFF790FF2C
:1009100009E00848844203D10420FFF789FF02E080
:100920000520FFF785FF70BD80800440FFFFEF25A5
:100930000040064000800640F7B50D4616460024EC
:100940002F4605E03978009800F024F87F1C641CDD
:10095000B44206DA0098FFF7BDFF042108400028E2
:10096000F0D12046FEBDF7B582B00E4615460027F1
:1009700001960AE02A4601990298FFF7DDFF044636
:100980002D1B3F19019800190190002DF2DC38460B
:1009900005B0F0BDC1617047F8B504460D46FFF7DC
:1009A000C7FD07462901FFF7A3FB0646701E20621C
:1009B000F8BD000070B503460A46002400210BE094
:1009C0001007000F06A52D5C0726761A9D55120903
:1009D000002800D00C46491C0829F1D3601C70BDCA
:1009E0003031323334353637383941424344454665
:1009F0000000000010B50448806B4069016803489E
:100A00000068884710BD0000C01FFF1F00000010D5
:100A100001460A460A481018002808D007239B03FD
:100A2000C01A06D001239B03C01A06D103E015208B
:100A300070471620FCE71720FAE70520F8E70000CA
:100A400000C0FABF01460A460A481018002808D01C
:100A500007239B03C01A06D001239B03C01A06D1AB
:100A600003E00E2070470F20FCE71020FAE7062075
:100A7000F8E7000000C0FABF10B50720012181404F
:100A80000D4A12680D4B1A4011430B4A116000BF0A
:100A90000B20FFF7A9FE0C20FFF7A6FE0720064952
:100AA0000A6801218140054BDB4319438A4302490F
:100AB0000A6000BF10BD000080800440FFFFEF25EA
:100AC000FEB504460D460020694608722046FFF731
:100AD0005FFC29466846FFF76DFF06460821891B23
:100AE0006A468818FFF754FC01A0FFF751FCFEBDD1
:100AF0000D0A000010B5FFF7D9FC0149086010BDD0
:100B00001C00001010B5122001218140054A126816
:100B1000054B1A401143034A116000BFFFF7D2FE94
:100B200010BD000080800440FFFFEF2502E008C8F0
:100B3000121F08C1002AFAD170477047002001E057
:100B400001C1121F002AFBD170470000014A10604A
:100B5000704700000400001001210020FFF706FC90
:100B600000BFFEE701460648814201D10E207047D2
:100B70000448814201D10F20F9E71020F7E7000077
:100B8000004006400080064008B5BE210091FFF7F6
:100B9000B1FFFFF799FB00210846FFF7E7FB0121B2
:100BA0000720FFF7E3FBFFF767FF00F0CDF8082011
:100BB00001218140074A116000BF6846017800208A
:100BC00000F0FAF8002100916946002000F03EF89C
:100BD000002008BD00E100E010B504460220FFF748
:100BE00055FE0020FFF70AFD0020FFF7FDFC012065
:100BF000144A126900210A460243124B1A6100BFCF
:100C00008020FFF731FEA079217AC206D20E8B0731
:100C10005B0E1A430C4B9A6000BF8020FFF736FE34
:100C200000BF00BF0848C068C007C00F0028F8D048
:100C3000608905494031886300BF0320FFF7D4FC79
:100C400010BD0000000004400080044070B58AB070
:100C500004460D46A02108A80171447102200290AB
:100C600009A80490002003900021684601772848D5
:100C700006902848806B40692749426C27480068E5
:100C800090470020C043264908602248806B406995
:100C90006A4602A903692148006898470646204829
:100CA000066800E030BF1E480068401C0028F9D0EC
:100CB000A02108A80170002002900120039008A83C
:100CC000059001216846017711480690881E144955
:100CD00008601048806B40696A4602A943690F4862
:100CE00000689847064600E030BF0D480068401C89
:100CF0000028F9D0002E05D031460AA0FFF7E0FE0B
:100D0000FFF72AFF08A8407828700AB070BD0000DD
:100D10004D0B0000C01FFF1FA08601000000001047
:100D2000040000106932635F6D61737465725F72F5
:100D3000656365697665206572726F7220636F64A2
:100D400065203A203078000010B51648FFF7C6FC41
:100D50001549896B4969086B8047802801D9FFF7DD
:100D6000FBFE1148806B40691049426B0D4890476B
:100D70000F49086008460068002801D1FFF7ECFE23
:100D8000FFF794FB04460848806B4069094A2146F6
:100D9000836B074800689847002801D0FFF7DCFE06
:100DA00010BD000000000540C01FFF1F2000001004
:100DB00000000010A086010070B58AB004460D4600
:100DC000A02108A80171447185710320039009A82E
:100DD000059000200490012108A801701548079093
:100DE0001548806B40691549426C1548006890476A
:100DF0000020C043134908600F48806B406901AA76
:100E000003A903690E4800689847064600E030BF12
:100E10000C480068401C0028F9D00A480668002EDB
:100E200005D0314608A0FFF74BFEFFF795FE0AB04C
:100E300070BD00004D0B0000C01FFF1FA086010009
:100E400000000010040000106932635F6D6173746C
:100E500065725F7472616E736D6974206572726F12
:100E60007220636F6465203A20307800070D1011FE
:100E7000131B1C120C01020B001BB700000000002A
:100E800000000000C027090090051000C05C15009C
:100E9000F0B31A00200B2000009F2400E03229004C
:100EA000C0C62D0050973100E0673500703839001A
:100EB00000093D004016400080234300C03046003A
:100EC0000C000C00C0000000030001000C00060034
:100ED000C0000000030002000C000400C00000007D
:100EE000030003000C000300C00000000300040026
:100EF0000C000200C0000000030006000C0001000E
:100F0000C000000003000C0018001800C000010021
:100F10000200010018000C00C000010002000200E5
:100F200018000800C00001000200030018000600BD
:100F3000C00001000200040018000400C00001000D
:100F40000200060018000300C000010002000800B3
:100F500018000200C000010002000C00180001008F
:100F6000C00001000200180024001200200102004D
:100F70000200020024000C00200102000200030015
:100F800024000900200102000200040024000600E1
:100F900020010200020006002400040020010200DB
:100FA00002000900240003002001020002000C00DE
:100FB00024000200200102000200120024000100AF
:100FC000200102000200240030001800C0000300CD
:100FD0000100020030001000C00003000100030007
:100FE00030000C00C00003000100040030000800C5
:100FF000C00003000100060030000600C00003002E
:101000000100080030000400C000030001000C00D3
:1010100030000300C0000300010010003000020097
:10102000C00003000100180030000100C0000300F0
:10103000010030003C001E00F0000400010002002E
:101040003C001400F0000400010003003C000F000D
:10105000F0000400010004003C000C00F00004005B
:10106000010005003C000A00F00004000100060039
:101070003C000600F000040001000A003C000500EE
:10108000F000040001000C003C000400F00004002B
:1010900001000F003C000300F000040001001400F8
:1010A0003C000200F000040001001E003C000100B2
:1010B000F000040001003C00480018002001050079
:1010C0000100030048001200200105000100040097
:1010D00048000C002001050001000600480009003E
:1010E000200105000100080048000800200105005B
:1010F00001000900480006002001050001000C0065
:10110000480004002001050001001200480003000F
:101110002001050001001800480002002001050020
:1011200001002400480001002001050001004800E2
:1011300054001C00A8000600000003005400150025
:10114000A80006000000040054000E00A8000600DD
:101150000000060054000C00A80006000000070074
:1011600054000700A800060000000C005400060010
:10117000A800060000000E0054000400A8000600AD
:101180000000150054000300A800060000001C0029
:1011900054000200A800060000002A0054000100CC
:1011A000A80006000000540060001800C0000700FE
:1011B0000000040060001000C000070000000600EE
:1011C00060000C00C000070000000800600008007C
:1011D000C000070000000C0060000600C00007000F
:1011E0000000100060000400C000070000001800AC
:1011F00060000300C0000700000020006000020043
:10120000C00007000000300060000100C0000700BF
:1012100000006000341200000000001020000000F8
:101220002C0B0000541200002000001000020000EF
:101230003C0B000000000000000000000000000067
:10124000000000000000000000000000000000009E
:04125000000000009A
:04000005000000C136
:00000001FF
