:020000040000FA
:100000006009001045010000510100004901000095
:10001000000000000000000000000000C1F2FFEF3F
:10002000000000000000000000000000F9020000D5
:10003000000000000000000003010000A10A000011
:1000400051010000510100000000000051010000BA
:1000500051010000510100000000000000000000FC
:100060005101000051010000510100005101000048
:100070005101000051010000510100005101000038
:100080000000000000000000000000000000000070
:100090000000000000000000000000000000000060
:1000A0005101000051010000510100005101000008
:1000B00051010000510100005101000051010000F8
:1000C0000348854600F01CF900480047910B0000EA
:1000D00060090010064B19680868203080F3098811
:1000E000022080F314883FBCAE4662B600BD00001B
:1000F00000000010EFF3108072B6704780F3108894
:100100007047EFF309800E4B1A6820381060F0C07A
:1001100044464D4656465F46F0C008B572B600F0FC
:10012000CFFF62B60CBC116808681030F0C8A0465A
:10013000A946B246BB4680F309882038F0C8184764
:100140000000001003480047FEE7FEE7FEE7FEE779
:10015000FEE70000C100000030B50B46014600205C
:100160002022012409E00D46D5409D4205D31D46BD
:100170009540491B2546954040191546521E002DB5
:10018000F1DC30BDF0B51FB40646002082B0054654
:100190004024019100901BE0019922460F46304611
:1001A00000F08CF8049A059B801A994110D31046F0
:1001B0001946224600F072F8361A8F4101972246FE
:1001C00001200021009F00F069F838184D4100908F
:1001D0002046641E0028DFDC019B00982946324639
:1001E00007B0F0BDF0B51FB486B0002000900190BC
:1001F00002900698069980B204900798090C0204B0
:100200000014114307900027089D099806913E4667
:100210003C4603900398A9B20204000C0390049892
:100220002D0C154348430021224600F037F8C7192A
:10023000714110340E46402CECDB3846029A00F037
:100240002DF8009A019B8018009059410298019165
:10025000103002904028CCDB00980BB0F0BDD2B239
:1002600001E00270401C491EFBD270470022F6E7F5
:1002700010B513460A4604461946FFF7F0FF20461C
:1002800010BD30B504460020034600E05B1C9342DD
:1002900003D2E05CCD5C401BF8D030BD10B5202A05
:1002A00004DB0146203A9140002010BD91402023FC
:1002B0009C1A0346E3401943904010BD10B5202A14
:1002C00004DB0846203AD040002110BD0B46D34045
:1002D000D0402024A21A91400843194610BD10B501
:1002E000044603E02078641C00F0C0F82078002861
:1002F000F8D110BDC161704770477047FFFFFFFF25
:10030000064C0125064E05E0E36807CC2B430C3C68
:1003100098471034B442F7D3FFF7D6FE34180000E4
:100320005418000010B500F0C5F8154800F020FB87
:100330000420134A1268134B1A4011460A4602431E
:100340000F4B1A6000BF01210F4800F0D1F9E121E5
:1003500049020B4800F064FB00BF094800680949E6
:100360007C310840012108430549086000BF00BFF7
:1003700008464068054908400149486000BF10BD73
:100380000080064001DAFC0000C0A800060301005E
:1003900010B50F4CFFF7C6FFFF20C1300059C02138
:1003A0000843FF21C131085100BF0A4800680A49CB
:1003B0000840402108430749086000BF00F02AF8C0
:1003C00000F00CF800F054FB00F038FB10BD00000A
:1003D00000C0004080800440FFFFEF2570B50A4D4B
:1003E00000240DE00948025D00231946052040075E
:1003F00000F0CCF980200649095D89006850641C32
:10040000022CEFDB70BD000000400440941400009B
:100410009614000010B5002410E00A48025D012384
:1004200000210520400700F0B1F90648025D0123D4
:1004300000210520400700F0BCF9641C082CECDB0F
:1004400010BD00008C14000070B504460D46082C49
:1004500009DA0120684003460348025D00210520B7
:10046000400700F0A6F970BD8C14000001B5684685
:1004700000780A2810D10D4800780D280CD00D20E6
:100480000A49087001220A4800F0B3FA01226946BD
:10049000074800F0AEFA08E001226946044800F07F
:1004A000A8FA684600780149087008BD48000010A5
:1004B0000080064010B5072000F02CF8062000F060
:1004C000CDF9072000F0CAF9002000F0C7F9182084
:1004D00000F0C4F901200749486100BF0421112040
:1004E00000F0D6F90021122000F0D2F9072000F028
:1004F00003F810BD8080044004490A68012181404E
:10050000034B19438A4301490A60704780800440C5
:10051000000010DA01218140034A1268034B1A409F
:100520001143014A1160704780800440FFFFEF25AE
:1005300010B500240F48006B8007800F002806D0FC
:10054000012808D002280AD0032810D10BE000BFF0
:10055000094804460BE000F027F8044607E000F0E5
:10056000A9F8044603E000F045F8044600BF00BFC8
:10057000204610BD40800440001BB7000246D00654
:10058000C00E431C084658437047000010B5FFF7E3
:10059000CFFF04460348806BC1B22046FFF7DCFD65
:1005A00010BD0000408004400E4909688907890F8A
:1005B000002904D0012906D003290ED108E000BF8C
:1005C000094800BF0BE000BF0849086800BF06E00B
:1005D00000BF0749086800BF01E0002000BF00BF5E
:1005E0007047000040800440001BB70098140000D2
:1005F0009C14000010B5FFF7D7FF04460349896833
:100600004806400E2146FFF7B9FF10BD00800440A8
:10061000F0B589B000BF1E484069C0B2059005988A
:10062000002801D100242FE0FFF782FF02900599F6
:10063000FFF792FD0025044600BF15484030006BCF
:10064000C0B203900398FF281DD100BF104840306E
:10065000406BC0B204900498FF300130FF2101319B
:100660000290002026462F460791069030463946D4
:10067000069B079AFFF7B6FD019100900023029AAE
:10068000FFF780FD044600BF204609B0F0BD000022
:100690008080044070B50446E005060FE506ED0EC7
:1006A0006A1C5100B200024B9858FFF755FD70BD0F
:1006B000A014000010B50349496AC805C00DFFF732
:1006C000E9FF10BD00800440034908630021024A8D
:1006D0005163012151637047408004400349086021
:1006E0000021024A5160012151607047408004405E
:1006F000FEB505460E46FFF71BFF019029460198FF
:10070000FFF72AFD0446002C00D10124E0B21D4968
:10071000486100BF002E2FD0022000BF1949803948
:100720004A6801218140184B19438A431549803991
:100730004A6000BF00BF01218140124A803A5268DE
:10074000DB431A4011430F4A803A516000BF00BF9B
:10075000FF2000F0F7F821460198FFF7FDFC0702A3
:1007600029463846FFF7F8FC00900099C8B20549C1
:100770004031486300BF02E0002000F0E3F8FFF7DB
:1007800047FFFEBD808004400020FEFF70B5002BB7
:1007900007D0012494408D004726F6018619745134
:1007A00006E0012494408D000926B6028619745192
:1007B00070BD10B54C012418A35410BD30B58C0089
:1007C000045903252D02AC43234614021C438D001B
:1007D000445130BDF3B581B00D461D490198FFF776
:1007E000BBFC80B200901A492846FFF7B5FC86B2E0
:1007F000002700241E2E01DD0020FEBD0098602889
:1008000001DD0020F9E7002412E00C2060431149CB
:10081000095A009881420AD10C2060430D494018C2
:100820004088B04203D10C490C80012702E0641CCF
:10083000472CEAD300BF012F07D1074909880C22B2
:100840005143044A881800F02FFA3846D5E70000D3
:1008500040420F00E01400004C00001001218140D4
:10086000034A1268D201D2091143014A116070474C
:10087000C0C1004005490A68012181407F235B0611
:1008800019438A4301490A6070470000C0C1004013
:10089000F0B505076A0E03119D00074EAD192D68CE
:1008A000FF269640B5432C460D46954025439E00B5
:1008B000014FF6193560F0BD00C0004000BF0B4984
:1008C0004A68012181400A4B19438A4307494A601B
:1008D00000BF00BF01218140044A5268DB431A4037
:1008E0001143024A516000BF70470000008004407D
:1008F0000020FEFF064A926B064B1A4011461A462C
:10090000024011436D2212020A43014B9A63704761
:1009100000820440FF8000000146084A926B084BA9
:100920001A4010461A460A400346934318466D2261
:1009300012020243014B9A63704700000082044098
:10094000FF8000000149086370470000C080044038
:1009500010B502494800FFF73DFF10BD80C3C90133
:1009600001468868014A1040704700007FFD010081
:1009700070B50446204600F0F9F805460120A8406D
:100980000C4909680C4A114008430A49086000BF35
:100990000A48844203D10320FFF790FF09E008488A
:1009A000844203D10420FFF789FF02E00520FFF70E
:1009B00085FF70BD80800440FFFFEF2500400640AA
:1009C00000800640F7B50D46164600242F4605E088
:1009D00039780098FFF78EFC7F1C641CB44206DA5D
:1009E0000098FFF7BDFF042108400028F0D1204601
:1009F000FEBDF7B582B00E461546002701960AE007
:100A00002A4601990298FFF7DDFF04462D1B3F1986
:100A1000019800190190002DF2DC384605B0F0BDB8
:100A2000F8B504460D46FFF7F3FD07462901FFF729
:100A300093FB0646701E2062F8BD000010B507202B
:100A4000FFF768FD0B20FFF715FF0C20FFF712FFE3
:100A5000022208210548FFF7B1FE022207210348C0
:100A6000FFF7ACFE0720FFF747FD10BD0040044034
:100A700010B50720FFF74EFD0F216120FFF708FF9B
:100A800018215220FFF704FF19216020FFF700FF13
:100A90001A215320FFF7FCFE0720FFF72DFD10BDA4
:100AA00010B5FFF727FB044600F032FC002803D006
:100AB00001200349000748602046FFF71FFB10BDD7
:100AC00000ED00E010B5FFF761FD0149086010BDC1
:100AD0005000001010B5122001218140054A126813
:100AE000054B1A401143034A116000BFFFF730FF66
:100AF00010BD000080800440FFFFEF2502E008C821
:100B0000121F08C1002AFAD17047002001E001C17C
:100B1000121F002AFBD1704710B5002823D0124BBA
:100B20000022001F196803E0814203D80A46496881
:100B30000029F9D1002A0AD01368841A9C4204D1F2
:100B4000006818181060104602E0506000E018605D
:100B5000002907D002680B1A934203D10B68D21800
:100B600002604968416010BD54000010014606480B
:100B7000814201D10E2070470448814201D10F20EB
:100B8000F9E71020F7E7000000400640008006402B
:100B90001FB500F04DF916A0FFF7A1FB00200123BF
:100BA00001900290009303900346402217A11A4837
:100BB00000F0F2FA002001230190029000930390CC
:100BC0000346402215A1184800F0E6FA0020012350
:100BD00001900290009303900346402213A116480F
:100BE00000F0DAFA00F042FA012004B010BD000073
:100BF0004672656552544F5320626C696E6B792062
:100C00006578616D706C650A0D0000007654617343
:100C10006B4C656431000000330F00007654617343
:100C20006B4C6564320000004D0F00007654617318
:100C30006B4C656430000000190F0000F0B50B30FC
:100C4000C108C900144F0026144A0FE003688B4204
:100C50000BD38B4205D95C1A4318456830C3083B57
:100C600000E04368136002C004E0021D1068002821
:100C7000ECD13046002803D13868002801D000208C
:100C8000F0BD064A06481060064A121AD208D20081
:100C900044C001203860D7E758000010540000100D
:100CA000640100106007001010B504460220FFF731
:100CB00033FE0020FFF712FD0020FFF705FD0120A5
:100CC000144A126900210A460243124B1A6100BFFE
:100CD0008020FFF70FFEA079217AC206D20E8B0783
:100CE0005B0E1A430C4B9A6000BF8020FFF714FE86
:100CF00000BF00BF0848C068C007C00F0028F8D078
:100D0000608905494031886300BF0320FFF7DCFCA0
:100D100010BD0000000004400080044070B50B4C82
:100D2000054620684560E0682168854204D2606B12
:100D3000091D00F026F970BD206B091D00F021F996
:100D4000A06A8542F7D2A56270BD000000000010C5
:100D500070B5134E134C1BE000F0AAF93068002860
:100D60001AD000F035FB00F031F9F068C568281D95
:100D700000F08EF8A068401EA0606068401E6060B1
:100D800000F030F9286B00F03BF9284600F038F904
:100D900060680028E0D170BD00F01AFBF8E70000A1
:100DA000380100100000001007480168C96A0029D6
:100DB00001D000207047054909680129F9D8816AE6
:100DC000C068081A70470000000000105C000010A6
:100DD0000D4D0E4CFFF7BCFF2868012801D900F02B
:100DE0001BF900F067F8FFF7DFFF0228F2D300F0ED
:100DF0005FF9A06AE168884201D272B6FEE7FFF7A8
:100E0000D3FF00F0E5FAE5E75C00001000000010F9
:100E10000648016B0968002905D0016BC968C968DB
:100E20004968816270470021C943FAE70000001059
:100E300010B5FFF747FEFFF7ABFA10BD0348006897
:100E4000401C72B600D0FEE7FEE70000380000103C
:100E500010B5044600F02CF92046FFF7EFFE0446DB
:100E600000F0B6FA002C01D100F026F8204610BDA3
:100E700010B50124031F24061C601B1F1960191FD5
:100E8000024B0B60143940380A6010BD3D0E000063
:100E90004368826801699A60836842685A604A6858
:100EA000824201D182684A60002202610868401EC5
:100EB0000860704730BF704702A0FFF710FA72B6A3
:100EC000FEE700004449453A4552524F523A4672B5
:100ED000656552544F533A204D616C6C6F632046E8
:100EE00061696C757265210D0A0000000C4604A052
:100EF000FFF7F5F92046FFF7F2F972B600BFFEE7FB
:100F0000537461636B204F76657220666C6F772037
:100F1000696E203A00000000002409E0214600200C
:100F2000FFF792FA01204440FF20F53000F080F8EE
:100F3000F4E7002409E021460120FFF785FA0120AB
:100F400044407D20000100F073F8F4E7002409E03C
:100F500021460220FFF778FA012044407D20C0009E
:100F600000F066F8F4E70146083100224160D24300
:100F7000C160826001610021016070470021016150
:100F8000704730B50B685A1C02D00246083202E0A6
:100F9000026904E02246546825689D42FAD95368E4
:100FA0004B6099608A60516008610168491C01606A
:100FB00030BD42684A6093688B6093685960916065
:100FC00008610168491C01607047000072B604485E
:100FD0000168491CBFF34F8FBFF36F8F01607047EB
:100FE0003800001005490868002804D0401E086039
:100FF00000D162B6704772B6FEE7000038000010FC
:1010000010B5040006D000F053F82046FFF784FD29
:1010100000F0DEF910BD000001200449000748601F
:10102000BFF34F8FBFF36F8F7047000000ED00E0FC
:1010300010B5030014D00C4AD06A002801D072B653
:10104000FEE700F035F8D068C4181068001DFFF7FF
:101050001FFF2046FFF762FE00F0BAF9002801D119
:10106000FFF7DAFF10BD0000000000101FB50024DC
:101070000094019402942346402209A10A48039453
:1010800000F08AF8012803D0002808D172B6FEE7E4
:1010900072B6012105484161C46000F057F81FBDD8
:1010A00049444C4500000000D10D00000000001034
:1010B0000248C16A491CC16270470000000000106C
:1010C00070B51F4CE06A002802D00120E06170BDBD
:1010D0000020E061206821680068096B884204D81C
:1010E000216820683431FFF701FF20681422006B6B
:1010F0001449FFF7C6F8144D00280AD0216820686B
:101100003431FFF7F3FE04E0002817D02069401EB9
:101110002061206914214843285800282069F3D011
:10112000484340194168024649680832416091428B
:1011300001D149684160C868206070BD72B6FEE7A1
:1011400000000010781400005C00001010B50E487C
:10115000016AFF22120411430162016A1202114363
:1011600001620A487D21C9000068FEF7F5FF0849C1
:10117000401E486107200861064900200860FEF70C
:10118000A9FF002010BD000000ED00E0500000109D
:1011900000E000E038000010FFB581B001980C9F1E
:1011A0000A9E1446002803D0082E03D372B6FEE729
:1011B00072B6FEE74C20FFF74BFE05001BD0A400E3
:1011C000002F11D038462863002811D0A5222146CF
:1011D000FFF745F8286B241F0019C008C0000090D5
:1011E00040070BD072B6FEE72046FFF731FEEAE774
:1011F0002846FFF705FF0025ED4381E002992C46C4
:101200003746002023180A5C20331A750A5C002A2E
:1012100002D0401C0A28F5D300213D200155082F9B
:1012200000D30727E762201DA764FFF7A7FE20462B
:101230001830FFF7A3FE24610820C01B6462A06180
:10124000049A01990098FFF713FE28600B98002874
:1012500000D00560FFF7BAFE2B4CA068401CA060D0
:101260002068002803D06069002828D02CE0256081
:10127000A068012828D10027142024497843401869
:10128000FFF771FE7F1C082FF6D32048A030FFF730
:101290006AFE1E48B430FFF766FE1C48C830FFF7F0
:1012A00062FE1A48DC30FFF75EFE1848F030FFF7A8
:1012B0005AFE1648A03020631430606304E02068B2
:1012C000C06AB04200D82560606A401C6062286431
:1012D000E86A2169884200D92061142148430B49FA
:1012E0004018291DFFF765FE0125FFF77BFE6069A9
:1012F000002805D02068C06AB04201D2FFF78CFEFA
:10130000284605B0F0BD0000000000105C00001091
:10131000F8B52D4C0026E06A002808D0A069401CD2
:10132000A061E069002800D001263046F8BDE068E1
:10133000401CE060E768002F0ED1206B0068002899
:1013400001D072B6FEE7206B616B21636063206A97
:10135000401C2062FFF75CFDA06A87420AD3206B25
:101360000068002810D0206BC068C5686868874294
:101370000DD2A06220681421C06A4843134908585E
:101380000128CED90126CCE70020C043F1E7281D73
:10139000FFF77EFDA86A002803D028461830FFF723
:1013A00077FDE86A2169884200D920611421484309
:1013B00006494018291DFFF7FCFDE86A2168C96A43
:1013C0008842CCD30126CAE7000000105C00001060
:1013D000F8B5274C0027E06A002808D0FFF7F6FD93
:1013E000E06A401EE062E06A002802D03CE072B68B
:1013F000FEE7A1681F4E00291DD135E0F068C568E1
:1014000028461830FFF744FD281DFFF741FDE86A24
:101410002169884200D92061142148431549C839FF
:101420004018291DFFF7C5FDE86A2168C96A88428E
:1014300001D30120E06130680028DFD1A0690028D5
:101440000CD00125A069002808D0FFF761FF002813
:1014500000D0E561A069401EA061F3E7E0690128C2
:1014600002D10127FFF7D8FDFFF7BCFD3846F8BDD4
:101470000000001024010010A5A5A5A5A5A5A5A5FF
:10148000A5A5A5A5A5A5A5A5A5A5A5A5070D10116B
:10149000131B1C120C01020B001BB7000000000004
:1014A00000000000C027090090051000C05C150076
:1014B000F0B31A00200B2000009F2400E032290026
:1014C000C0C62D0050973100E067350070383900F4
:1014D00000093D004016400080234300C030460014
:1014E0000C000C00C0000000030001000C0006000E
:1014F000C0000000030002000C000400C000000057
:10150000030003000C000300C000000003000400FF
:101510000C000200C0000000030006000C000100E7
:10152000C000000003000C0018001800C0000100FB
:101530000200010018000C00C000010002000200BF
:1015400018000800C0000100020003001800060097
:10155000C00001000200040018000400C0000100E7
:101560000200060018000300C0000100020008008D
:1015700018000200C000010002000C001800010069
:10158000C000010002001800240012002001020027
:101590000200020024000C002001020002000300EF
:1015A00024000900200102000200040024000600BB
:1015B00020010200020006002400040020010200B5
:1015C00002000900240003002001020002000C00B8
:1015D0002400020020010200020012002400010089
:1015E000200102000200240030001800C0000300A7
:1015F0000100020030001000C000030001000300E1
:1016000030000C00C000030001000400300008009E
:10161000C00003000100060030000600C000030007
:101620000100080030000400C000030001000C00AD
:1016300030000300C0000300010010003000020071
:10164000C00003000100180030000100C0000300CA
:10165000010030003C001E00F00004000100020008
:101660003C001400F0000400010003003C000F00E7
:10167000F0000400010004003C000C00F000040035
:10168000010005003C000A00F00004000100060013
:101690003C000600F000040001000A003C000500C8
:1016A000F000040001000C003C000400F000040005
:1016B00001000F003C000300F000040001001400D2
:1016C0003C000200F000040001001E003C0001008C
:1016D000F000040001003C00480018002001050053
:1016E0000100030048001200200105000100040071
:1016F00048000C0020010500010006004800090018
:101700002001050001000800480008002001050034
:1017100001000900480006002001050001000C003E
:1017200048000400200105000100120048000300E9
:1017300020010500010018004800020020010500FA
:1017400001002400480001002001050001004800BC
:1017500054001C00A80006000000030054001500FF
:10176000A80006000000040054000E00A8000600B7
:101770000000060054000C00A8000600000007004E
:1017800054000700A800060000000C0054000600EA
:10179000A800060000000E0054000400A800060087
:1017A0000000150054000300A800060000001C0003
:1017B00054000200A800060000002A0054000100A6
:1017C000A80006000000540060001800C0000700D8
:1017D0000000040060001000C000070000000600C8
:1017E00060000C00C0000700000008006000080056
:1017F000C000070000000C0060000600C0000700E9
:101800000000100060000400C00007000000180085
:1018100060000300C000070000002000600002001C
:10182000C00007000000300060000100C000070099
:101830000000600054180000000000105C00000070
:10184000FC0A0000B01800005C0000100409000051
:101850000A0B000000000000000000000000000073
:101860000000000000000000000000000000000078
:10187000000000000000000000000000FFFFFFFF6C
:10188000000000000000000000000000AAAAAAAAB0
:101890000000000000000000000000000000000048
:1018A0000000000000000000000000000000000038
:04000005000000C136
:00000001FF
