:020000040000FA
:1000000098010010D5000000E5000000DD000000B0
:10001000000000000000000000000000D1FBFFEF26
:10002000000000000000000000000000DF000000F1
:100030000000000000000000E1000000E1090000F5
:10004000E5000000E500000000000000E500000001
:10005000E5000000E500000000000000E5000000F1
:10006000E5000000E5000000E5000000E5000000FC
:10007000E5000000E5000000E5000000E5000000EC
:10008000E5000000E5000000E5000000E5000000DC
:10009000E5000000E5000000E500000000000000B1
:1000A000E5000000E5000000E5000000E5000000BC
:1000B000E5000000E5000000E5000000E5000000AC
:1000C0000348854600F0B8F800480047A10D00003D
:1000D000980100100448804704480047FEE7FEE707
:1000E000FEE7FEE7FEE70000250A0000C100000071
:1000F00030B50B46014600202022012409E00D46C0
:10010000D5409D4205D31D469540491B2546954047
:1001100040191546521E002DF1DC30BDF0B51FB45C
:100120000646002082B005464024019100901BE065
:10013000019922460F46304600F06DF8049A059B5F
:10014000801A994110D310461946224600F053F800
:10015000361A8F410197224601200021009F00F0AE
:100160004AF838184D4100902046641E0028DFDC14
:10017000019B00982946324607B0F0BDF0B51FB488
:1001800086B000200090019002900698069980B2F7
:1001900004900798090C02040014114307900027EB
:1001A000089D099806913E463C4603900398A9B2E3
:1001B0000204000C039004982D0C154348430021C1
:1001C000224600F018F8C719714110340E46402C31
:1001D000ECDB3846029A00F00EF8009A019B80187A
:1001E0000090594102980191103002904028CCDBD8
:1001F00000980BB0F0BD10B5202A04DB0146203A70
:100200009140002010BD914020239C1A0346E340FA
:100210001943904010BD10B5202A04DB0846203A4F
:10022000D040002110BD0B46D340D0402024A21A5C
:1002300091400843194610BD064C0125064E05E0C5
:10024000E36807CC2B430C3C98471034B442F7D3F7
:10025000FFF73AFF84120000A412000010B500F06E
:10026000E5F8154800F018FB0420134A1268134BF8
:100270001A4011460A4602430F4B1A6000BF012183
:100280000F4800F0E3F9E12149020B4800F05EFB62
:1002900000BF0948006809497C3108400121084332
:1002A0000549086000BF00BF08464068054908408E
:1002B0000149486000BF10BD0040064001DAFC0063
:1002C00000C0A8000603010010B5002410E00A4891
:1002D000025D012300210520400700F005FA0648D1
:1002E000025D012300210520400700F010FA641C84
:1002F000082CECDB10BD0000DC0E0000FFFFFFFF50
:1003000010B50D4CFFF7AAFFFF20C13000590B4973
:100310000843FF21C131085100BF0948006809495D
:100320000840402108430649086000BFFFF7CCFFA2
:1003300000F00AF810BD000000C00040CFFEFFFF33
:1003400080800440FFFFEF2570B50A4D00240DE0CA
:100350000948025D002319460520400700F0C4F952
:1003600080200649095D89006850641C022CEFDB7F
:1003700070BD000000400440E40E0000E60E0000E6
:1003800070B504460D46082C09DA01206840034682
:100390000348025D00210520400700F0B8F970BD58
:1003A000DC0E000070B508280DDA0521490700228F
:1003B000054C235C01249C409500232636028E19AF
:1003C000745100BF00BF70BDDC0E000010B50446C4
:1003D00003E02078641C00F005F820780028F8D1AC
:1003E00010BD000001B5684600780A2810D10D48FC
:1003F00000780D280CD00D200A49087001220A4807
:1004000000F08BFA01226946074800F086FA08E0FE
:1004100001226946044800F080FA684600780149E4
:10042000087008BD0C0000100040064010B5072001
:1004300001218140134A1268134B1A401143114A9B
:10044000116000BF062000F0ABF9072000F0A8F90A
:1004500001200C49486100BF0821002000F0ACF9E0
:100460000921012000F0A8F9072006490A680121A6
:100470008140054BDB4319438A4302490A6000BFB0
:1004800010BD000080800440FFFFEF2510B5002460
:100490000F48006B8007800F002806D0012808D085
:1004A00002280AD0032810D10BE000BF09480446F7
:1004B0000BE000F027F8044607E000F0A9F8044636
:1004C00003E000F045F8044600BF00BF204610BD21
:1004D00040800440001BB7000246D006C00E431CFB
:1004E000084658437047000010B5FFF7CFFF044699
:1004F0000348806BC1B22046FFF7FAFD10BD000033
:10050000408004400E4909688907890F002904D0FA
:10051000012906D003290ED108E000BF094800BF19
:100520000BE000BF0849086800BF06E000BF0749AC
:10053000086800BF01E0002000BF00BF7047000056
:1005400040800440001BB700E80E0000EC0E0000E5
:1005500010B5FFF7D7FF0446034989684806400EE7
:100560002146FFF7B9FF10BD00800440F0B589B007
:1005700000BF1E484069C0B205900598002801D10F
:1005800000242FE0FFF782FF02900599FFF7B0FDEE
:100590000025044600BF15484030006BC0B20390F0
:1005A0000398FF281DD100BF10484030406BC0B2F7
:1005B00004900498FF300130FF21013102900020A7
:1005C00026462F460791069030463946069B079AE5
:1005D000FFF7D4FD019100900023029AFFF79EFDE2
:1005E000044600BF204609B0F0BD000080800440F2
:1005F00070B50446E005060FE506ED0E6A1C5100D5
:10060000B200024B9858FFF773FD70BDF00E00006A
:1006100010B50349496AC805C00DFFF7E9FF10BDD1
:1006200000800440034908630021024A516301210C
:100630005163704740800440034908600021024A2A
:10064000516001215160704740800440FEB505466D
:100650000E46FFF71BFF019029460198FFF748FD62
:100660000446002C00D10124E0B21D49486100BFBE
:10067000002E2FD0022000BF194980394A6801217D
:100680008140184B19438A43154980394A6000BF9D
:1006900000BF01218140124A803A5268DB431A4070
:1006A00011430F4A803A516000BF00BFFF2000F0A5
:1006B000DDF821460198FFF71BFD07022946384661
:1006C000FFF716FD00900099C8B205494031486314
:1006D00000BF02E0002000F0C9F8FFF747FFFEBDB1
:1006E000808004400020FEFF70B5002B07D001245D
:1006F00094408D004726F6018619745106E00124C6
:1007000094408D000926B6028619745170BD10B54B
:100710004C012418A35410BDF3B581B00D461D49FA
:100720000198FFF7E5FC80B200901A492846FFF7D0
:10073000DFFC86B2002700241E2E01DD0020FEBD56
:100740000098602801DD0020F9E7002412E00C2069
:1007500060431149095A009881420AD10C20604334
:100760000D4940184088B04203D10C490C80012744
:1007700002E0641C472CEAD300BF012F07D10749D0
:1007800009880C225143044A881800F06DFB384652
:10079000D5E7000040420F00300F000010000010AD
:1007A00001218140034A1268D201D2091143014A52
:1007B00011607047C0C10040F0B505076A0E031113
:1007C0009D00074EAD192D68FF269640B5432C4677
:1007D0000D46954025439E00014FF6193560F0BD4A
:1007E00000C0004000BF0B494A68012181400A4B0C
:1007F00019438A4307494A6000BF00BF0121814075
:10080000044A5268DB431A401143024A516000BF58
:1008100070470000008004400020FEFF064A926BF3
:10082000064B1A4011461A46024011436D2212022D
:100830000A43014B9A63704700820440FF80000026
:100840000146084A926B084B1A4010461A460A4065
:100850000346934318466D2212020243014B9A63EA
:100860007047000000820440FF80000001490863D7
:1008700070470000C080044010B502494800FFF7EF
:100880004BFF10BD80C3C90101468868014A104072
:10089000704700007FFD010070B50446204600F05F
:1008A0006DFA05460120A8400C4909680C4A114020
:1008B00008430A49086000BF0A48844203D1032064
:1008C000FFF790FF09E00848844203D10420FFF7B6
:1008D00089FF02E00520FFF785FF70BD808004409E
:1008E000FFFFEF250040064000800640F7B50D46AB
:1008F000164600242F4605E03978009800F024F8C9
:100900007F1C641CB44206DA0098FFF7BDFF042187
:1009100008400028F0D12046FEBDF7B582B00E4653
:100920001546002701960AE02A4601990298FFF72A
:10093000DDFF04462D1B3F19019800190190002D81
:10094000F2DC384605B0F0BDC1617047F8B5044629
:100950000D46FFF70BFE07462901FFF7C9FB0646C8
:10096000701E2062F8BD000010B5002819DA1A4A7E
:1009700003071B0F083B9B089B00D2588307DC0E24
:10098000FF23A3409A438B071B0E8407E40EA3406A
:100990001A43114B0407240F083CA408A4001A5161
:1009A00018E00E4A03231B02D21883089B00D2587A
:1009B0008307DC0EFF23A3409A438B071B0E84079B
:1009C000E40EA3401A43054B032424021B19840898
:1009D000A4001A5110BD00001CED00E000E100E091
:1009E00010B50020FFF7DEFC0120FFF7DBFC022042
:1009F000FFF7D8FC0320FFF7D5FC0420FFF7D2FC5B
:100A00000520FFF7CFFC0620FFF7CCFC0720FFF7FF
:100A1000C9FC10BD10B5FFF767FD0149086010BDA6
:100A20001400001010B5122001218140054A1268FF
:100A3000054B1A401143034A116000BFFFF71CFF2A
:100A400010BD000080800440FFFFEF250FB410B5FB
:100A500003A9044B044A029800F018F810BC08BC23
:100A600004B01847690D00000000001002E008C83B
:100A7000121F08C1002AFAD170477047002001E018
:100A800001C1121F002AFBD170470000FFB58FB0D3
:100A90000F460446002606E025280AD0129A11992E
:100AA0009047641C761C20780028F5D1304613B09E
:100AB000F0BD00250121A14A009500E00543641C1A
:100AC00023780846203B98401042F7D120782E2802
:100AD00015D1042005436078641C2A280AD101CF6F
:100AE000641C00900BE000990A22514330394018F1
:100AF000641C00902078014630390929F3D9207808
:100B00006C280ED004DC4C2813D06A2812D104E0E3
:100B100074280ED07A280DD10BE001204005054342
:100B200007E00121090562780D43824201D16D1869
:100B3000641C641C2078864669284AD008DC00289A
:100B4000B4D058286DD0632810D0642808D140E074
:100B500070286BD0732812D0752860D0782860D0A8
:100B6000129A704611999047761CE5E038786946EC
:100B700008720020487202A80190012003E0386842
:100B800001900020C0433F1D69070CD5002500E0FF
:100B90006D1C00998D420FDA8542F9DB0199495DA0
:100BA0000029F5D108E0002500E06D1C8542FCDB42
:100BB0000199495D0029F8D1761907E0019801995A
:100BC0000078491C0191129A119990476D1EF5D237
:100BD000B2E00A20029000216802400F039102282F
:100BE0000CD001CFC117844600290DDA62460846B1
:100BF00052420021814194462D2008E0FF1DFF084C
:100C0000FF0003CF8446EFE7280504D52B206A4672
:100C1000107401203CE0E8073AD02020F7E70A20D2
:100C200000E0102000210391029007E010200290C4
:100C30000021042005430820039100906802400F22
:100C4000022810D001CF0021844600200D902807F3
:100C50001FD5704670280CD0029A1020039B42408A
:100C60001A430CD015E0FF1DFF08FF0003CF844698
:100C7000EBE740206A46107401200D900CE06046BE
:100C8000084306D030206A46107470465074022023
:100C90000D907046582804D029A001900DA80E9000
:100CA0000DE02CA0F9E76046039B029AFFF736FAA5
:100CB000019B84469B5C0E9A521E0E9213706046F6
:100CC0000843F0D10E9805A9081A20300190680752
:100CD00001D5009801E0012000900199884203DDD0
:100CE00001460198081A00E000200025009006E067
:100CF00004A8129A405D119990476D1C761C0D98BE
:100D00008542F5DB04E0129A302011999047761C59
:100D10000099481E00900029F5DC08E00E980E9915
:100D20000078491C0E91129A11999047761C0199EE
:100D3000481E01900029F1DC641CB4E6092801007A
:100D40003031323334353637383961626364656641
:100D50000000000030313233343536373839414203
:100D6000434445460000000070B504460E46E5B217
:100D70002846FFF737FB00BF002070BD014606483C
:100D8000814201D10E2070470448814201D10F20D9
:100D9000F9E71020F7E70000004006400080064019
:100DA000FFF738FEFFF7ACFA19A0FFF70FFB1E495B
:100DB0001E480068FFF79CF9044621461CA0FFF777
:100DC00045FE00BF2048806B044621461FA0FFF768
:100DD0003DFE00210846FFF7D3FA0A2113480068B8
:100DE000FFF786F90446601E1D49884200D90CE0D1
:100DF000601E1C4948610321081FFFF7B5FD002054
:100E0000184988610720086100BF00E030BFFDE796
:100E1000426C696E6B792073657175656E6365727E
:100E20002064656D6F0D0A0040420F001400001031
:100E300053797374656D20436C6F636B3A2025752D
:100E40004D487A0D0A000000C0830440446576696D
:100E500063652049443A20307825780D0A00000067
:100E6000FFFFFF0000E000E010B504460220FFF79E
:100E7000E7FC0020FFF7E0FB0020FFF7D3FB012099
:100E8000144A126900210A460243124B1A6100BF3C
:100E90008020FFF7C3FCA079217AC206D20E8B070F
:100EA0005B0E1A430C4B9A6000BF8020FFF7C8FC12
:100EB00000BF00BF0848C068C007C00F0028F8D0B6
:100EC000608905494031886300BF0320FFF7AAFB12
:100ED00010BD00000000044000800440070D101108
:100EE000131B1C120C01020B001BB70000000000BA
:100EF00000000000C027090090051000C05C15002C
:100F0000F0B31A00200B2000009F2400E0322900DB
:100F1000C0C62D0050973100E067350070383900A9
:100F200000093D004016400080234300C0304600C9
:100F30000C000C00C0000000030001000C000600C3
:100F4000C0000000030002000C000400C00000000C
:100F5000030003000C000300C000000003000400B5
:100F60000C000200C0000000030006000C0001009D
:100F7000C000000003000C0018001800C0000100B1
:100F80000200010018000C00C00001000200020075
:100F900018000800C000010002000300180006004D
:100FA000C00001000200040018000400C00001009D
:100FB0000200060018000300C00001000200080043
:100FC00018000200C000010002000C00180001001F
:100FD000C0000100020018002400120020010200DD
:100FE0000200020024000C002001020002000300A5
:100FF0002400090020010200020004002400060071
:10100000200102000200060024000400200102006A
:1010100002000900240003002001020002000C006D
:10102000240002002001020002001200240001003E
:10103000200102000200240030001800C00003005C
:101040000100020030001000C00003000100030096
:1010500030000C00C0000300010004003000080054
:10106000C00003000100060030000600C0000300BD
:101070000100080030000400C000030001000C0063
:1010800030000300C0000300010010003000020027
:10109000C00003000100180030000100C000030080
:1010A000010030003C001E00F000040001000200BE
:1010B0003C001400F0000400010003003C000F009D
:1010C000F0000400010004003C000C00F0000400EB
:1010D000010005003C000A00F000040001000600C9
:1010E0003C000600F000040001000A003C0005007E
:1010F000F000040001000C003C000400F0000400BB
:1011000001000F003C000300F00004000100140087
:101110003C000200F000040001001E003C00010041
:10112000F000040001003C00480018002001050008
:101130000100030048001200200105000100040026
:1011400048000C00200105000100060048000900CD
:1011500020010500010008004800080020010500EA
:1011600001000900480006002001050001000C00F4
:10117000480004002001050001001200480003009F
:1011800020010500010018004800020020010500B0
:101190000100240048000100200105000100480072
:1011A00054001C00A80006000000030054001500B5
:1011B000A80006000000040054000E00A80006006D
:1011C0000000060054000C00A80006000000070004
:1011D00054000700A800060000000C0054000600A0
:1011E000A800060000000E0054000400A80006003D
:1011F0000000150054000300A800060000001C00B9
:1012000054000200A800060000002A00540001005B
:10121000A80006000000540060001800C00007008D
:101220000000040060001000C0000700000006007D
:1012300060000C00C000070000000800600008000B
:10124000C000070000000C0060000600C00007009E
:101250000000100060000400C0000700000018003B
:1012600060000300C00007000000200060000200D2
:10127000C00007000000300060000100C00007004F
:1012800000006000A4120000000000101800000020
:101290006C0A0000BC120000180000108001000061
:1012A0007C0A0000000000000000000000000000B8
:0C12B00000000000000000000000000032
:04000005000000C136
:00000001FF
