:020000040000FA
:1000000060060010D5000000E5000000DD000000E3
:1000100000000000000000000000000009F7FFEFF2
:10002000000000000000000000000000DF000000F1
:100030000000000000000000E1000000E3000000FC
:10004000E5000000E500000000000000E500000001
:10005000E5000000E50000000000000015070000BA
:1000600001070000E5000000E5000000E5000000D9
:10007000E5000000E5000000E5000000E5000000EC
:10008000E5000000E5000000E5000000E5000000DC
:10009000E5000000E5000000E500000000000000B1
:1000A000E5000000E5000000E5000000E5000000BC
:1000B000E5000000E5000000E5000000E5000000AC
:1000C0000348854600F02AF800480047150A00005A
:1000D000600600100448804704480047FEE7FEE73A
:1000E000FEE7FEE7FEE7000099090000C1000000FE
:1000F00030B50B46014600202022012409E00D46C0
:10010000D5409D4205D31D469540491B2546954047
:1001100040191546521E002DF1DC30BD064C01255C
:10012000064E05E0E36807CC2B430C3C984710349F
:10013000B442F7D3FFF7C8FFC00F0000E00F000084
:1001400070B508280DDA052149070022054C235C0B
:1001500001249C409500232636028E19745100BF5D
:1001600000BF70BD180C000010B500240F48006BD4
:100170008007800F002806D0012808D002280AD066
:10018000032810D10BE000BF094804460BE000F043
:1001900027F8044607E000F067F8044603E000F0A3
:1001A00045F8044600BF00BF204610BD4080044013
:1001B000001BB7000246D006C00E431C0846584339
:1001C0007047000010B5FFF7CFFF04460348806B6F
:1001D000C1B22046FFF78CFF10BD000040800440F4
:1001E0000E4909688907890F002904D0012906D022
:1001F00003290ED108E000BF094800BF0BE000BF93
:100200000849086800BF06E000BF0749086800BF4A
:1002100001E0002000BF00BF7047000040800440A4
:10022000001BB700240C0000280C000010B5FFF7DD
:10023000D7FF0446034989684806400E2146FFF768
:10024000B9FF10BD0080044070B50446E005060FFC
:10025000E506ED0E6A1C5100B200024B9858FFF7FC
:1002600047FF70BD2C0C000010B50349496AC80552
:10027000C00DFFF7E9FF10BD00800440034908638B
:100280000021024A516301215163704740800440BC
:1002900002460020002A01D001231843002901D082
:1002A00002231843014B186270470000008004408D
:1002B000034908600021024A5160012151607047E2
:1002C0004080044070B5002B07D0012494408D007D
:1002D0004726F6018619745106E0012494408D00EA
:1002E0000926B6028619745170BD10B54C01241848
:1002F000A35410BD50220A4042607047FFFFFFFF29
:10030000042101627047F8B505460E4600BF6869D2
:1003100080B2401C70430746FFF754FF39460090F7
:10032000FFF7E6FE04466008201A82B2E003010CE3
:10033000284600F001F8F8BD10B5022901DA0221C3
:1003400002E0092900DD0921022A01DA022202E085
:10035000092A00DD09228B1E5B075B0E941E6407D1
:10036000640F2343436210BD8162704770B5054638
:100370000C46FF20A08150212846FFF7BBFFA07B41
:1003800040002289002A01D1012200E0002210430E
:10039000C1B22846FFF7E8FF00BF0220286200BF75
:1003A00070BD000070B505460C4600BF68683F4947
:1003B0000840064610203040002806D00520A081C5
:1003C00010212846FFF796FF69E0402030400028C2
:1003D00006D00320A08140212846FFF78BFF5EE076
:1003E000F007C00F002858D000BF68680E210840F1
:1003F0004008030000F0EAFA0504051C41474D00DF
:100400004AE0A86AC1B26268501C606011706089DD
:10041000401E60816089002804D000BF012028624E
:1004200000BF04E00020A0812846FFF769FF33E009
:10043000208900280CD02168481C20600878A86218
:100440002089401E208100BF0120286200BF13E0E8
:10045000608900280BD0A07B4000401CC1B2284618
:10046000FFF782FF00BF0220286200BF04E00020E7
:10047000A0812846FFF744FF0EE00220A081284615
:10048000FFF73EFF08E00420A0812846FFF738FF71
:1004900002E00120A08100BF01E00120A081A0892D
:1004A000FF2801D0012070BD0020FCE75FFF0F0393
:1004B000F8B504460D46002700BFA069284908404A
:1004C0000121C9030840002806D0084601406160A8
:1004D00000BFE868804734E000BF6068032149023C
:1004E0000840460A00BF002E04D0012E15D0022E6F
:1004F00026D11CE000BF6168032212031140080BE3
:1005000000BF81002246483251580906490E009129
:10051000684600782968884712E000BF606CC0B266
:10052000009068460078A9688847074608E0684652
:1005300069688847074669460878606400BF00BF5D
:1005400000BF002F04D100BF0120206400BF04E0E1
:1005500000BF0220206400BF00BF3846F8BD000085
:1005600051890B038160704701468869014A104038
:100570007047000051890B0370B50546284600F00E
:10058000E1F804460120A04013490968134A1140CC
:1005900008431149086000BF284600F0EDF8044602
:1005A00020460D4980394A68012181400C4B19438E
:1005B0008A43094980394A6000BF00BF0121814058
:1005C000054A803A5268DB431A401143024A803A96
:1005D000516000BF00BF70BD80800440FFFFEF2569
:1005E0000020FEFF30B58C00045903252D02AC43DA
:1005F000234614021C438D00445130BD05490A684E
:10060000012181407F235B0619438A4301490A6027
:1006100070470000C0C10040F0B505076A0E031125
:100620009D00074EAD192D68FF269640B5432C4618
:100630000D46954025439E00014FF6193560F0BDEB
:1006400000C00040064A926B064B1A4011461A46FB
:10065000024011436D2212020A43014B9A63704714
:1006600000820440FF8000000146084A926B084B5C
:100670001A4010461A460A400346934318466D2214
:1006800012020243014B9A6370470000008204404B
:10069000FF80000010B500210846FFF7F9FD20207B
:1006A000FFF7E2FF0120FFF703FE0120124A126963
:1006B00000210A460243104B1A6100BF8020FFF759
:1006C000C1FF042001214A0102430C4B9A6000BF84
:1006D0008020FFF7C9FF00BF00BF0848C068C007FF
:1006E000C00F0028F8D0022004494031886300BFC1
:1006F0000320FFF7C3FD10BD00000440008004404C
:1007000010B502490248FFF74DFE10BD0800001069
:100710000000054010B50948FFF726FF044607E032
:1007200007490648FFF7C4FE0448FFF71DFF0446CB
:100730008120000220400028F2D110BD0040054079
:10074000080C000001460A460A481018002808D084
:1007500007239B03C01A06D001239B03C01A06D1AE
:1007600003E0152070471620FCE71720FAE7052064
:10077000F8E7000000C0FABF01460A460A48101810
:10078000002808D007239B03C01A06D001239B032F
:10079000C01A06D103E00E2070470F20FCE710209E
:1007A000FAE70620F8E7000000C0FABF10B50720FE
:1007B00001218140164A1268164B1A401143144A0F
:1007C000116000BF0B20FFF719FF0C20FFF716FF89
:1007D0000D219120FFF720FF11219220FFF71CFF30
:1007E000022208210C48FFF7FDFE022207210A48D9
:1007F000FFF7F8FE072006490A6801218140054BF2
:10080000DB4319438A4302490A6000BF10BD000060
:1008100080800440FFFFEF2500400440C206D20E56
:1008200001219140014A11607047000000E100E0A1
:1008300010B5002819DA1A4A03071B0F083B9B085A
:100840009B00D2588307DC0EFF23A3409A438B07FB
:100850001B0E8407E40EA3401A43114B0407240F18
:10086000083CA408A4001A5118E00E4A03231B02F6
:10087000D21883089B00D2588307DC0EFF23A340C5
:100880009A438B071B0E8407E40EA3401A43054BC3
:10089000032424021B198408A4001A5110BD00006F
:1008A0001CED00E000E100E0034619605A60002002
:1008B000D860186198607047F8B504460D46002668
:1008C00000F092F80746012000F0A0F8A068002888
:1008D0000DD0E1682068405C2870E268501C6168B7
:1008E000FFF706FCE160A068401EA06001263846C4
:1008F00000F08CF83046F8BDF8B504460D460026E9
:1009000000F072F80746012000F080F86168A068E6
:1009100088420DD228782269216888542269501CA7
:100920006168FFF7E5FB2161A068401CA06001261B
:10093000384600F06BF83046F8BD0000F8B50446C4
:100940000D4616461F460E48847300200C498881C8
:1009500008460681069848810846056047600948B0
:10096000FFF704FD51210748FFF7FCFD044800F0A4
:1009700027F8512000BF0349C86000BF00BFF8BD81
:10098000080000100000054010B5FFF71BFC0149EE
:10099000086010BD0400001010B512200121814034
:1009A000054A1268054B1A401143034A116000BF03
:1009B000FFF770FE10BD000080800440FFFFEF25B0
:1009C00000E030BF8189FF29FBD0704730B4744606
:1009D000641E2578641CAB4204D3635D5B00E3189E
:1009E00030BC18471D46F8E7EFF31080704702E06F
:1009F00008C8121F08C1002AFAD1704770470020AA
:100A000001E001C1121F002AFBD1704780F310885A
:100A10007047000008B50025FFF7B6FFFF229132AE
:100A200037493848FFF740FF01230C2200210520F9
:100A30004007FFF747FC01230C2200210520400757
:100A4000FFF753FC01231022002105204007FFF788
:100A500039FC01231022002105204007FFF745FC47
:100A6000FFF7A4FE00F06CF800F090F80820FFF704
:100A7000D5FE0720FFF7D2FE03210820FFF7D8FE9E
:100A800001210720FFF7D4FE002402E01E490C5587
:100A9000641CFF2091308442F8D300200346FF22DB
:100AA0009132194900905020FFF748FF002400E0E0
:100AB000641C642CFCD3FF209130144B002211469F
:100AC00000905020FFF73AFF00240BE00F48005D34
:100AD0000D49095D884204D001250020FFF730FB55
:100AE00004E0641CFF2091308442EFD300BF002D4E
:100AF00002D10120FFF724FB00E030BFFDE700003A
:100B000018000010C8040010A801001038030010DD
:100B10007047000001B569460248FFF7EDFE00206E
:100B200008BD0000C804001010B504462146024864
:100B3000FFF7C2FE002010BDC8040010704700007F
:100B400010B51048FFF718FD2820002807D0012114
:100B50000904884203D8411E0A4A516102E000217B
:100B6000084A516100BF08490648FFF7CCFB00BFA7
:100B700004480068C006C00E01210843014908600E
:100B800000BF10BD00000540A086010070B51D48E3
:100B9000FFF7F2FC1B480021502254008D00034651
:100BA00048335C5100BF08464000002901D00122B3
:100BB0001043144A906500BF104600218B00024686
:100BC0004832D258D2B253085B008C0002464832F9
:100BD000135100BF0120C00301460140094A516082
:100BE00000BF812109021046FFF7BCFC00BF054889
:100BF0000068C006C00E022108430249086000BF19
:100C000070BD0000004005403D0B0000290B0000B6
:100C1000150B0000110B0000070D1011131B1C1207
:100C20000C01020B001BB7000000000000000000D8
:100C3000C027090090051000C05C1500F0B31A0031
:100C4000200B2000009F2400E0322900C0C62D00A8
:100C500050973100E06735007038390000093D00D9
:100C60004016400080234300C03046000C000C00BA
:100C7000C0000000030001000C000600C0000000DE
:100C8000030002000C000400C00000000300030089
:100C90000C000300C0000000030004000C00020070
:100CA000C0000000030006000C000100C0000000AE
:100CB00003000C0018001800C00001000200010031
:100CC00018000C00C000010002000200180008001B
:100CD000C00001000200030018000600C00001006F
:100CE0000200040018000400C00001000200060019
:100CF00018000300C00001000200080018000200F4
:100D0000C000010002000C0018000100C00001003A
:100D1000020018002400120020010200020002005C
:100D200024000C002001020002000300240009003E
:100D3000200102000200040024000600200102003D
:100D40000200060024000400200102000200090045
:100D5000240003002001020002000C002400020015
:100D60002001020002001200240001002001020004
:100D70000200240030001800C0000300010002003F
:100D800030001000C00003000100030030000C0020
:100D9000C00003000100040030000800C000030090
:100DA0000100060030000600C0000300010008003A
:100DB00030000400C000030001000C0030000300FC
:100DC000C00003000100100030000200C00003005A
:100DD0000100180030000100C000030001003000D5
:100DE0003C001E00F0000400010002003C00140062
:100DF000F0000400010003003C000F00F0000400BC
:100E0000010004003C000C00F0000400010005009B
:100E10003C000A00F0000400010006003C0006004F
:100E2000F000040001000A003C000500F00004008E
:100E300001000C003C000400F000040001000F0061
:100E40003C000300F0000400010014003C0002001C
:100E5000F000040001001E003C000100F00004004E
:100E600001003C00480018002001050001000300BB
:100E700048001200200105000100040048000C0099
:100E800020010500010006004800090020010500BE
:100E900001000800480008002001050001000900C9
:100EA000480006002001050001000C004800040075
:100EB0002001050001001200480003002001050088
:100EC0000100180048000200200105000100240074
:100ED00048000100200105000100480054001C00EA
:100EE000A80006000000030054001500A80006003A
:100EF0000000040054000E00A800060000000600D8
:100F000054000C00A8000600000007005400070071
:100F1000A800060000000C0054000600A80006000F
:100F200000000E0054000400A80006000000150098
:100F300054000300A800060000001C00540002003A
:100F4000A800060000002A0054000100A8000600C6
:100F50000000540060001800C000070000000400FA
:100F600060001000C00007000000060060000C00D8
:100F7000C00007000000080060000800C000070073
:100F800000000C0060000600C00007000000100018
:100F900060000400C00007000000180060000300AB
:100FA000C00007000000200060000200C000070031
:100FB0000000300060000100C00007000000600079
:100FC000E00F00000000001008000000EE09000023
:100FD000E80F00000800001058060000FE0900009D
:080FE000000000000000000009
:04000005000000C136
:00000001FF
