:020000040000FA
:10000000C8010010D5000000E5000000DD00000080
:10001000000000000000000000000000A1FBFFEF56
:10002000000000000000000000000000DF000000F1
:100030000000000000000000E10000004D0B000087
:10004000E5000000E500000000000000E500000001
:10005000E5000000E500000000000000E5000000F1
:10006000E5000000E5000000E5000000E5000000FC
:10007000E5000000E5000000E5000000E5000000EC
:10008000E5000000E5000000E5000000E5000000DC
:10009000E5000000E5000000E500000000000000B1
:1000A000E5000000E5000000E5000000E5000000BC
:1000B000E5000000E5000000E5000000E5000000AC
:1000C0000348854600F0CCF800480047F90B0000D3
:1000D000C80100100448804704480047FEE7FEE7D7
:1000E000FEE7FEE7FEE70000910B0000C100000004
:1000F00030B50B46014600202022012409E00D46C0
:10010000D5409D4205D31D469540491B2546954047
:1001100040191546521E002DF1DC30BD70B500248B
:100120002546002801DA01244042002901DA012590
:100130004942FFF7DDFFAC4200D04042002C00D026
:10014000494270BDF0B51FB40646002082B0054696
:100150004024019100901BE0019922460F46304651
:1001600000F06DF8049A059B801A994110D310464F
:100170001946224600F053F8361A8F41019722465D
:1001800001200021009F00F04AF838184D410090EE
:100190002046641E0028DFDC019B00982946324679
:1001A00007B0F0BDF0B51FB486B0002000900190FC
:1001B00002900698069980B204900798090C0204F0
:1001C0000014114307900027089D099806913E46A8
:1001D0003C4603900398A9B20204000C03900498D3
:1001E0002D0C154348430021224600F018F8C7198A
:1001F000714110340E46402CECDB3846029A00F078
:100200000EF8009A019B80180090594102980191C4
:10021000103002904028CCDB00980BB0F0BD10B538
:10022000202A04DB0146203A9140002010BD914075
:1002300020239C1A0346E3401943904010BD10B59B
:10024000202A04DB0846203AD040002110BD0B468E
:10025000D340D0402024A21A91400843194610BD33
:10026000064C0125064E05E0E36807CC2B430C3C09
:1002700098471034B442F7D3FFF726FF2816000042
:100280004816000010B500F0D7F8154800F068FBDC
:100290000420134A1268134B1A4011460A460243BF
:1002A0000F4B1A6000BF01210F4800F02DFAE12129
:1002B00049020B4800F0AEFB00BF0948006809493D
:1002C0007C310840012108430549086000BF00BF98
:1002D00008464068054908400149486000BF10BD14
:1002E0000080064001DAFC0000C0A80006030100FF
:1002F00010B54C012418A35410BD7047FFFFFFFF39
:1003000010B5094CFFF7BEFF00BF08480068084958
:100310000840402108430549086000BF00F026F866
:1003200000F008F810BD000000C0004080800440CC
:10033000FFFFEF2570B50A4D00240DE00948025D6E
:10034000002319460520400700F02CFA80200649BA
:10035000095D89006850641C022CEFDB70BD000051
:1003600000400440401200004212000010B500247A
:1003700010E00A48025D012300210520400700F03B
:1003800011FA0648025D0123002105204007FFF70E
:10039000AFFF641C082CECDB10BD0000381200001D
:1003A00070B504460D46082C09DA01206840034662
:1003B0000348025D002105204007FFF799FF70BD4B
:1003C0003812000001B501226946024800F009FB1D
:1003D00008BD00000080064010B5044603E0207808
:1003E000641C00F005F820780028F8D110BD00004A
:1003F00001B5684600780A2810D10D4800780D280C
:100400000CD00D200A49087001220A4800F0E9FAD0
:1004100001226946074800F0E4FA08E00122694633
:10042000044800F0DEFA684600780149087008BD0B
:10043000180000100080064010B5072001218140FF
:10044000134A1268134B1A401143114A116000BF3E
:10045000062000F009FA072000F006FA01200C49F6
:10046000486100BF0821112000F00AFA092112207A
:1004700000F006FA072006490A6801218140054B71
:10048000DB4319438A4302490A6000BF10BD0000E4
:1004900080800440FFFFEF25FEB507460D46164657
:1004A0002C460295022E01DB242E03DD002028704D
:1004B0002846FEBD00BF009731463846FFF72EFEA6
:1004C0000746394671430098401A23301049085CAA
:1004D0002070641C002FEED10098002802DA2D2035
:1004E0002070641C00202070641E0BE020780190B6
:1004F000029800782070641E029901980870029892
:10050000401C02900298A042F0D32846D1E7000098
:10051000E015000001218140034A1268034B1A4094
:100520001143014A1160704780800440FFFFEF25AE
:1005300010B500240F48006B8007800F002806D0FC
:10054000012808D002280AD0032810D10BE000BFF0
:10055000094804460BE000F027F8044607E000F0E5
:10056000A9F8044603E000F045F8044600BF00BFC8
:10057000204610BD40800440001BB7000246D00654
:10058000C00E431C084658437047000010B5FFF7E3
:10059000CFFF04460348806BC1B22046FFF7A8FD99
:1005A00010BD0000408004400E4909688907890F8A
:1005B000002904D0012906D003290ED108E000BF8C
:1005C000094800BF0BE000BF0849086800BF06E00B
:1005D00000BF0749086800BF01E0002000BF00BF5E
:1005E0007047000040800440001BB7004412000028
:1005F0004812000010B5FFF7D7FF04460349896889
:100600004806400E2146FFF7B9FF10BD00800440A8
:10061000F0B589B000BF1E484069C0B2059005988A
:10062000002801D100242FE0FFF782FF02900599F6
:10063000FFF75EFD0025044600BF15484030006B03
:10064000C0B203900398FF281DD100BF104840306E
:10065000406BC0B204900498FF300130FF2101319B
:100660000290002026462F460791069030463946D4
:10067000069B079AFFF796FD019100900023029ACE
:10068000FFF760FD044600BF204609B0F0BD000042
:100690008080044070B50446E005060FE506ED0EC7
:1006A0006A1C5100B200024B9858FFF721FD70BD43
:1006B0004C12000010B50349496AC805C00DFFF788
:1006C000E9FF10BD00800440044A10620022034B81
:1006D0005A6201225A621A4691627047C0800440F1
:1006E000034908630021024A5163012151637047A5
:1006F00040800440034908600021024A5160012102
:100700005160704740800440FEB505460E46FFF735
:100710000FFF019029460198FFF7EAFC0446002CE0
:1007200000D10124E0B21D49486100BF002E2FD046
:10073000022000BF194980394A6801218140184BC5
:1007400019438A43154980394A6000BF00BF01211F
:100750008140124A803A5268DB431A4011430F4AE3
:10076000803A516000BF00BFFF2000F0E3F821464F
:100770000198FFF7BDFC070229463846FFF7B8FC91
:1007800000900099C8B205494031486300BF02E0BB
:10079000002000F0CFF8FFF73BFFFEBD8080044053
:1007A0000020FEFF70B5002B07D0012494408D007F
:1007B0004726F6018619745106E0012494408D0005
:1007C0000926B6028619745170BD30B58C000459E3
:1007D0001825AC432346D4001C438D00445130BD42
:1007E000F3B581B00D461D490198FFF781FC80B239
:1007F00000901A492846FFF77BFC86B200270024A8
:100800001E2E01DD0020FEBD0098602801DD0020C5
:10081000F9E7002412E00C2060431149095A0098BE
:1008200081420AD10C2060430D4940184088B042F3
:1008300003D10C490C80012702E0641C472CEAD349
:1008400000BF012F07D1074909880C225143044AF0
:10085000881800F04DFA3846D5E7000040420F00F6
:100860008C1200001C00001001218140034A126814
:10087000D201D2091143014A11607047C0C1004042
:10088000F0B505076A0E03119D00074EAD192D68DE
:10089000FF269640B5432C460D46954025439E00C5
:1008A000014FF6193560F0BD00C0004000BF0B4994
:1008B0004A68012181400A4B19438A4307494A602B
:1008C00000BF00BF01218140044A5268DB431A4047
:1008D0001143024A516000BF70470000008004408D
:1008E0000020FEFF064A926B064B1A4011461A463C
:1008F000024011436D2212020A43014B9A63704772
:1009000000820440FF8000000146084A926B084BB9
:100910001A4010461A460A400346934318466D2271
:1009200012020243014B9A637047000000820440A8
:10093000FF8000000149086370470000C080044048
:1009400010B502494800FFF74BFF10BD80C3C90135
:1009500001468868014A1040704700007FFD010091
:1009600070B50446204600F035F905460120A84040
:100970000C4909680C4A114008430A49086000BF45
:100980000A48844203D10320FFF790FF09E008489A
:10099000844203D10420FFF789FF02E00520FFF71E
:1009A00085FF70BD80800440FFFFEF2500400640BA
:1009B00000800640F7B50D46164600242F4605E098
:1009C0003978009800F024F87F1C641CB44206DAE1
:1009D0000098FFF7BDFF042108400028F0D1204611
:1009E000FEBDF7B582B00E461546002701960AE017
:1009F0002A4601990298FFF7DDFF04462D1B3F1997
:100A0000019800190190002DF2DC384605B0F0BDC8
:100A1000C1617047F8B504460D46FFF7F9FD07467A
:100A20002901FFF765FB0646701E2062F8BD10B570
:100A300000210846FFF7B4FC00210120FFF7B0FCBD
:100A400001210220FFF7ACFC10BD10B500210846C3
:100A5000FFF7A6FC01210846FFF7A2FC00210220B7
:100A6000FFF79EFC10BD10B500210846FFF798FC6B
:100A700000210120FFF794FC00210220FFF790FCE9
:100A800010BD10B501210020FFF78AFC00210120D4
:100A9000FFF786FC00210220FFF782FC10BD00005A
:100AA00010B5002819DA1A4A03071B0F083B9B08E8
:100AB0009B00D2588307DC0EFF23A3409A438B0789
:100AC0001B0E8407E40EA3401A43114B0407240FA6
:100AD000083CA408A4001A5118E00E4A03231B0284
:100AE000D21883089B00D2588307DC0EFF23A34053
:100AF0009A438B071B0E8407E40EA3401A43054B51
:100B0000032424021B198408A4001A5110BD0000FC
:100B10001CED00E000E100E010B50446601E09494C
:100B2000884201D9012010BD601E07494861032198
:100B3000081FFFF7B5FF00200349886107200861FF
:100B40000020F0E7FFFFFF0000E000E010B50A48DA
:100B50000068401C08490860FF212D3106480068E4
:100B6000FFF7C6FA002905D10448006801210843AF
:100B70000249086010BD00000000001004000010D1
:100B800010B5FFF703FD0149086010BD20000010FB
:100B900010B5122001218140054A1268054B1A4008
:100BA0001143034A116000BFFFF7CAFE10BD0000E9
:100BB00080800440FFFFEF2502E008C8121F08C133
:100BC000002AFAD17047002001E001C1121F002A5B
:100BD000FBD1704701460648814201D10E20704783
:100BE0000448814201D10F20F9E71020F7E7000007
:100BF0000040064000800640FFF7C2FFFFF780FB81
:100C000022A0FFF7E9FB29A0FFF7E6FB64213348A8
:100C10000068FFF76DFA0446FFF77EFF02200146E9
:100C200042014B105B1E1A432D4B5A6200BF4020FD
:100C3000FFF76AFE1120FFF76DFC022211462948DA
:100C4000FFF7C3FD0720FFF765FC1821B220FFF76F
:100C500017FE0720224980310A6801218140224B7A
:100C600019438A431E4980310A6000BF0DE01F48C6
:100C70000078C007C00F002807D01C480068400853
:100C800040001A49086000F06DF8F0E7504C4C2F16
:100C9000495243204672657175656E6379207461AF
:100CA000626C652064656D6F3A0A00006275696C5C
:100CB0006420646174653A204D61792031322032BC
:100CC000303136206275696C642074696D653A2034
:100CD00031373A31363A30390A000000200000102E
:100CE0000080044000400440000010DA04000010BE
:100CF00010B504460220FFF707FE0020FFF7FAFCBC
:100D00000020FFF7EDFC0120144A126900210A4679
:100D10000243124B1A6100BF8020FFF7E3FDA07968
:100D2000217AC206D20E8B075B0E1A430C4B9A60D7
:100D300000BF8020FFF7E8FD00BF00BF0848C06883
:100D4000C007C00F0028F8D060890549403188638A
:100D500000BF0320FFF7C4FC10BD000000000440EA
:100D600000800440F8B54D4800880C2148434C49A8
:100D7000085A4C4948430546484800880C214843D6
:100D8000474940184088474948430446434800883B
:100D90000C214843424940184689434800780028BE
:100DA00006D0012811D0022856D0032873D15DE067
:100DB000FFF759FE00210320FFF786FC002037498A
:100DC000088001203849087065E0FFF75AFE214687
:100DD0002846FFF705FD01210320FFF775FCFFF70B
:100DE000CFFE642131480068FFF782F90746FFF71C
:100DF00093FEFFF747FA2EA0FFF7EEFA0A223049DA
:100E000026480088FFF748FB2D48FFF7E5FA2DA09C
:100E1000FFF7E2FA23492846FFF76AF907460A2254
:100E20002749FFF739FB2648FFF7D6FA29A0FFF735
:100E3000D3FA1C492046FFF75BF907460A222049EE
:100E4000FFF72AFB1E48FFF7C7FA0A20FFF7BAFA96
:100E50000220154908701EE0FFF7F7FD3146032018
:100E6000FFF732FC03201049087014E0FFF7DFFDA4
:100E700000210320FFF728FC08480088401C074990
:100E8000088008460088472801D1002008800120FA
:100E90000549087000BF00BFF8BD00000A0000103F
:100EA000E40E000040420F00080000102000001077
:100EB0005461626C6520696E6465783A00000000D8
:100EC00024000010206D61696E20636C6F636B3AC3
:100ED000000000002073797374656D20636C6F638C
:100EE0006B3A00000C000C00C00000000300010081
:100EF0000C000600C0000000030002000C0004000B
:100F0000C0000000030003000C000300C00000004C
:100F1000030004000C000200C000000003000600F3
:100F20000C000100C000000003000C0018001800B5
:100F3000C00001000200010018000C00C000010008
:100F40000200020018000800C000010002000300B7
:100F500018000600C0000100020004001800040090
:100F6000C00001000200060018000300C0000100DC
:100F70000200080018000200C000010002000C007E
:100F800018000100C0000100020018002400120037
:100F9000200102000200020024000C0020010200D7
:100FA00002000300240009002001020002000400E6
:100FB00024000600200102000200060024000400B4
:100FC00020010200020009002400030020010200A9
:100FD00002000C00240002002001020002001200A6
:100FE000240001002001020002002400300018004B
:100FF000C00003000100020030001000C000030028
:101000000100030030000C00C000030001000400D8
:1010100030000800C0000300010006003000060098
:10102000C00003000100080030000400C0000300FD
:1010300001000C0030000300C0000300010010009C
:1010400030000200C0000300010018003000010061
:10105000C0000300010030003C001E00F00004004E
:10106000010002003C001400F00004000100030035
:101070003C000F00F0000400010004003C000C00E4
:10108000F0000400010005003C000A00F00004002C
:10109000010006003C000600F000040001000A0008
:1010A0003C000500F000040001000C003C000400BE
:1010B000F000040001000F003C000300F0000400F9
:1010C000010014003C000200F000040001001E00BA
:1010D0003C000100F000040001003C004800180042
:1010E0002001050001000300480012002001050056
:1010F0000100040048000C0020010500010006006A
:10110000480009002001050001000800480008000F
:10111000200105000100090048000600200105002B
:1011200001000C004800040020010500010012002D
:1011300048000300200105000100180048000200DB
:1011400020010500010024004800010020010500E5
:101150000100480054001C00A80006000000030025
:1011600054001500A80006000000040054000E0002
:10117000A80006000000060054000C00A8000600AD
:101180000000070054000700A800060000000C0043
:1011900054000600A800060000000E0054000400E1
:1011A000A80006000000150054000300A800060077
:1011B00000001C0054000200A800060000002A00E5
:1011C00054000100A8000600000054006000180050
:1011D000C00007000000040060001000C00007000D
:1011E0000000060060000C00C000070000000800BE
:1011F00060000800C000070000000C00600006004E
:10120000C00007000000100060000400C0000700DC
:101210000000180060000300C0000700000020006C
:1012200060000200C0000700000030006000010004
:10123000C000070000006000070D1011131B1C12F6
:101240000C01020B001BB7000000000000000000B2
:10125000C027090090051000C05C1500F0B31A000B
:10126000200B2000009F2400E0322900C0C62D0082
:1012700050973100E06735007038390000093D00B3
:101280004016400080234300C03046000C000C0094
:10129000C0000000030001000C000600C0000000B8
:1012A000030002000C000400C00000000300030063
:1012B0000C000300C0000000030004000C0002004A
:1012C000C0000000030006000C000100C000000088
:1012D00003000C0018001800C0000100020001000B
:1012E00018000C00C00001000200020018000800F5
:1012F000C00001000200030018000600C000010049
:101300000200040018000400C000010002000600F2
:1013100018000300C00001000200080018000200CD
:10132000C000010002000C0018000100C000010014
:101330000200180024001200200102000200020036
:1013400024000C0020010200020003002400090018
:101350002001020002000400240006002001020017
:10136000020006002400040020010200020009001F
:10137000240003002001020002000C0024000200EF
:1013800020010200020012002400010020010200DE
:101390000200240030001800C00003000100020019
:1013A00030001000C00003000100030030000C00FA
:1013B000C00003000100040030000800C00003006A
:1013C0000100060030000600C00003000100080014
:1013D00030000400C000030001000C0030000300D6
:1013E000C00003000100100030000200C000030034
:1013F0000100180030000100C000030001003000AF
:101400003C001E00F0000400010002003C0014003B
:10141000F0000400010003003C000F00F000040095
:10142000010004003C000C00F00004000100050075
:101430003C000A00F0000400010006003C00060029
:10144000F000040001000A003C000500F000040068
:1014500001000C003C000400F000040001000F003B
:101460003C000300F0000400010014003C000200F6
:10147000F000040001001E003C000100F000040028
:1014800001003C0048001800200105000100030095
:1014900048001200200105000100040048000C0073
:1014A0002001050001000600480009002001050098
:1014B00001000800480008002001050001000900A3
:1014C000480006002001050001000C00480004004F
:1014D0002001050001001200480003002001050062
:1014E000010018004800020020010500010024004E
:1014F00048000100200105000100480054001C00C4
:10150000A80006000000030054001500A800060013
:101510000000040054000E00A800060000000600B1
:1015200054000C00A800060000000700540007004B
:10153000A800060000000C0054000600A8000600E9
:1015400000000E0054000400A80006000000150072
:1015500054000300A800060000001C005400020014
:10156000A800060000002A0054000100A8000600A0
:101570000000540060001800C000070000000400D4
:1015800060001000C00007000000060060000C00B2
:10159000C00007000000080060000800C00007004D
:1015A00000000C0060000600C000070000001000F2
:1015B00060000400C0000700000018006000030085
:1015C000C00007000000200060000200C00007000B
:1015D0000000300060000100C00007000000600053
:1015E0007A797877767574737271706F6E6D6C6BD3
:1015F0006A696867666564636261393837363534AD
:101600003332313031323334353637383961626311
:101610006465666768696A6B6C6D6E6F7071727312
:101620007475767778797A0048160000000000100B
:1016300024000000B80B00006C160000240000100D
:10164000A4010000C60B0000000000000000000024
:10165000000000000000000000000000000000008A
:0C1660000000000000000000000000007E
:04000005000000C136
:00000001FF
