:020000040000FA
:1000000030020010D5000000E5000000DD00000017
:1000100000000000000000000000000039FBFFEFBE
:10002000000000000000000000000000DF000000F1
:100030000000000000000000E1000000E3000000FC
:10004000E5000000E500000000000000410800009D
:10005000E5000000E500000000000000E5000000F1
:10006000E5000000E5000000E5000000E5000000FC
:10007000E5000000E5000000E5000000E5000000EC
:10008000E5000000E5000000E5000000E5000000DC
:10009000E5000000E5000000E500000000000000B1
:1000A000E5000000E5000000E5000000E5000000BC
:1000B000E5000000E5000000E5000000E5000000AC
:1000C0000348854600F08EF800480047010900000B
:1000D000300200100448804704480047FEE7FEE76E
:1000E000FEE7FEE7FEE7000021080000C100000077
:1000F00030B50B46014600202022012409E00D46C0
:10010000D5409D4205D31D469540491B2546954047
:1001100040191546521E002DF1DC30BDF0B51FB45C
:100120000646002082B005464024019100901BE065
:10013000019922460F46304600F042F8049A059B8A
:10014000801A994110D310461946224600F028F82B
:10015000361A8F410197224601200021009F00F0AE
:100160001FF838184D4100902046641E0028DFDC3F
:10017000019B00982946324607B0F0BD03460B4369
:100180009B0703D009E008C9121F08C0042AFAD24D
:1001900003E00B780370401C491C521EF9D27047D3
:1001A00010B5202A04DB0146203A9140002010BD02
:1001B000914020239C1A0346E3401943904010BD10
:1001C00010B5202A04DB0846203AD040002110BD9B
:1001D0000B46D340D0402024A21A91400843194630
:1001E00010BD0000064C0125064E05E0E36807CC73
:1001F0002B430C3C98471034B442F7D3FFF764FF0D
:10020000540E0000740E000010B506490868064A36
:10021000104040221043086000F022F800F006F879
:1002200010BD000080800440FFFFEF25F8B50A4DA7
:1002300000240A4E802700230520325D194640071E
:1002400000F020F90548801C005D80002F50641CE0
:10025000022CF0DBF8BD000000400440AA0A0000B8
:1002600070B50024074E05256D07325D012300217E
:10027000284600F007F9315D01206854641C082C01
:10028000F3DB70BDAE0A0000082806D2034B05223E
:10029000185C52070123594011547047AE0A000000
:1002A000082805D20349085C012181400248016009
:1002B00070470000AE0A0000002300A010B5002027
:1002C0000A49096B8907890F08D0012908D002293A
:1002D00009D0032901D100F041F810BD044810BD38
:1002E00000F020F810BD00F077F810BD4080044009
:1002F000001BB70041688068081A7047FFFFFFFFC6
:10030000C206D20E521C08465043704710B5FFF784
:10031000D5FF0349896BC9B2FFF7EAFE10BD0000A3
:1003200040800440094800688007800F05D00128FC
:1003300005D0032806D000207047054870470548BF
:10034000006870470448006870470000408004401F
:10035000001BB700B80A0000BC0A000010B5FFF788
:10036000E1FF0146034880684006400EFFF7C8FFE2
:1003700010BD00000080044010B50E484069C4B2B2
:10038000002C14D0FFF79AFF2146FFF7B1FE094A6F
:100390004032116BC9B2FF2908D1516BCAB2010EAC
:1003A000FF32000201320023FFF7B8FE10BD00202B
:1003B00010BD00008080044010B5C1050A0FC006C2
:1003C000C00E401C41009000024A1058FFF790FEFA
:1003D00010BD0000C00A000010B50348406AC00507
:1003E000C00DFFF7E9FF10BD00800440034908631A
:1003F00000204863012048637047000040800440AB
:1004000003490860002048600120486070470000F0
:1004100040800440F8B506460D46FFF74FFF0746FB
:1004200031463846FFF764FE0146080000D101213D
:10043000C8B2114A5061104C4034002D17D00E48FC
:10044000803843680D4D0422AB43436043680C4D34
:100450002B401A434260FF2020633846FFF748FED6
:1004600000023146FFF744FEC0B2606301E00020A5
:100470002063FFF781FFF8BD808004400420FEFF69
:10048000FFDF010010B50124944089000818002BFB
:1004900004D04721C9014018046010BD0921890218
:1004A0004018046010BD0000F8B50E46164D2946F0
:1004B000FFF71EFE84B229463046FFF719FE82B2CE
:1004C000002500201E2A00D9F8BD602C01D900208B
:1004D000F8BD0E4E0E4F0C214143735AA34206D174
:1004E00089194988914202D13880012502E0401CD7
:1004F0004728F0D3002D05D038880C2148438019B7
:1005000000F078FA2846F8BD40420F00000B0000CA
:100510000000001010B50207520E000983000548C4
:1005200018180368FF249440A343914019430160C5
:1005300010BD000000C00040074A536801218140FF
:1005400006480843834353605068044BDB4318401C
:100550000143516070470000008004400020FEFF0E
:10056000054A916B054B1940184008436D2109025B
:10057000084390637047000000820440FF80000041
:10058000054A916B054B1940184081436D200002CC
:10059000014391637047000000820440FF80000027
:1005A00010B502494800FFF77FFF10BD80C3C901A5
:1005B00010B500F095F904490B6801228240034808
:1005C000024393430B6010BD80800440000010DAAA
:1005D00070B504460D461646A0680A490840400713
:1005E0000AD53146204600F09FF83046FFF782FEDC
:1005F000002801D1042020612946204600F02CF873
:1006000070BD00007FFD010010B50446204600F0DB
:1006100067F9012181400C4802680C4B1A401143D4
:1006200001600B48844203D10320FFF785FF10BD12
:100630000848844203D10420FFF77EFF10BD052047
:10064000FFF77AFF10BD000080800440FFFFEF2518
:100650000040064000800640F8B504460E46074DAF
:1006600006E06069009001226946304600F09BF880
:10067000A0682840C007F4D1F8BD00007FFD01004C
:10068000084610B511461A4600F088F810BD000063
:1006900030B503460020064D03E00C78491CDC61B0
:1006A000401C904203DA9C682C406407F5D430BDAE
:1006B0007FFD0100F0B507460D461446002607E011
:1006C000224629463846FFF7E3FF241A36182D182C
:1006D000002CF5DC3046F0BDFFB581B0064615466E
:1006E0001F46042030613A462946029800F05BF824
:1006F00004463046029900F017F83A1B291902986F
:1007000000F051F801190420F060084605B0F0BD72
:1007100070B504460D46FFF72FFE2901FFF7E8FCF0
:10072000401E206270BD0000F8B504460E46084D1C
:1007300002E068460078E061A0682840400706D5DE
:1007400001226946304600F029F80028F1D1F8BDB1
:100750007FFD010010B50A4C80202168094A114034
:100760000843206004210020FFF7D4FE002101206F
:10077000FFF7D0FE206804498843206010BD0000C8
:1007800080800440FFFFEF25800010DA01604260A6
:100790000021C160016181600020704710B5012314
:1007A00000F069F810BDF7B582B004461746EFF3C4
:1007B00010800190012080F3108821696068461A3A
:1007C000A268851ABD4200D93D46002D1AD0206886
:1007D0004018B54201D22A4600E032460399FFF79D
:1007E000CDFCAE4205D20398AA1B81192068FFF701
:1007F000C5FC206961684019FFF77AFC2161A06897
:10080000C019A060019880F31088284605B0F0BD9B
:1008100010B5FFF77BFD0149486010BD00000010D6
:1008200010B50548012102688904044B1A401143A0
:100830000160FFF7B5FE10BD80800440FFFFEF258B
:1008400010B5034A034811461431FFF7C1FE10BD2D
:10085000080000100040064002E008C8121F08C14E
:10086000002AFAD170477047002001E001C1121F31
:10087000002AFBD17047FFB581B00446EFF3108723
:10088000012080F310886168E0680E1AA56895421F
:1008900000D91546002D1DD021680918B54201D296
:1008A0002A4600E032460298FFF768FCAE4205D2C5
:1008B0000298AA1B21688019FFF760FC04980028A1
:1008C00008D0E06861684019FFF712FCE160A06899
:1008D000401BA06087F31088284605B0F0BD0000DB
:1008E0000549884201D10E2070470449884201D150
:1008F0000F207047102070470040064000800640DF
:1009000038B5FFF785FFFFF77FFCFFF723FF0021D6
:100910000846FFF7B9FC314C2046FFF775FE04206E
:1009200021682F4A114001432160E1200121400349
:10093000FFF770FDE12149022046FFF7E9FE20683C
:10094000274901257C3108402843206060682549FB
:10095000084060602449402208461438FFF716FF1B
:1009600021494022403108466838FFF70FFFE56013
:10097000042020611D480825056028221C492046C6
:10098000FFF798FE1A4A18492C23293228392046A5
:10099000FFF7A2FE00200090134901236A46143994
:1009A0002046FFF76DFE00280BDD0F4901236A4644
:1009B00028392046FFF790FE012802D00020FFF7DB
:1009C0006FFC684600781B28E6D108488030056037
:1009D0002046FFF7EDFD012038BD00000040064035
:1009E00001DAFC00060301003000001000E100E025
:1009F000540A000070B505460220FFF7C1FD002033
:100A0000FFF7FEFC0020FFF7F1FC1048016901210F
:100A100001618020FFF7A4FDA879297AC006C00EE5
:100A20008907490E0A4C0843A0608020FFF7A8FD03
:100A3000E068C107C90F0029FAD06889044940312C
:100A400088630320FFF7D2FC70BD00000000044063
:100A5000008004404C50433878782055415254204F
:100A60006578616D706C65207573696E6720726959
:100A70006E6720627566666572730D0A0050726556
:100A800073732061206B657920746F206563686FD4
:100A9000206974206261636B206F7220455343208C
:100AA000746F20717569740D0A000C01020B070D3B
:100AB0001011131B1C120000001BB70000000000E7
:100AC00000000000C027090090051000C05C150060
:100AD000F0B31A00200B2000009F2400E032290010
:100AE000C0C62D0050973100E067350070383900DE
:100AF00000093D004016400080234300C0304600FE
:100B00000C000C00C0000000030001000C000600F7
:100B1000C0000000030002000C000400C000000040
:100B2000030003000C000300C000000003000400E9
:100B30000C000200C0000000030006000C000100D1
:100B4000C000000003000C0018001800C0000100E5
:100B50000200010018000C00C000010002000200A9
:100B600018000800C0000100020003001800060081
:100B7000C00001000200040018000400C0000100D1
:100B80000200060018000300C00001000200080077
:100B900018000200C000010002000C001800010053
:100BA000C000010002001800240012002001020011
:100BB0000200020024000C002001020002000300D9
:100BC00024000900200102000200040024000600A5
:100BD000200102000200060024000400200102009F
:100BE00002000900240003002001020002000C00A2
:100BF0002400020020010200020012002400010073
:100C0000200102000200240030001800C000030090
:100C10000100020030001000C000030001000300CA
:100C200030000C00C0000300010004003000080088
:100C3000C00003000100060030000600C0000300F1
:100C40000100080030000400C000030001000C0097
:100C500030000300C000030001001000300002005B
:100C6000C00003000100180030000100C0000300B4
:100C7000010030003C001E00F000040001000200F2
:100C80003C001400F0000400010003003C000F00D1
:100C9000F0000400010004003C000C00F00004001F
:100CA000010005003C000A00F000040001000600FD
:100CB0003C000600F000040001000A003C000500B2
:100CC000F000040001000C003C000400F0000400EF
:100CD00001000F003C000300F000040001001400BC
:100CE0003C000200F000040001001E003C00010076
:100CF000F000040001003C0048001800200105003D
:100D0000010003004800120020010500010004005A
:100D100048000C0020010500010006004800090001
:100D2000200105000100080048000800200105001E
:100D300001000900480006002001050001000C0028
:100D400048000400200105000100120048000300D3
:100D500020010500010018004800020020010500E4
:100D600001002400480001002001050001004800A6
:100D700054001C00A80006000000030054001500E9
:100D8000A80006000000040054000E00A8000600A1
:100D90000000060054000C00A80006000000070038
:100DA00054000700A800060000000C0054000600D4
:100DB000A800060000000E0054000400A800060071
:100DC0000000150054000300A800060000001C00ED
:100DD00054000200A800060000002A005400010090
:100DE000A80006000000540060001800C0000700C2
:100DF0000000040060001000C000070000000600B2
:100E000060000C00C000070000000800600008003F
:100E1000C000070000000C0060000600C0000700D2
:100E20000000100060000400C0000700000018006F
:100E300060000300C0000700000020006000020006
:100E4000C00007000000300060000100C000070083
:100E500000006000740E0000000000100800000098
:100E6000580800007C0E0000080000102802000056
:0C0E700068080000000000000000000006
:04000005000000C136
:00000001FF
